:10000000000006202D03000001030000050300008E
:10001000090300000D030000110300001503000098
:1000200000000000000000000000000091C6010078
:100030001D0300000000000021C6010049C30100AB
:100040006D450000754500007D45000085450000B8
:100050008D450000954500009D450000A545000028
:10006000AD450000B5450000BD450000C545000098
:10007000CD450000D5450000DD450000E545000008
:10008000ED450000F5450000FD4500000546000077
:100090000D460000154600001D46000025460000E4
:1000A0002D460000354600003D4600004546000054
:1000B0004D460000554600005D46000065460000C4
:1000C0006D460000754600007D4600008546000034
:1000D0008D460000954600009D460000A5460000A4
:1000E000AD460000B5460000BD460000C546000014
:1000F000CD460000D5460000DD460000E546000084
:10010000ED460000F5460000FD46000005470000F2
:100110000D470000154700001D470000254700005F
:100120002D470000354700003D47000045470000CF
:100130004D470000554700005D470000654700003F
:100140006D470000754700007D470000992F0000B3
:10015000854700008D470000954700009D4700003F
:10016000A5470000AD470000B5470000BD470000AF
:10017000C5470000CD470000D5470000DD4700001F
:10018000E5470000ED470000F5470000FD4700008F
:10019000054800000D480000154800001D480000FB
:1001A000254800002D480000354800003D4800006B
:1001B000454800004D480000554800005D480000DB
:1001C000654800006D480000754800007D4800004B
:1001D000854800008D480000954800009D480000BB
:1001E000A5480000AD480000B5480000BD4800002B
:1001F000C5480000CD480000D5480000DD4800009B
:10020000E5480000ED480000F5480000FD4800000A
:10021000054900000D490000154900001D49000076
:10022000254900002D490000354900003D490000E6
:10023000454900004D490000554900005D49000056
:10024000654900006D490000754900007D490000C6
:10025000854900008D490000954900009D49000036
:10026000A5490000AD490000B5490000BD490000A6
:10027000C5490000CD490000D5490000DD49000016
:10028000E5490000ED490000F5490000FD49000086
:10029000054A00000D4A0000154A00001D4A0000F2
:1002A000254A00002D4A0000354A00003D4A000062
:1002B000F43C020000000020B4070000F43C0200FF
:1002C0000000000400000000F43C020000000620D2
:1002D00000000000F43C020000A00B400000000001
:1002E0000010002074870400000000046403010073
:1002F000000006200000000000A00B4000000000ED
:10030000FEE700BFFEE700BFFEE700BFFEE700BF5D
:10031000FEE700BFFEE700BFFEE700BFFEE700BF4D
:10032000FEE700BFFEE700BFFEE700BF72B61C4B52
:100330001C4A20480360196881F3088882F30A8800
:1003400004F082FB1849194A91420DD2D1E90045C7
:1003500088680C310028F7D00023E658EE500433AB
:100360009842FAD89142F1D3114DA94213D20024F8
:10037000013D6D1A01F1100325F0070508311D44F8
:1003800051E9020222B10023C45004339A42FBD83F
:100390000831A942F4D162B600F038F8FEE700BF98
:1003A0000000000000F00520B0020000E0020000A4
:1003B0000003000008ED00E04AF6022300B585B016
:1003C00001206946ADF8003019F0CCFA01201BF08D
:1003D00003FA28B900214FF0FF301AF05DFDF9E76C
:1003E00006481DF0B9F80021012301A8ADF804303A
:1003F000ADF808101AF012F9ECE700BF3CFB010061
:1004000019F024B919F012BA704700BF30B583B0A3
:100410001DF03EF902F0C0FB464B4748D3F8804040
:1004200021461DF029F8E5075BD4A0077DD46107BC
:1004300077D4E20571D4A3056BD4250565D4E00417
:100440005FD4A10459D4620453D423044DD43B484F
:100450001DF082F83A4A40213A481DF00DF83A481A
:1004600000230246394C83EA04010133402B42F851
:10047000041FF8D100221346344D50F8044F83EA8C
:1004800005018C4203F1010318BF0132402BF4D166
:100490002F4B30493048002A18BF19461CF0ECFF9A
:1004A00002F0A4FC002100240925084609F0C4FF3D
:1004B000002002F0ABFBCDE9005402254FF400729E
:1004C00023462649264817F00DFE4FF4C062234606
:1004D0002449CDE90054244817F004FE17F042FFE8
:1004E000FEE722481CF0C8FF9FE721481CF0C4FF2C
:1004F000ADE720481CF0C0FFA7E71F481CF0BCFF79
:10050000A1E71E481CF0B8FF9BE71D481CF0B4FF94
:1005100095E71C481CF0B0FF8FE71B481CF0ACFFB0
:1005200089E71A481CF0A8FF83E719481CF0A4FFCC
:100530007DE700BF00800440B4FB01005CFC0100CB
:100540000000000460FC0100FCFFFF030000A5A503
:1005500078FB01009CFB010090FC0100B8FC01004D
:10056000B9030000D8000200DD140000E0FB010028
:1005700050FC010044FC010038FC01002CFC01008F
:1005800014FC010008FC010000FC0100F0FB01006C
:10059000E8FB01000D4A0E4BD2F864119A68C1F3D2
:1005A0000A0002449A600A0402D5DA680132DA606D
:1005B000084A1968D2F8342D5868C2F30A0CC2F3FD
:1005C0000A4261440244C3E900127047001010401F
:1005D000C059002000001040704700BF074B18684A
:1005E00050B1002200B583B002231146009218F0EA
:1005F000EFFC03B05DF804FB704700BF905A002089
:10060000014600B5CBB283B00093C1F30742C1F3FA
:1006100007230348090E1CF02FFF03B05DF804FB0D
:10062000C0FC0100A84B2DE9F04F5D68A74CA84B1A
:1006300093B01878A36A964601330B90A362002802
:1006400040F06581A34B1B780393002B00F0EE80F4
:10065000002A00F0EF808B469F4B0B9E1B68DFF853
:1006600088A20993994B9D4F1A681B6B0C929C4A68
:100670000E96D2F800809B4A0296D2F8009010960F
:10068000089311955BF826200BEB8603110F4FEAB8
:10069000860C01930C2900F2D780DFE811F00D00E1
:1006A0000D000D0052005200D5000D000D0052004B
:1006B00052005200B900B9000136B6452AD30120D4
:1006C000C8F580528242C0F0AD80099A019B424435
:1006D000043B8518C2F30B0153F8044F0132AA42C0
:1006E0004AF82140F6D1DDE902218044C84588BF9F
:1006F0000A465BF80C3002924FEA137288BFC1467B
:10070000032A00F0F580052A00F0F280039B109385
:10071000B645B7D80E9B119D13B16C4B089A1A635E
:10072000029B13B16F4BC3F80090109B13B16C4B3D
:10073000C3F800800B9B002B7CD0644B0C9A1A6092
:1007400078E002367645E5D8032940F0158101238B
:1007500004930023C2F303640A93130E079317F85C
:10076000243002200693002B00F08780049DA5F121
:100770000203B3FA83F35B090593A50007EB840337
:100780000D930F959B78059DAB4276D1049D022D6C
:1007900000F0CE800C9B032903F101030C9300F0C1
:1007A000D3800221C2F30353C2F30722092020FAA7
:1007B00003F3D80729D50023A500781990F801C0C4
:1007C0007B53BCF1000F20D002294FEA046300F0F4
:1007D000CC8043F0405343F44013C8F58052012AC3
:1007E00013D90024099A40484244511C08F10208D8
:1007F000C2F30B02C1F30B01C84540F8223040F8A8
:10080000214000F2AC80CDF840C0069B0B937FE7FF
:100810000336B645FFF47EAF0320C8F5805282420E
:10082000BFF453AF089B013308934AE0274A136B88
:10083000013313632D4B244A596852680A44541BF0
:100840005C6013B0BDE8F08F0436B645FFF462AFCC
:10085000052918BF04207FF433AF02230493130E3D
:100860000793C2F30364C2F307230A9317F82430F3
:1008700004200693002B7FF479AFC8F5805484429E
:10088000BFF423AF089B032903F101030893079BDF
:1008900003F00F055DD1C2F303530121002283B1A0
:1008A000A1F10201013BB1FA81F14FF0010018BF43
:1008B0000123490907F8250007EB8505EA70A970AF
:1008C0006B70039B0E9323E7001000E0F4500020B0
:1008D00024500020BA560020181000204C50002050
:1008E00014100020101000201C100020A050002028
:1008F0000921C3F30362C3F3035321FA03F3DB07B4
:100900007FF504AF4FF0000327F82230FEE61E4BC0
:10091000186840B192B209F0D1F920B11B4A1368AE
:100920000133136086E71A4A13680133136081E7C5
:100930000D9B0A9DDB78AB429FD10C9B032903F1F1
:1009400001030C937FF42DAFC2F303530121002266
:100950002CE7C2F303530221C2F307229FE7C146EB
:10096000CDF808C0CDF840C04FE743EA022242F07C
:10097000A04343F4441330E7C8F58052012A7FF6C0
:1009800051AF0220A1E600BFB45600202050002045
:100990001C500020F8B54FF0E0271E4617F020FE4F
:1009A000BD69044617F01CFE8442F7D14FF47A71FA
:1009B0007B69204F01335A1B01FB02F2B2FBF3F2B9
:1009C0001D4D01FB04222878E8B100233C681B4937
:1009D000141B51F8040BA04202D801330C2BF8D1A0
:1009E0001748DFF870C050F82310013140F8231089
:1009F000DCF80030A342134B88BFCCF800401968E4
:100A0000A14238BF1C6001213A600F4A432E13688F
:100A100029700B4413600D4A1368334488BF1026B5
:100A200013600B4A98BFB60852F82630013342F8DB
:100A30002630F8BD085A0020055A0020383602003A
:100A40005C5A00200C5A0020145A0020105A002032
:100A5000185A002020070020074B186850B10022C8
:100A600000B583B002231146009218F0B1FA03B02A
:100A70005DF804FB704700BF905A002010B5044693
:100A80004FF4DB61FFF7BEFC204610BD38B5084DC2
:100A9000084C284606F02CFA2246284606491CF047
:100AA00031FE2246BDE83840044905481CF02ABE04
:100AB00000010004001000209D6E0000D905000018
:100AC000480000202DE9F04F88460646002595B0E5
:100AD0000DF1160205A9ADF81450ADF8165019F035
:100AE000CDFA4146304603F039FC414604463046D3
:100AF00003F04CFC0746764806F0C8F94346014629
:100B0000324674481CF0B8FC734A0197734FBDF825
:100B10001410012C08BF17462346BDF81620704854
:100B200000971CF0A9FC4146304606AA03F04CFC95
:100B3000002800F0B4800DF120099DF81B40BDF89D
:100B40001C7004F00304032C9DF81EA0C7F30A07D1
:100B500000F0AF80012C00F09180022C1CD0614B82
:100B60000893614B61499DF81A20002D08BF194672
:100B70005F4B604853F82430CDF804A0CDF80890BE
:100B800000971CF079FCCDB94146304606AA03F027
:100B900047FC78B10125D0E7CC46DFF88CE1BEE810
:100BA0000F00ACE80F009EE803004CF8040BACF813
:100BB0000010D6E74D4950481CF05EFC304619F055
:100BC00085FA022858D0304619F080FA4B494C4B30
:100BD000002808BF194600254A481CF04DFC414634
:100BE0004A463046089503F047FC074646483946D2
:100BF0001CF042FC5FB32C46DFF830A1DFF83091E7
:100C00000FE0F3449CF808C021464846CDE901BCFA
:100C1000CDF800E001341CF02FFCA74205F10D05D2
:100C200015D0089B03EB050C8BB19CF804309CF8A5
:100C3000061003F003039CF805E09CF803205AF823
:100C4000233001F1FF3B0029DBD1F346DAE7012431
:100C50002E492F4B0E702F49304681F8008006AA8E
:100C600041461C7003F0B0FB08B19DF81A002A4BF6
:100C7000187015B0BDE8F08F2849ACE7304619F080
:100C800025FABAF1000F11D07D230AF1FF3293400B
:100C9000009230214846224A1CF004FA61E71249CA
:100CA00015481CF0E9FB0DF120096DE752467D2344
:100CB000EEE7304619F00AFA0028E2D15346012B3C
:100CC00038BF012330214846164A1CF0EBF948E7AB
:100CD000000100042CFD0100CCFC0100D8FC010047
:100CE00068FD01006E2F6100F4FC0100F8FC0100BA
:100CF000F4350200F0FD01009CFD0100FCFC010048
:100D00001CFD010024FE01003CFE0100B95600203C
:100D1000BA560020B8560020045A00200CFD0100ED
:100D2000B8FD0100ACFD0100D8FD0100E435020072
:100D30005CFE010038B504460C480D4606F0A6F8E6
:100D40002B46014622460A481CF096FB094B1A78AE
:100D50001AB1094A1278A24200D038BD074A127867
:100D6000AA4204BF00221A7038BD00BF000100046F
:100D700094FE0100BA560020B9560020B856002053
:100D800038B5134C14F050FD237883B9114B124A37
:100D90001249134801F0DCFF054614F063FD55B914
:100DA00010481CF0D9FB0123237014F03DFD01F025
:100DB000BDFF14F057FD0C4806F068F80825002226
:100DC0000A490B4B0B4C086025601A7038BD00BFF8
:100DD0004400002004000020140000202400002013
:100DE00034000020D0FE0100000100040C1000209F
:100DF00008100020B0560020F0B55B480C46A5B0A6
:100E000006F044F8052C014610D8584B584D53F8BD
:100E1000242058481CF030FB2968002971D0032C8D
:100E20000CD10122544B1A7025B0F0BD504D534ADD
:100E300050481CF021FB29680029F5D006A808F0CD
:100E40006BFF47F23053239A1A9C04931B9B4C4828
:100E5000CDE90232DDE91832CDE90024DDE91612D0
:100E6000219E229F1CF008FB464B47489B6A1C9919
:100E70000193209B0093DDE91D231CF0FDFA56EA47
:100E8000070304D03A46314640481CF0F5FA404981
:100E90004FF48062D1E988133E481CF0EDFA3E4BD6
:100EA0001A688ABB002CBFD0286808F05BFF452871
:100EB000014653D845282ED8DFE800F04E4C4A486A
:100EC000464442402D2D2D2D2D2D2D2D2D2D2D2DFA
:100ED0002D2D2D2D2D2D2D2D2D2D2D2D2D2D2D2D42
:100EE0002D2D2D2D2D2D2D2D2D2D2D2D2D2D2D2D32
:100EF0002D2D2D2D2D2D2D2D2D2D2D2D3E3C3A38EA
:100F00003634032C8DD08FE7196824481CF0B4FACE
:100F1000002C89D0C8E7224A224825B0BDE8F0401D
:100F20001CF0AABA204AF7E7204AF5E7204AF3E77F
:100F3000204AF1E7204AEFE7204AEDE7204AEBE7B5
:100F4000204AE9E7204AE7E7204AE5E7204AE3E7C5
:100F5000204AE1E7204ADFE7204ADDE7104A204B3C
:100F6000802808BF1A46D7E700010004CC350200EC
:100F7000B4560020E0000200AC560020BC02020083
:100F800000010200F450002074010200C0010200C0
:100F9000000101041C020200945A002058020200C1
:100FA00024FF010094020200900002006800020089
:100FB0003C00020010000200DCFF0100B0FF010055
:100FC000A0FF01008CFF010074FF01006CFF010015
:100FD0004CFF010040FF0100C80002000CFF0100AF
:100FE000B400020010B50446164806F0DDF90022F0
:100FF000154B1A7044B9154B196899B9144B1B78E5
:101000004BB114481CF0A8FA13481CF035FA0A2218
:10101000124B1A6010BD12481CF09EFA0C220F4BA6
:101020001A6010BD0F481CF027FA09220B4B0E481E
:101030001A6005F02BFF01220C490D4B08601A7055
:1010400010BD00BF48000020385100204051002052
:10105000A45600203C03020094030200B056002076
:10106000C002020064030200000100041C560020BC
:101070001856002038B51A4C206878B308F06EFE78
:10108000B0B9256835B1284608F0C8F904212846CA
:10109000FFF7B8F900231349134A144823600B7073
:1010A000136006F0D1F8BDE83840114805F03CBEA9
:1010B000206808F039FAC82507E0206808F076FAB9
:1010C000012017F063FA013DDBD0206808F046FEEE
:1010D0000028F2D12568002DD5D1DBE738BD00BF4F
:1010E000B4560020AC560020A8560020480000202E
:1010F0000001000470B500250446B6B0FFF7BAFF42
:10110000224A234E10782349234B0D70A84218BF62
:10111000134694E803003060B1806E4640211F4AB8
:1011200003A81BF0BFFF8C221D4913A81CF0F9FA7D
:1011300003A9612213A81CF05BFA292219490DF1B9
:10114000AE001CF055FA184B93E8070086E807003C
:101150000420FFF755F93346064613AA134908F051
:10116000A3F813482B46214641F28D3206603046E3
:1011700008F086F90F481CF0EFF90C220E480F49D1
:101180000F4B05600D701A6036B070BDF855002029
:10119000EC550020AD560020A0030200A803020079
:1011A00068360200B4030200F436020000010004B5
:1011B000B4560020CC030200205600202456002004
:1011C000B056002030B5A34D04462B680278013B91
:1011D00083B00A2B1FD8DFE803F02C06465D656D4F
:1011E000751E7C8A2000002A40F0F7809A4B9B4AAB
:1011F00019789B4B9B4800290CBF114619461CF0DF
:101200003BF9032398482B6005F040FE01229749E3
:10121000974B08601A7003B030BD002A40F0F2808E
:1012200041F28C339348838003B0BDE83040FFF730
:1012300061BF632A00F0C98000F2AF80432A00F04A
:10124000C480482A00F0C580002A40F0A8808A4B5C
:101250008A4A19788A4800290CBF114619461CF0A1
:101260000BF90223CEE7642A00F0A78000F29180F8
:10127000442A00F0A280532A00F0A380002A40F004
:101280008A80754B1B78FBB97E497F481CF0F4F8C7
:101290000423B7E7002A55D17C497D481CF0ECF8BF
:1012A0000523AFE7002A3FD17A497B481CF0E4F8D8
:1012B0000623A7E7002A5FD1784979481CF0DCF8BB
:1012C00007239FE7002A4AD103B0BDE83040FFF76B
:1012D00057BD744B1B78DBB9734B302A196800F289
:1012E000A380724803B0BDE830401CF0C5B82AB9ED
:1012F0006F4803B0BDE830401CF0BEB801A90EF045
:1013000069FE002840F082806A481CF0B5F882E748
:1013100002F0DF00A0F14D00B0FA80F0400903B008
:10132000BDE83040FFF75EBE01A90EF053FE002875
:1013300037D0564B0F22214618461CF059F900228F
:10134000C273B1E701A90EF045FE80B34D4B0F22E9
:10135000214618461CF04CF90022C2739CE701A9F3
:101360000EF038FE30B34D4B0F22214618461CF0CC
:101370003FF90022C273A7E701A90EF02BFE98B136
:10138000444B0F22214618461CF032F90022C2734A
:1013900092E7732A15D04848ABE7682A19D0474826
:1013A000A7E73A4946489DE73A4946489AE735490A
:1013B000454897E73949454894E70122264B1A707A
:1013C00082E70022244B1A705EE70022404B1A701D
:1013D0003DE701223E4B1A7039E7274B01461F2299
:1013E00018461CF005F900210278C177002A3FF465
:1013F000FDAE2D23202A08BF037010F8012F002A0C
:10140000F8D1F3E61BF0ECFC83B20BE701980BF08C
:1014100057FF0246174B41F28C312E481A601CF0E0
:101420002BF80B232B60F6E601F1300393420ADA26
:1014300002F0DF024D2A7FF454AF1D481CF01CF867
:101440000A232B60E7E69420234B313A00FB02305D
:10145000EAE600BFB0560020440000200804020065
:10146000081D020044040200000100041C56002074
:1014700018560020E4550020F8550020A003020073
:1014800028040200340000209404020024000020FC
:10149000EC040200140000204405020004000020B7
:1014A0009C050200385100204051002064030200D6
:1014B00094030200F4050200780402000C04020008
:1014C000040502005C050200AC040200B405020041
:1014D000AD560020100602004451002000202DE9E6
:1014E000F04F7049704BD1F8FC20D7B042F08072B9
:1014F000C1F8FC2058601A686C4C42F001021A6076
:1015000017F09EFB02466A4B6A496B481A600C60F2
:101510001CF022F869496A481BF0AEFF69481CF0CC
:101520001BF8694B694A1978694B6A4800290CBF56
:10153000114619461BF0A0FF674A684B11786848AE
:10154000002908BF1A4611461BF096FF654B1B7811
:10155000002B00F0A58664481BF0FEFF5A4B1B7859
:10156000002B00F08A86614B109361481BF0F4FF5A
:10157000032160481BF080FF5F4805F087FC0023D3
:101580005E4ADFF8AC9110605D4ADFF8A8A1DFF891
:101590009C81DFF8A4B113602BBB01F0A7FC0028ED
:1015A000C0F203830124574B57481C701BF0D4FF33
:1015B0004549564A564B0978564800290CBF1146F2
:1015C00019461BF059FF4E4B4B481C6005F05EFC62
:1015D000514B1C70514B1860012016F0D7FF484B3F
:1015E0001B68002BD9D0082B00F01383092B00F0C7
:1015F000ED822D4B9AF8002000245D68002A00F04F
:101600003486474B1978474B187802F05BFF002867
:1016100000F0B882D9F8000020B108F09FFB032841
:1016200000F08D829BF8207001343B1D082B40F2A6
:101630002682DBF800301B0F0C2B00F2CB81DFE899
:1016400013F00D000D000D007D007D00C9010D009F
:101650000D007D007D007D00C701C7010126D9F87E
:10166000000020B108F07AFB032800F0FA81D8F8D6
:1016700020300133C8F820309BF82020964280F0BB
:10168000D98129490BEB86030BEB820753F8040B36
:101690009F4241F8040FF9D1921BD7B28BF820700A
:1016A000C7E700BF00ED00E0001000E0DD0500002E
:1016B000905A0020ACB400207C070200B403020062
:1016C000AC070200BC070200AD5600202C06020049
:1016D00024060200D8070200F8550020A0030200EB
:1016E000E807020044000020F8070200EC55002043
:1016F000580802008808020000010004F455002088
:10170000B0560020A4560020F80802003806020057
:101710003406020020090200185600201C56002042
:10172000B8560020B956002024500020F450002064
:10173000B4560020BA560020285000200226B74296
:101740008DD29AF80030002B00F07C81402C7FF481
:1017500058AFA149A14B8A685B6813445B1B8B603F
:10176000D8F838303F2B01D8C8F838409C4B1B784C
:10177000002B40F0BC83D8F834300133C8F8343043
:10178000FEF708FF954B944A5B681361954B1E78F2
:10179000002E40F0D181944805F078FB934B1A68F5
:1017A000821AB2F57A7FC0F0C7811860904D914BD4
:1017B00021AC5F6B0FCD0FC40FCD0FC40FCD0FC485
:1017C00095E8070084E807003C228A4921A82E9763
:1017D0001BF0CAFE002800F0AB817F4B1C69864BD2
:1017E0001B69E41A40F07E84D8F83430834ADB1B4E
:1017F0000B93D8F83830804C0C93D2F81C32764DCD
:101800000A93D2F818320993D8F800300893D8F820
:1018100030300793D8F82C300693D8F82830059349
:10182000D8F824300493D8F820300393D8F81C302B
:1018300002930FCD0FC42B6871482360D8F818307D
:10184000D8F804100193D8F814300093D8E9032392
:101850001BF012FE6B4B1B78002B40F09384D9F8E1
:101860000060002E31D0314631A808F055FADDE98C
:101870003112DDE9333441EA0200389D1843399EC4
:1018800020433A9F2843DDF8ECC03043384350EA08
:101890000C0007D0CDE9037CCDE901565A480094ED
:1018A0001BF0EAFD47F2305304934E9B419903939A
:1018B000469B56480293459B0193449B0093DDE968
:1018C00042231BF0D9FDD9F800604A4C484D0FCD9A
:1018D0000FC40FCD0FC40FCD0FC495E8070084E8E7
:1018E0000700002E3CD03C4B3C4C5B6830461193CB
:1018F0006768D8F8286007F059FE9AF800306568E4
:10190000002B40F04F82424A1360424A1360324833
:10191000324B02685B681344DB1B0360D8F8283045
:10192000B3420DD03C4AED1B11461268954207D9CF
:101930000A469B1B8B600D60436811995B1A5360CC
:10194000D9F8000008F00AFA344B1A7842B138B9D5
:10195000334B1B7823B9334B1B680C2B00F0B78437
:10196000314B1B7853B1204805F090FA4EF65F22B8
:101970002E4B1B68C31A934200F2D78201F0B6FACD
:101980000346002B1EDB274A12680C2A00F0368320
:10199000002225490D2B0A7024490A6000F0EB82D1
:1019A0000A2B00F0E882082B00F0B3827F2B00F0B6
:1019B000B082A3F120025E2A04D81D4A12687E2A52
:1019C00040F3C78301220020114617F04DFA06E6C6
:1019D0000326B4E60426B2E6A0500020001000E082
:1019E000045A00200000002000010004B450002030
:1019F000F4500020B85000208C5000200001010459
:101A0000CC0B020024500020A40C02000C0D02009C
:101A1000141000201810002084590020AD5600201A
:101A2000AC560020B0560020185600201C5600204E
:101A30002056002000238BF820309AF80030002B2D
:101A40007FF484AE9F49A04B8A685B6813445B1B9C
:101A50008B60D8F838309C427FF68DAEC8F838409D
:101A600089E632465946D9F8000008F027F90028DF
:101A700074D0D8F818300133C8F81830FCE5934911
:101A8000934804230978007831AA02F057FD002812
:101A900048D0D8F80420319B0132C8F80420D8F887
:101AA00008201B0F52FA80F2023BC8F808200D2BC9
:101AB0000DD8DFE803F0230723070C0C0C0C0C0CEB
:101AC0000C0C0C31D8F810300133C8F810309BF8EA
:101AD00020703B18082B1BD83B4631AA02EB80062E
:101AE00052F8041B4BF82310964203F10103DBB2BA
:101AF000F6D13844C7B28BF820709AE5D8F80C308C
:101B00009BF820700133C8F80C303B18082BE3D940
:101B1000002F3FF416AE8CE5D8F814300133C8F826
:101B20001430D4E79BF82070002F7FF482AD29E0B9
:101B3000D8F83430674A5363D9F80060D1E6D9F851
:101B4000000008F0FBF800287FF46CADD8F82430D2
:101B50000133C8F824309AF8003015E0D8F81C306A
:101B60005D4A0133C8F81C301368074633445B48AC
:101B7000136005F08BF95A4B1A68821AB2F57A7F16
:101B800080F0AA819AF800304E484F4A8168526826
:101B90000A44521B8260D8F83820A24238BFC8F8E5
:101BA0003840002B7FF4E2ADE5E54C4805F06EF9D6
:101BB00040F6B7324B4B1B68C31A93427FF60CAD0D
:101BC00049481BF0C9FCFFF7DBF805E5474B1B78DC
:101BD000002B3FF40EAD94244549224631A81BF05A
:101BE000A0FD444831A905F013FB20B1424B186811
:101BF000072840F32D84394805F048F93F4B1B680E
:101C0000C31AB3F57A6FFFF4F4AC0020FFF7EAF9DA
:101C1000EFE413F009FE3A4B18680DF02DFC07466F
:101C2000002800F057820024354B364A1B68127892
:101C300093F84D6006F00105002A76D0002D00F0E3
:101C40000883002F70D05B681C9313F00BFE1CA858
:101C50000EF0C0FA2B4B01461B78002B00F0F782E8
:101C6000294A2A4B002C18BF1A4629481BF004FCAD
:101C7000284B1B78002B40F08E82274B1B7823B912
:101C8000109B9B88002B40F0FC8300231A4A042100
:101C900013600123154A214813701BF0EDFB204807
:101CA0001BF05AFC134805F091FB002800F0EE836E
:101CB0000A4805F0EBF8114B1A4A18600923136023
:101CC0008AE400BFA0500020001000E0B8560020B9
:101CD000B9560020B8500020345100200001000403
:101CE00030510020F45500204409020038510020F2
:101CF0000037020048000020405100203C510020E5
:101D0000BC570120440000203C0602004C060200A3
:101D100070090200AD560020A4560020A40902005C
:101D2000EC090200B056002025465B681C9313F0B6
:101D300099FD002D8BD1964805F0A8F841F2873225
:101D4000944D04462B68C31A934210D9924B16F057
:101D5000040F924918BF1946914B924A1878924B3A
:101D6000002818BF1A4691481BF086FB2C608C4B4C
:101D70001B78002B3FF430AC47F22F528C4B1B6882
:101D8000E31A93427FF628AC8A4B1B78002B00F0B5
:101D90009182874B1C6013F047FD00F0C7FF13F0E2
:101DA00061FD19E4844B1978844B187802F0A8FB84
:101DB000834B0446D3F800C0BCF1000F3FF4A7AD3D
:101DC00000283FF4A4AD7F4B1A68C2F580506045EF
:101DD0004FF0000328BF604698420F9503EB0201C5
:101DE00019D9794D55F82110090F0C2940D8DFE891
:101DF00001F03B3B3B07073F3B3B0707073D3D00EF
:101E000002211944884206D3A14204D80B469842C5
:101E100003EB0201E5D80F9D63B36B499BB201EB65
:101E20008202654965480978007802F08FFB002836
:101E300000F014826349A0420B680344C3F30B0211
:101E4000D8F82C300A605E4903F10103C8F82C3041
:101E50000B68A3EB000CC1F800C0BFF458AD241A06
:101E6000BCF1000FB1D152E50121CAE70321C8E757
:101E70000421C6E7544B53F822301B0F0C2B28D8F3
:101E8000DFE803F00707071A1A2707071A1A1A24A8
:101E90002400012319469E4601EB020C31A94A4B4E
:101EA000C2F30B0053F820000132944541F8040BB3
:101EB000F5D1734631AAB4E7022319469C42FFF4D8
:101EC00026AD9C45FFF423AD0B46E4E703231946FA
:101ED000F4E704231946F1E718603C4B3C481E46E2
:101EE00019681BF0C9FA9AF8003037604CE6324B9B
:101EF0001978324B187802F0E5FA0446002800F011
:101F000030810023334A1360334A1368013313606E
:101F100031E4324B1B68002B7FF754AD2F4A013B55
:101F20002F4813601BF0A8FA4CE500232D4A1370CC
:101F30002D4B1B68013B082B3FF644AD01A252F824
:101F400023F000BF5323000043230000332300008D
:101F5000691F0000691F0000691F0000691F000061
:101F6000C51900006323000020481BF0F5FA204843
:101F7000FFF728F926E50024184D1E4A2B681E4855
:101F8000D4541BF0E9FA1B48FFF71CF92C6019E543
:101F90000001000404100020600602006406020034
:101FA000440000206C0602003C060200A80A020061
:101FB0000C10002008100020B8560020B956002050
:101FC00014100020181000201C1000203451002094
:101FD000340B0200F4590020F8590020205600204C
:101FE000EC14020018560020B0560020C80D020064
:101FF000900202002456002008FF01001B2B00F075
:10200000C984433B2E2B3FF6DDAC2E2B3FF6DAACDA
:1020100001A252F823F000BF4D290000C5190000AD
:10202000C5190000C5190000C5190000DB24000017
:10203000C5190000C5190000C5190000B32400002F
:10204000C5190000C5190000C5190000C519000018
:1020500095240000C5190000C5190000C51900002D
:10206000C5190000C5190000C5190000C5190000F8
:10207000C5190000C5190000C5190000C5190000E8
:10208000C5190000C5190000C5190000C5190000D8
:10209000C5190000C51900004D290000C519000030
:1020A000C5190000C5190000C5190000DB24000097
:1020B000C5190000C5190000C5190000B3240000AF
:1020C000C5190000C5190000C5190000C519000098
:1020D00095240000A94B18680BF0B8FE041E18BF29
:1020E0000124A1E56425A64BA64A98689368224678
:1020F000C01AA0FB050133461AF0B8FCA04BA14A58
:102100000746586853682246C01AA0FB05013346AB
:102110001AF0ACFC33460646994A1068994A126890
:10212000801AA0FB0501984D22461AF09FFC2D68ED
:102130003246964E3B46A6FB0565AD09B4FBF5F469
:102140000146009492481BF097F9924B5F6BFFF7A2
:102150004BBB91498B54914B01321A601BF09EF995
:1021600030E48F4B19788F4B187818F021FA00283B
:1021700000F0D0808C4B8D4A1C60136801331360D3
:10218000FFF7F9BA8A4B8B481A688B4B19681BF01A
:1021900073F9FFF764BBFEF76DFF0123874A21A89F
:1021A0001370874B864A1978864B002918BF13464F
:1021B0004021854A1AF076FF8C22844931A81BF011
:1021C000B0FA612221A931A81BF012FA2922804914
:1021D0000DF593701BF00CFA7E4B93E807001EABD5
:1021E00083E807000420FEF70BF904467A491EAB8A
:1021F00031AA07F059F841F28C31784A2046002381
:10220000C9F8004007F014F913F00EFB5B4B1B6894
:102210005B681D9313F026FB1DA80DF0DBFF41F258
:102220008C3201466E481BF027F96E481BF094F97A
:10223000694804F02BFE0C226B4B6C49186000239C
:102240000A60564A1360544A1370FFF7C5B9684ACA
:102250000BE55B681C9313F005FB6CE5D8F8303098
:102260000133C8F83030FFF752BB45495B688A68D4
:1022700013445B1B8B60FFF77EBA5E4B10939B8809
:10228000002B3FF472A95C481BF0F6F8109C206804
:10229000FEF7B6F9A18859481BF0EEF8FFF765B9CB
:1022A000574A584B00925849584A59481BF0E4F88D
:1022B000FFF754B90123574A574813701BF04CF9E4
:1022C00013F0B2FA00F03EFD13F0CCFA61E542489B
:1022D00004F0DCFD444B04461B68C31AB3F57A6F67
:1022E000FFF43EAB13F0A0FA244B1B685B683193FC
:1022F00013F0B8FA31A80DF06DFF484B0146D3F842
:10230000183241F28C3246481BF0B6F8364B1C604E
:10231000FFF726BB434A4449136801331360224A3E
:102320001368013313600A68934288BF0B60FFF79C
:1023300022BA3E481BF010F93D48FEF743FFFFF775
:1023400041BB3C481BF008F93B48FEF73BFFFFF759
:1023500039BB3A481BF000F93948FEF733FFFFF765
:1023600031BB384B1B68002B40F33B8336481BF0D6
:10237000F3F83648FEF726FFFFF724BBBC570120D1
:10238000A05000208C5000202C070020D34D62105C
:10239000780B0200B8500020245600202056002060
:1023A000045A0020B9560020F4590020005A002099
:1023B0001C500020800C020020500020AD56002050
:1023C000F8550020A00302008009020068360200D0
:1023D000B4030200F43602000001000448000020AB
:1023E00088090200CC030200A8560020B056002045
:1023F00044060200EC550020440802005008020088
:1024000004000020140000203400002024000020DC
:102410001808020008100020CC0A02000001010484
:10242000740D0200FC590020F0590020BC0D020080
:10243000081D02009C0D020090020200B00D020077
:102440003406020040510020E00D0200C8030200E3
:102450009F4B451C04FB00309E4B224631A91D605A
:102460001BF05FF9294633AA9B481BF005F8319809
:10247000FEF7C6F8BDF8C81098481AF0FDFFFFF740
:10248000BABB9748FEF736FEFFF7A6B895481BF093
:1024900063F80DE4944A95491378954883F0010355
:1024A0001370944A002B18BF11461AF0E5FFFFF78E
:1024B00089BA0022904991480B7883F001030B7090
:1024C0008F49934208BF01468E4B8F481A608F4B4D
:1024D0001A601AF0D1FFFFF775BA8D4B8D481A6854
:1024E0008D4B1C4619681AF0C7FF2368012B40F278
:1024F00074828A4B8A481A688A4B8B4D19681AF085
:10250000BBFF8A4C8A4E55F8042B1AB1304621681D
:102510001AF0B2FF874B04349D42F4D16FF00305EB
:1025200085481BF019F8854C854E2D1B54F8042B5B
:10253000291912B130461AF09FFF824BA342F5D100
:10254000814C824D2368824E824F00932B68326803
:10255000396881481AF090FF0023804A2B6033606D
:102560003B60236013607E4BD3F84C12002940F08F
:102570003D8200227B4D7A492868C1E99322C1E956
:102580009522C1E9972290B113F0F8FA0446286821
:1025900013F0F8FA0346002C40F053827249734856
:1025A000734A002B18BF024672481AF065FF3422A6
:1025B00000215D481BF002F8442200215F481AF018
:1025C000FDFF4FF0FF32002356490A60534A136063
:1025D0004F4A1360504A1360674A1370FDF7DAFFE1
:1025E000664F6749FD68CA68664B674C1A95AA42F0
:1025F00018BF1C46654A7E68D2F870311B961D686C
:10260000D2F8803118951B6861481293D3680F93F4
:10261000D2F8A4311193D2F8FC30D2F804211393EC
:1026200014920A464E4BD3F81C3215934B68F61A97
:10263000CB6A1599CB1A0893936A1499CB1A07930E
:10264000536A1399CB1A0693136A1299CB1A0593FE
:10265000D3690F99EB1A04939369119DEB1A0393B5
:10266000556913464D1B3946484A89685268169188
:1026700019693F68511A17921A689B68CDE901459C
:102680000025169CBA1AE31A00961AF0F5FE31AA34
:1026900010214048319516F061FA04463E4B319ABC
:1026A0001B683E48D31A1E4619931AF0E5FE002C0B
:1026B00000F0CD81002E00F09680364E384B1A681F
:1026C000002A7CD00023D6F800C0364970E000BF55
:1026D0004451002040510020280B02005008020005
:1026E000EC550020600A02000000002048070200AC
:1026F000CC1402001C07020024500020B006020087
:102700007C0602001C500020140E02002050002005
:10271000105A0020340E0200145A00200C5A0020D7
:102720009C0E0200200700205C5A002004360200A4
:10273000D00E0200905A0020E00E0200185A00202D
:102740001C0F02005C5A0020F0590020FC590020A8
:10275000005A0020F8590020340F0200F4590020DC
:1027600000010104BC570120CC060200F006020063
:10277000E40602002C100200055A0020C059002077
:1027800090590020FC06020090020200D057012060
:102790005C10020044570020C05600204411020083
:1027A000BC5600200457002001339A4200F01381E8
:1027B00051F8040B6045F7D1A74A52F8232064234F
:1027C000B0690135801AA0FB0301199A00231AF0A1
:1027D0004DF971680246A1481AF04EFEAC4206F16E
:1027E00024067FF46BAF9E481AF0B6FE9D4A9E4BBE
:1027F000994902EB84051868243342F8040B53F816
:102800000C0CAA4241F8040BF5D1984A984B99490F
:102810001C60D2F8443200240493D2F84032964827
:102820000393D2F83C32954D0293D2F8383201939B
:10283000D2F834320093319B0B601146D2F830321B
:10284000D1F82812D2F82C221AF016FE8C4B8D4AA1
:102850001B682968A2FB03239A0C6B68B1FBF2F199
:10286000B3FBF2F38848AA681AF006FE214620223C
:102870008648C5E90044AC601AF0A0FE844A854849
:102880001146D369049393690393536902931369BF
:102890000193D36800939368096852681AF0ECFDBD
:1028A000214620227A481AF089FE17F04DF8044696
:1028B00017F050F84FF400330246214676481AF0DC
:1028C000DBFD764B1B9A1F605A60169A74489A601B
:1028D0001A9ADA60179A1A610F9A5A61119A9A61D4
:1028E000189ADA61129A1A62139A5A62149A9A62C0
:1028F000159ADA626B4B1A686B4B19681AF0BCFDBB
:10290000D9F8001091B131A807F006FA499B674841
:1029100004933A9B31990393399B0293389B01931B
:10292000349B0093DDE932231AF0A6FDD8F800307D
:102930005F4C604D009323684FF4805229685E48D5
:102940001AF09AFD23682B60FFF73CB8D8F80030E6
:10295000D8F804100893D8F8303058480793D8F8BE
:102960002C300693D8F828300593D8F824300493F7
:10297000D8F820300393D8F81C300293D8F81830D8
:102980000193D8F814300093D8E903231AF074FDAA
:10299000FFF718B801244A481AF0DEFDFEF76AFB7B
:1029A000484B49481C701AF0D7FD4849484A494BE2
:1029B0000978494800290CBF114619461AF05CFDF8
:1029C000464B47481C6004F061FA464B1C70464B6E
:1029D0001860FEF7F7BF0022F1E644481AF0BCFD8C
:1029E000FCE54348FEF7EEFBFEF7ECBF244B414A03
:1029F0001B681E48B3FBF2F3D0F85C42D0F85422B7
:102A00004FF47A7E1519B5FBF3F5B4FBF1F4D0F869
:102A10006072D0F85862B2FBF1FCB7FBF3F7B6FB7B
:102A2000F3F6B4FBF3F4B5FBFEF5D0F85022BCFB93
:102A3000F3F3CDE90064029703952F481AF01CFDCB
:102A400097E52E492E4A012C08BF1146A7E50448F8
:102A50001AF082FDD9E600BFC456002060110200C2
:102A600008FF010004570020445700200001010422
:102A7000BC560020C05600206C1102008459002072
:102A80002C07002083DE1B430012020028030104F0
:102A9000D45A002050120200E41202009059002083
:102AA0002C1302001C50002020500020681302004C
:102AB0001410002010100020DC1302004C1402003F
:102AC000EC0D0200A4560020F8080200AD560020CC
:102AD000380602003406020020090200B056002029
:102AE00000010004185600201C5600206C0E020045
:102AF0009002020040420F00A40F0200D80602001C
:102B0000D0060200104A30B4104B114C114D12681F
:102B1000A3FB02326B6825682360A3EB050C00233E
:102B2000920CBCFBF2FC0C4A52F8044F644502D8EC
:102B30000133072BF8D1094C54F82320013244F813
:102B4000232030BC07F044BC2C07002083DE1B434D
:102B5000D05A0020001000E090370200D45A002024
:102B60008C4600B5864613467146624602485DF8BB
:102B700004EB02F099BE00BF000010408C4600B587
:102B8000864613467146624602485DF804EB02F041
:102B9000ABBE00BF0000104010B54FF480534FF0A3
:102BA0008044C4F8203202F031F802F02DF801F030
:102BB000B5FF41F2D40002F095F80423C4F828329E
:102BC000C4F80831D4F8083123F00403C4F80831FC
:102BD00002F0C6FA01460A4802F038FE002309490D
:102BE00002220968886819461AF0A8F94022064BA3
:102BF00083F88B2383F88C2383F88D2310BD00BFCB
:102C0000000010406407002000E100E070B59AB0B9
:102C1000044609AE002836D0384D394A394B6A602F
:102C2000394A00212A60184620221AF0C7FC0346C0
:102C3000364A8560C260364A051F40F8042C354A82
:102C4000426020681861A3882B836079A37862783A
:102C50002178029020790190E07800902E481AF0B7
:102C60000BFC00222D492E4B0992CDE90131324651
:102C70003346314600952B480DF0AAFE29480DF049
:102C800057FF1AB070BD0146442230461AF096FC38
:102C9000304603F0C3FD18B9304603F0C5FD08B156
:102CA000214CB9E7304605A903F0C4FD0028F7D14F
:102CB0009DF819009DF815109DF818309DF8142006
:102CC00041409DF81C509DF81D005A409DF8204041
:102CD00041406A40144862409DF81630C2709DF829
:102CE0001A2053409DF81E2053409DF82220534047
:102CF00043719DF821304B400371D1E7BC5A00204D
:102D00007D2B00009C5A0020612B000080F0FA020D
:102D1000C45A0020483B020020160200052B000088
:102D2000895E0100F45A00202407002010B5044CED
:102D300020460DF007FF2046BDE810400CF0E0B93A
:102D4000F45A002001480AF0E7BF00BFF45A0020FF
:102D500070B586B00C4601A915461E460DF03AF92D
:102D600010B9002006B070BD204602A90DF032F95E
:102D70000028F6D0284603A90DF02CF90028F0D041
:102D80000D4803AB02AA01A90DF094FD0A480DF00D
:102D9000D9FE0EB133780BB90120E3E7304604A920
:102DA0000DF018F90028F7D0049B002005A9059321
:102DB0000AF018FEF0E700BFF45A00200649074A5F
:102DC000D1F8FC3043F08073C1F8FC30136843F055
:102DD00001031360704700BF00ED00E0001000E049
:102DE000014B5868C0097047001000E038B54FF437
:102DF000A063374AC2F82431D2F8003123F001032E
:102E0000C2F80031D2F8003143F4616343F00C039F
:102E1000C2F800311369D807FCD42E4AD2F8003822
:102E2000D9070BD42C4B9360D2F8003843F0010340
:102E3000C2F80038D2F80038002BFBDA4FF080419E
:102E40001420D1F82832234A43F44033C1F8283201
:102E5000D2F8083123F03403C2F80831C2F808016F
:102E6000D2F8003143F00103C2F80031D2F800314A
:102E7000DB01FBD54FF080434FF400344FF4803535
:102E8000D3F8182A154942F02202C3F8182A002064
:102E9000C3F82852C3F8284202F06EF902F0C8F9CC
:102EA0001F2200244FF0400C0D4B0E49C3F8302177
:102EB0001A6B0D4842F440421A631C601A6922F0F2
:102EC0000F1222F470621143196180F843C338BDB8
:102ED000005004400040044001005A5A00366E0180
:102EE00000A010400407070000E100E008B5124808
:102EF00003F042FA10F4602F14D10F4AD36A13F092
:102F0000706F15D09369190507D440F612010B4074
:102F1000022B02D0D069C0B208BD074BD86900F0BF
:102F20007F0008BD4FF46021034803F041FAE4E755
:102F30004FF0FF3008BD00BF00400B402DE9F843C3
:102F4000171E14DD0E464D1EDFF8449005EB0708F2
:102F50000E4C01E0013C0DD00D4803F00DFA0302C8
:102F6000F8D515F8013F4545C9F81C30F0D1384671
:102F7000BDE8F883074AC6F1010311682B44FB1A28
:102F80000B4438461360BDE8F88300BF400D0300D2
:102F900000400B40945A00200121084616F016BD4F
:102FA0000D46044608B519F025FB2A46214602487D
:102FB00003F0A4FEFEE700BF5016020008B5024869
:102FC00003F09CFEFEE700BF6816020008B5024849
:102FD00003F094FEFEE700BF881602002DE9F043DF
:102FE0009DF82080BDF81C701468B3F800C0B8F1DB
:102FF000000F12D0BC4510D20646002594F801E01F
:10300000BEF1050F0ED094F800E0F4441FFA8CFCDA
:103010007444A84501D96745F0D81460A3F800C0EE
:10302000BDE8F083A078C009B1B9F8B92068C6F846
:103030000A00B4F804E0A079A6F80EE03074207815
:1030400084441FFA8CFC67450444E6D9607825283F
:1030500020D00135EDB2DCE790B92068B061B4F85A
:1030600004E0A079A6F81CE0B077E8E72068C6F88D
:103070000300B4F804E0A079A6F807E07072DEE778
:103080002068C6F81100B4F804E0A079A6F815E0AD
:10309000F075D4E7207851B9032808D994F803E0F3
:1030A00096F82590F1453CBF86F825E020788444C9
:1030B00004441FFA8CFCCCE701207047002290F8F2
:1030C000233080F86A2113B990F82430F3B190F8D6
:1030D00025304FF0010C102B28BF102363454FF013
:1030E00000024FF4807138BF634610B4084C80F87A
:1030F0007021C0F86A41A0F86EC15DF8044BA0F8D9
:103100007211C0F8742180F871317047704700BFA8
:10311000010D260208B54FF4B042002102481AF012
:103120004DFA012008BD00BF505B00202DE9F84397
:10313000134C0546DFF84C9004F5B04603E004F567
:103140003064B44219D02378AB42F8D194F8FC7AB9
:103150004FF430620021204694F801801AF02EFAD4
:10316000002FECD0B9F1000FE9D04146284604F514
:103170003064FDF7DFFDB442E5D1BDE8F88300BF60
:10318000505B0020350D000070B590F821300446EA
:10319000012B0CBF00F11103C31C1A7882B01AB1C5
:1031A0009B88C3F30A0555B904F2D46630464FF440
:1031B000007516F07BFDA8420DD202B070BD04F27E
:1031C000D46613F4C06F304618BF4FF4007516F084
:1031D0006DFDA842F1D3E17F207817F033F9002884
:1031E000EBD0304616F062FD85420BD80026E17F19
:1031F00020782B46CDE9006604F2D32217F068F957
:1032000002B070BDE17F207802B0BDE8704017F0D9
:103210003FB900BF70B590F821300446012B0CBFB8
:1032200000F11106C61C337882B00CBF00F11805FE
:1032300000F10A05002B34D12B7843B129462078C0
:1032400017F080F9002834D0AB7884F820300025BE
:1032500001234FF4007204F2FC6104F2D460009583
:1032600016F0E0FC01234FF40072009504F6FC0117
:1032700004F5DD6016F0D6FCE37F13B12046FFF7BE
:1032800083FF01220F4B84F8FC2A1BB16178207860
:10329000FDF718FC6178207802B0BDE8704017F0A7
:1032A00005BA3146007817F04DF910B1B378E377DD
:1032B000C2E74FF0E023D3F8F03DDB0700D500BEB6
:1032C00002B070BDC50A000090F8203003B9704705
:1032D00070B500F5DD65044682B0284616F0D6FCD0
:1032E00028B194F82010207817F0ACF808B902B093
:1032F00070BD04F2D3464FF400723146284616F0F2
:10330000E7FC034690B1002594F82010207832465F
:10331000CDE9005517F0DCF80028E8D14FF0E023A4
:10332000D3F8F03DDB07E2D500BEE0E794F82010CB
:10333000207802B0BDE8704017F0AAB82DE9F04F30
:10334000DFF860A7A1B091469DF8A8600AF5B044E7
:10335000009304E00AF5306A544500F094819AF82D
:1033600000308342F6D19AF801308B4203D09AF8AC
:1033700002308B42EED19AF82130012B00F03A83D3
:10338000009B9B46002B00F094804FF0000B5546AD
:103390001BE0402F00F085807AD8202F00F0228299
:1033A00000F27781009B5B4540F38280102F00F094
:1033B000978000238DF8403001230293029B5B44E9
:1033C0001FFA83FB009B9B4572D259F82B2006B154
:1033D00012BA02F0F007902F0C92D4B261D0D8D973
:1033E000C02F04D06CD8A02F5BD0B02F6ED103209B
:1033F0000290009BA3EB0B03834259DB58440BF173
:10340000010309EB800009EB83030DF1300C53F845
:10341000041B06B109BA83424CF8041FF7D10023FC
:10342000302F04F00F048DF8403078D0402FC5D1F4
:103430009DF834009DF835A08301C2F3033C43EAB4
:103440009A08ACF102074346C2F303214FEA500E3B
:103450000C2FB3D80FF2040A5AF827F037380000BF
:1034600037380000BD330000BD330000BD3300001D
:10347000BD330000E9390000D538000005390000EF
:10348000113900001D390000A5390000C3390000C2
:10349000602F00F0F2801ED9702F00F0EE80802F98
:1034A00014D102200290009BA3EB0B038342A5DA08
:1034B000AA465046FFF708FF584621B0BDE8F08FF6
:1034C000E02F0AD004F0D003D02B06D00BF1010B73
:1034D0001FFA8BFB76E7502FF8D10420029088E783
:1034E0004FF001038DF84030C2F30723F13B04F0A5
:1034F0000F04C2F307210E2B00F2FC80DFE813F06B
:10350000F200F600F200CF00CF00CF00FA00CF00AB
:10351000CF00CF00CF00CF00CF00CF00CF00C2F34D
:10352000072202F0F00110294FEA121702F00F02F1
:1035300000F07F81302900F07481002940F0CB80B9
:103540004FF0010EF02300208DF81C3004EBC40373
:1035500004EB430303F148012944A1F803004FF0B1
:1035600001012B4483F83A104FEAC40C002A00F002
:103570007482012300210F2B0DD80DF18008881CC7
:1035800058FA80F010F8508C03F180006844013341
:1035900000F8648CDBB20131C8B29042EBD309224F
:1035A000FA40D20702D50F2B40F213810CEB04072F
:1035B00004EB47072F4407AA97F84C10134412F85E
:1035C000018B7818934201F1010180F83B8001F0F2
:1035D0000F01F4D187F84C100CEB040304EB430308
:1035E0002B4493F84B308B4280F0EB80CB1AD9B24E
:1035F00000230CEB0407200104EB470703949846D3
:10360000044640F004022F4405920DF1400ACDF823
:1036100010C020AA02EB8302022942F83C8C77D921
:103620000133DBB20AEB830097F84B2000F1030C67
:103630000191B91891F83B10013200F8011F84453F
:1036400002F00F02F5D1019987F84B200339C9B276
:10365000BEF1000F00F09880002940F0A88044F0EF
:1036600007020AF823209DF840300133DBB28DF8C1
:103670004030002B3FF4A6AE22E0009B5B453FF7B5
:1036800098AEAA4615E74FF0000B584621B0BDE8AA
:10369000F08F302F7FF41AAF0220029003E724014D
:1036A00044F005038DF8443001238DF84510C2F332
:1036B0000741C2F307628DF846108DF84720029348
:1036C0009A00029B11A95B4405F5DD601FFA83FB9C
:1036D00016F050FB76E6002A00F0D1819E464FEAB4
:1036E000C40C47E7240144F00203DBE7240144F063
:1036F0000303D7E700238DF84030C2F30743C2F33A
:1037000007628DF845108DF846308DF8472059E650
:103710002046DDE9034CBEF1000FAAD00133DBB235
:103720000DF140080CEB040708EB830C04EB470495
:1037300067462C4494F84B2004EB020E9EF83BE0C5
:1037400001320129BA4602F00F0207F801EF01D059
:103750000121F1E7CCF1010CD4445FFA8CFCBCF1FF
:10376000010F84F84B200CBF40F0050240F0060228
:1037700008F823209DF840300133DBB28DF840304B
:10378000002B3FF41FAE9BE7059A0AF823209DF813
:1037900040300133DBB28DF8403000293FF469AF8F
:1037A000032B7FF636AF002B3FF40CAE88E7059A6B
:1037B0000AF823209DF840300133DBB28DF8403009
:1037C000EEE7C3F11003194411F0FF017FF410AFCD
:1037D000F8E5591C1A46CBB2F72180326A4402F848
:1037E000641CE3E6009B5B457FF762AE4FF001038C
:1037F0008DF840300023C2F3033141EA041161F334
:103800000703C2F3072161F30F23C2F3074161F3FA
:103810001743120E62F31F631193012304220293D4
:103820004FE7002A00F036814FF0010E4FEAC40C3A
:10383000A0E69E4686E620010024DB098DF84F3085
:10384000234640F00B0041F0B001BCF1020F60F3E1
:10385000070460F3070361F30F2461F30F2314BF20
:10386000622764278DF84D108DF851104FF0260116
:1038700014BF4FF0630C4FF0650C67F317438DF8DE
:103880005210C2F30641C2F3066262F31F634FF0A7
:10389000060E129304236CF3174408F07F0861F3BB
:1038A0001F648DF853808DF84C008DF850008DF812
:1038B0004EE0119405F5DD608DF8403016F0F6F914
:1038C0009DF84030B0EB830FFFF4F2AD002B3FF4D6
:1038D00079ADF5E6BEF1010F38BF4FF0010E2001C2
:1038E00040F0090061F06F01002360F30703C2F3A9
:1038F000064261F30F2362F317436EF31F631193C4
:103900000123D7E7200140F00A0061F05F01EBE7F7
:10391000200140F00B0061F04F01E5E7D3014FEAD1
:10392000041440F19E8000238DF8463020238DF84A
:103930004A309DF836300B2203F07F038DF8473074
:103940009DF837300A2703F07F038DF84B3044F0A1
:103950000B038DF844308DF8483041F0B0038DF8FA
:1039600045308DF849304FF0090C03230DF14C0E12
:1039700044F00C048EF800400CF1800461F03F012B
:103980000DEB040C0CF83C1C07F180010DEB01075A
:103990000021803200F07F006A4407F83C0C02F8F6
:1039A0003C1C87E7230143F00D038DF844300023CE
:1039B00061F02F018DF846E08DF845108DF8473005
:1039C0009EE70022200140F00E0061F01F0160F32D
:1039D000070208F07F0861F30F22DB0968F3174242
:1039E00063F31F6211928BE7200140F0080061F041
:1039F0007F0179E70AF5DD6318461F4616F056F990
:103A0000009AC0F38F039A4228BF1A4693467EB3AA
:103A1000002A3FF44EAD102A9046144628BF4FF0BE
:103A20001008002504E0102CA04628BF4FF0100815
:103A30004FEA880609EB8501324610A8A4EB08047A
:103A400019F06FFE45443846B2B210A9A4B216F080
:103A500091F9ADB2002CE6D12BE507BB0122022380
:103A6000BAE60123032202279C460DF1440E7FE7AC
:103A700092004946384692B216F07CF919E504EBFB
:103A8000C40304EB43032B44964693F84C104FEACF
:103A9000C40CA1E501234FEAC40C9E469CE6012319
:103AA00084E500BF505B0020F8B5224C054604F5C4
:103AB000B04E03E004F53064744513D094F800C0B0
:103AC000AC45F7D1E07F884203D094F820008842CB
:103AD000F0D1E07F884207D094F820308B4224D088
:103AE0000120F8BD0020F8BDC2B9BBB1124A9EB298
:103AF00004F2D3272AB133463A4628466178FCF7C8
:103B000049FF3246394604F2D46016F033F90B4BC4
:103B10001BB128466178FCF79FFFE17F0029DFD0C9
:103B20002046FFF731FB0120DBE72046FFF7CCFB07
:103B3000D6E700BF505B002095090000590A00003D
:103B40002DE9F04F984600268B7885B04370B8F881
:103B50000030BDF838400F461168A34283469146B5
:103B6000B2463546ADF80A30039127D2B446304606
:103B70000FE0032A19D0012A04BFB1F80320ABF8E3
:103B800026200A78012013449BB2A342114412D28A
:103B90009C464A78242A41D18A78022AE9D19BF8A6
:103BA000232001328BF82320EBE79BF824200132FD
:103BB0008BF82420E5E7ADF80A30039100943B79B7
:103BC0000021019358460DF10A0303AAFFF706FAF4
:103BD000BDF80AC064457CD90398034608E01A780A
:103BE000012194441FFA8CFC644513441CD965469A
:103BF0005A78242AF3D0002968D0ADF80A500393EC
:103C0000644502D95A78042A11D0BDF80AC0C9F80F
:103C10000030A8F800C005B0BDE8F08F0028CDD076
:103C2000ADF80AC00391C9E7ADF80AC0EDE7BA786C
:103C300099789142E9D1DA78002AE6D001228BF80E
:103C40002220187800EB0C0292B21844944288BFEC
:103C50000025ADF80A2003900FD815E081780129DE
:103C600003D1B0F80310ABF82810017801250A44FD
:103C700092B2944208442ED9924641782429EDD03C
:103C800015B1ADF80AA003901B79584601930121A4
:103C90000DF10A0303AA0094FFF7A0F9BDF80A008A
:103CA000844215D9039B84461D46002108E01A78FA
:103CB000012194441FFA8CFC64451344A7D966463D
:103CC0005A78242AF3D051B1B446A0E7034697E7C7
:103CD0008446039B9BE7ADF80A200390D4E7844613
:103CE0002B4694E72DE9F0431F4653790020012B22
:103CF00085B006D193791646012B884604D0032B54
:103D00002FD005B0BDE8F08314781519A742ADF89F
:103D10000A40039510D9024607E02B7801221C4483
:103D2000A4B2A7421D447AD920466B78242BF4D044
:103D300012B1ADF80A000395DFF8089100234A4656
:103D4000117802F53062002937D00133082BF7D102
:103D50004FF0E023D3F8F03DDB0700D500BE002094
:103D6000CFE7384C9578A146234604E00130082877
:103D700003F530634AD01A784245F7D15A78FF2AC2
:103D8000F4D199784A1CFF29D2B2EFD09542EDD1F7
:103D90004FF4306303FB009432782046ADF80A20DC
:103DA000B418314600970DF10A0303AA0394FFF7F4
:103DB000C7FE012005B0BDE8F0834FF4306202FB7E
:103DC00003F509EB0503184619F0F8FBFF2209F883
:103DD000058082704270B278A7428270E9D9039957
:103DE0004A78042AE5D14A79012AE2D18A79032A5C
:103DF000DFD10A780DF10A0314440A4403920097B4
:103E000003AAADF80A40FFF79BFED2E70023217812
:103E100004F5306439B10133082BF8D198E7ADF8D7
:103E20000A40039588E74FF4306202FB03F509EB83
:103E30000504204619F0C2FBFF2309F805806370D2
:103E4000A370A9E7505B00202DE9F047B04C88B083
:103E500017461D469DF8409004F5B04603E004F572
:103E60003064A6426CD023788342F8D163788B42C9
:103E700002D0A3788B42F2D194F82130012B3ED0AE
:103E8000A846002D53D0AA4604F2D466002504E0CB
:103E9000A8EB050ABAF1000F49DD02226946304657
:103EA00015F046FF022842D19DF8001001F00F01E5
:103EB0000439032902D8BAF1010F38D00422304660
:103EC0000DEB020115F004FF042830D1019B002BFB
:103ED000DED003F00F020F2A9DF804100293C3F303
:103EE000031031D0023A09090C2AD1D8DFE802F0D8
:103EF000757579AC9A8B4242424242424200B5B15A
:103F00004FF00008043F04F2D46606E0039A1FFA5B
:103F100083F8454547F8042F09D00422304603A909
:103F200015F0D6FE042808F10103EFD04546E37FE3
:103F300013B12046FFF728F9284608B0BDE8F087FE
:103F4000002008B0BDE8F0871904C3F307229FD50D
:103F5000F62A40F2978002F10803DBB2072B97D8CC
:103F6000002340F010008DF811208DF81000ADF8FE
:103F7000123013E00022214440F0200081F82A2072
:103F8000C3F3072160F3070261F30F22C3F3074174
:103F900061F317421B0E63F31F6204924FF0010E90
:103FA0000EEB050C2A461FFA8CFC03A800E01A460B
:103FB000531C50F8041F9BB2B9F1000F00D009BA8E
:103FC000634547F82210F2D10EF1FF3E01355FFA4A
:103FD0008EFE1EFA85F5ADB25AE7002240F01000C1
:103FE000CEE7214491F82A20002A74D1C3F3072395
:103FF000F02B7FF44DAF12238DF81130012381F89F
:104000002A3002236BE0214491F82A2040F030004E
:104010008DF81000D2B31B0EF72B7FF439AF32228C
:1040200001233EE0214491F82A2040F030008DF831
:104030001000002A6ED0C3F30742F72A7FF428AF9E
:1040400031224FF0020E67E0C3F307221B047FF515
:104050001FAFF72A84D1214491F82A3040F0300074
:104060008DF81000002B3FF413AF002381F82A30A5
:10407000ADF815308DF817303023CDF811304FF0F2
:10408000020E8DE7F32A3FF66BAF01E7C3F3072279
:10409000F02A7FF4FDAE1B0EF72B7FF4F9AE012260
:1040A00002238DF8112000220DF1170C81F82A202F
:1040B0000DF11102022B03F1200169448CBF002194
:1040C00011F8181C03F1010002F8011F98BFC3B2D8
:1040D0009445EFD1D3E723238DF81130012340F02D
:1040E00030008DF810000DF111020DF1170C032BAB
:1040F00003F1200169448CBF002111F8181C03F161
:10410000010002F8011F98BFC3B29445EFD1B6E792
:10411000505B00204FF0010E8DF81120002201208D
:1041200081F82A20C3F307230DF111020DF1170CBA
:1041300086458CBF1946002102F8011F88BF022066
:104140009445F5D19BE700BF2DE9F0418268654BAE
:10415000B2F804E0017888B003F5B04C5FFA8EFE47
:1041600003E003F5306363452AD01A781C468A427F
:10417000F7D15A78724502D09A787245F1D14269E6
:10418000012A6BD0022A1ED0D2B993F82240002C0B
:1041900000F09E8001245878029201928DF8081058
:1041A000039251490592514AADF8040083F8214029
:1041B00002A806910092CDF810D0079416F076FE72
:1041C00008B0BDE8F081C17800297CD1828883F8ED
:1041D0006A11042A3CD9B3F8D65193F8D301954219
:1041E00028BF154600F10D02AA4231D803F2D31CB4
:1041F00003F168061CF800E00131BEF10C0FC9B2F2
:104200000CEB000224D992F801E0BEF1260F1FD179
:1042100092F802E0BEF1020F1AD184F86A11D2F8C6
:1042200008E0D2F800805768C3F86B81C3F86F715B
:10423000C3F873E192F80CE00D3383F86AE1127869
:10424000024490B200F10D02AA4201D89E42D1D19F
:10425000204608B0BDE8F041FEF7DCBFC2783AB1B5
:104260001846FEF72BFF08B0BDE8F041FEF7D2BFBD
:10427000B3F8D6410292052C38BF05248DF80810FA
:104280000221587803F2D3130593174BB4F5807FBE
:104290000693234628BF4FF480738DF800200791C2
:1042A00000990392124A01F06001ADF804000A433C
:1042B00002A80092ADF80630CDF810D016F0F6FD49
:1042C00008B0BDE8F0811846FEF7F8FE2046C0E7CA
:1042D000184683F82140FEF7F1FE08B0BDE8F04132
:1042E000FEF798BF505B002049410000010B010020
:1042F0008106012600B5184B844689B003F5B04EFF
:1043000003E003F5306373451FD01A786245F8D196
:104310005A788A4202D09A788A42F2D19A788A42AE
:1043200002D15B788B4210D1002302A8ADF80410B3
:104330008DF808C0CDF810D08DF80B300793FFF73B
:1043400003FF012009B05DF804FB604616F0AEF9EA
:10435000012009B05DF804FB505B00200A4B03F517
:10436000B04C03E003F5306363450BD01A7882420A
:10437000F8D15A788A4202D09A788A42F2D193F8D8
:104380002100704700207047505B00200D4B03F563
:10439000B04C03E003F5306363450ED01A788242D7
:1043A000F8D15A788A4202D09A788A42F2D193F8A8
:1043B0002120012A03D0D88C704700207047188D27
:1043C000704700BF505B0020144B00B503F5B04EA2
:1043D00003E003F5306373451DD093F800C08445B6
:1043E000F7D193F801C08C4503D093F802C08C45F7
:1043F000EFD182B193F8211001290CBF113303339F
:10440000187830B101201968116099889B799180E2
:1044100093715DF804FB00205DF804FB505B002005
:10442000144B00B503F5B04E03E003F5306373455C
:104430001DD093F800C08445F7D193F801C08C4596
:1044400003D093F802C08C45EFD182B193F82110CC
:1044500001290CBF18330A33187830B101201968CC
:10446000116099889B79918093715DF804FB00201D
:104470005DF804FB505B0020114B00B503F5B04E16
:1044800003E003F53063734513D093F800C084450F
:10449000F7D193F801C08C4503D093F802C08C4546
:1044A000EFD112B103F26B11116093F86A015DF85C
:1044B00004FB0AB10023136000205DF804FB00BF79
:1044C000505B002008B50D4B03F5B04C03E003F53D
:1044D000306363450FD01A788242F8D15A788A4205
:1044E00002D09A788A42F2D103F2D46015F0CEFB62
:1044F000C0F38F0008BD002008BD00BF505B002046
:1045000008B50D4B03F5B04C03E003F5306363458C
:104510000FD01A788242F8D15A788A4202D09A781B
:104520008A42F2D103F5DD6015F0C0FBC0F38F00C5
:1045300008BD002008BD00BF505B002010B501245D
:1045400082B00094FFF780FC02B010BD10B50124CA
:1045500082B00094FEF7F2FE02B010BD03460122C5
:1045600001481A70704700BFB037020008B5FBF76A
:10457000DBFE08BD08B5FBF7D7FE08BD08B5FBF7A5
:10458000D3FE08BD08B5FBF7CFFE08BD08B5FBF7A5
:10459000CBFE08BD08B5FBF7C7FE08BD08B5FBF7A5
:1045A000C3FE08BD08B5FBF7BFFE08BD08B5FBF7A5
:1045B000BBFE08BD08B5FBF7B7FE08BD08B5FBF7A5
:1045C000B3FE08BD08B5FBF7AFFE08BD08B5FBF7A5
:1045D000ABFE08BD08B5FBF7A7FE08BD08B5FBF7A5
:1045E000A3FE08BD08B5FBF79FFE08BD08B5FBF7A5
:1045F0009BFE08BD08B5FBF797FE08BD08B5FBF7A5
:1046000093FE08BD08B5FBF78FFE08BD08B5FBF7A4
:104610008BFE08BD08B5FBF787FE08BD08B5FBF7A4
:1046200083FE08BD08B5FBF77FFE08BD08B5FBF7A4
:104630007BFE08BD08B5FBF777FE08BD08B5FBF7A4
:1046400073FE08BD08B5FBF76FFE08BD08B5FBF7A4
:104650006BFE08BD08B5FBF767FE08BD08B5FBF7A4
:1046600063FE08BD08B5FBF75FFE08BD08B5FBF7A4
:104670005BFE08BD08B5FBF757FE08BD08B5FBF7A4
:1046800053FE08BD08B501F0F9FF08BD08B501F0FB
:10469000F9FF08BD08B501F0F9FF08BD08B501F044
:1046A000F9FF08BD08B501F0F9FF08BD08B501F034
:1046B000F9FF08BD08B501F0F9FF08BD08B501F024
:1046C000F9FF08BD08B501F0F9FF08BD08B501F014
:1046D000F9FF08BD08B5FBF727FE08BD08B5FBF7D5
:1046E00023FE08BD08B5FBF71FFE08BD08B5FBF7A4
:1046F0001BFE08BD08B5FBF717FE08BD08B5FBF7A4
:1047000013FE08BD08B5FBF70FFE08BD08B5FBF7A3
:104710000BFE08BD08B5FBF707FE08BD08B5FBF7A3
:1047200003FE08BD08B5FBF7FFFD08BD08B5FBF7A4
:10473000FBFD08BD08B5FBF7F7FD08BD08B5FBF7A5
:10474000F3FD08BD08B5FBF7EFFD08BD08B5FBF7A5
:10475000EBFD08BD08B5FBF7E7FD08BD08B5FBF7A5
:10476000E3FD08BD08B5FBF7DFFD08BD08B5FBF7A5
:10477000DBFD08BD08B5FBF7D7FD08BD08B5FBF7A5
:10478000D3FD08BD08B5FBF7CFFD08BD08B5FBF7A5
:10479000CBFD08BD08B5FBF7C7FD08BD08B5FBF7A5
:1047A000C3FD08BD08B5FBF7BFFD08BD08B5FBF7A5
:1047B000BBFD08BD08B5FBF7B7FD08BD08B5FBF7A5
:1047C000B3FD08BD08B5FBF7AFFD08BD08B5FBF7A5
:1047D000ABFD08BD08B5FBF7A7FD08BD08B5FBF7A5
:1047E000A3FD08BD08B5FBF79FFD08BD08B5FBF7A5
:1047F0009BFD08BD08B5FBF797FD08BD08B5FBF7A5
:1048000093FD08BD08B5FBF78FFD08BD08B5FBF7A4
:104810008BFD08BD08B5FBF787FD08BD08B5FBF7A4
:1048200083FD08BD08B5FBF77FFD08BD08B5FBF7A4
:104830007BFD08BD08B5FBF777FD08BD08B5FBF7A4
:1048400073FD08BD08B5FBF76FFD08BD08B5FBF7A4
:104850006BFD08BD08B5FBF767FD08BD08B5FBF7A4
:1048600063FD08BD08B5FBF75FFD08BD08B5FBF7A4
:104870005BFD08BD08B5FBF757FD08BD08B5FBF7A4
:1048800053FD08BD08B5FBF74FFD08BD08B5FBF7A4
:104890004BFD08BD08B5FBF747FD08BD08B5FBF7A4
:1048A00043FD08BD08B5FBF73FFD08BD08B5FBF7A4
:1048B0003BFD08BD08B5FBF737FD08BD08B5FBF7A4
:1048C00033FD08BD08B5FBF72FFD08BD08B5FBF7A4
:1048D0002BFD08BD08B5FBF727FD08BD08B5FBF7A4
:1048E00023FD08BD08B5FBF71FFD08BD08B5FBF7A4
:1048F0001BFD08BD08B5FBF717FD08BD08B5FBF7A4
:1049000013FD08BD08B5FBF70FFD08BD08B5FBF7A3
:104910000BFD08BD08B5FBF707FD08BD08B5FBF7A3
:1049200003FD08BD08B5FBF7FFFC08BD08B5FBF7A4
:10493000FBFC08BD08B5FBF7F7FC08BD08B5FBF7A5
:10494000F3FC08BD08B5FBF7EFFC08BD08B5FBF7A5
:10495000EBFC08BD08B5FBF7E7FC08BD08B5FBF7A5
:10496000E3FC08BD08B5FBF7DFFC08BD08B5FBF7A5
:10497000DBFC08BD08B5FBF7D7FC08BD08B5FBF7A5
:10498000D3FC08BD08B5FBF7CFFC08BD08B5FBF7A5
:10499000CBFC08BD08B5FBF7C7FC08BD08B5FBF7A5
:1049A000C3FC08BD08B5FBF7BFFC08BD08B5FBF7A5
:1049B000BBFC08BD08B5FBF7B7FC08BD08B501F0A6
:1049C000B9FB08BD08B5FBF7AFFC08BD08B5FBF7A0
:1049D000ABFC08BD08B5FBF7A7FC08BD08B5FBF7A5
:1049E000A3FC08BD08B5FBF79FFC08BD08B5FBF7A5
:1049F0009BFC08BD08B5FBF797FC08BD08B5FBF7A5
:104A000093FC08BD08B5FBF78FFC08BD08B5FBF7A4
:104A10008BFC08BD08B5FBF787FC08BD08B5FBF7A4
:104A200083FC08BD08B5FBF77FFC08BD08B5FBF7A4
:104A30007BFC08BD08B5FBF777FC08BD08B5FBF7A4
:104A400073FC08BD704700BF4FF08042002038B5AE
:104A50002D4B2E4CD3F888102D4D41F47001C3F826
:104A60008810D3F8881041F00F01C3F88810D3F8EC
:104A70008C1041F4406141F00301C3F88C10C2F87E
:104A8000440ED2F8001421F40031C2F800149C60E6
:104A90003C24D2F824181F4B21F00101C2F824183D
:104AA000996A02F58A2221F4402141F40021996299
:104AB000D96A21F4402141F40021D962D2F80011D1
:104AC00041F48051C2F80011D2F8441121F4803130
:104AD000C2F84411C2F84441D2F8441141F4803183
:104AE000C2F844119A6A0C4922F0030242F0020211
:104AF0009A62DA6A22F0030242F00202DA62A860E5
:104B00008860FFF79FFF38BD00ED00E00000000067
:104B100000400240006002400050024010B543F2E5
:104B2000180000F0DFF8064801F0D0FDBDE81040A5
:104B300001224FF4E1310420024B02F0B5B800BF6E
:104B40000F000100001BB7004FF080624FF0804360
:104B500030B5274D8DB0274CC3F8282243F2FE30E4
:104B600000F0C0F8AB8901A92046ADF8043001F08F
:104B70002FFE2B8A02A92046ADF8083001F0CAFDAD
:104B80001D4A03A99368204623F00F0343F0030353
:104B90009360AB8A0024ADF80C3001F0A9FD1748F2
:104BA00000F060F810A1D1E9000101223223144D78
:104BB000CDE9040104A8CDE90623CDE908440A950E
:104BC00000F01EFA204600F081F846F2FE3000F0B8
:104BD00089F80121202000F0B5F80A4B1D600DB0C6
:104BE00030BD00BFAFF30080B03500020800000008
:104BF000CC3702000050044000300440006CDC025E
:104C000080D1F0082C070020FFF79EBF30B44FF092
:104C100080444FF480454FF4C8524FF490500F4BEE
:104C2000C4F820525C6C0E492140596430BCA3F892
:104C3000B420A3F8B820A3F8BC20A3F8D020A3F890
:104C4000D420A3F89020A3F89420A3F89820A3F8E8
:104C50009C20A3F8A000A3F8A400704700701140A6
:104C60000F1FCFFF174B984229D003F1B76303F50D
:104C70005843984221D10122134BC3F80823D3F89B
:104C8000002322F40002C3F80023D3F8002342F0EB
:104C90001002C3F80023D3F8002342F02002C3F827
:104CA0000023D3F8002342F00102C3F80023D3F815
:104CB0000023D201FBD5002070470120704700225D
:104CC000DAE700BF006CDC0200400440044AD2F87E
:104CD000003523F440330343C2F80035704700BF6A
:104CE0000040044030F0004318D083B210B42BBB16
:104CF0000121000C83B240F2FE3C1A0BC3F30B03FC
:104D0000013A6345D2B20DD09B0003F18043C3F852
:104D10006022013903D15DF8044B70477047000CE5
:104D2000E8D1F8E7064C636962F31B63636112061E
:104D30002369534013F0706FFAD1EAE70221DAE7F2
:104D4000004004404FF0C043800000F18040C0F8B4
:104D5000003321B94FF08043C0F800337047013968
:104D6000C0F80013704700BF144AD2F80435C3F3EB
:104D70004163012B1AD0022B08D0ABB9D2F8000145
:104D800010F0807011D00E4B18687047D2F80004F4
:104D900010F0807009D00B4BD3F8200110F0010007
:104DA00003D0094B1868704700207047D2F80033D1
:104DB000064813F0100F08BF002070470040044061
:104DC000340700200090054030070020006CDC0212
:104DD00008B52DED048BFFF7C7FF344A0146D2F822
:104DE000003513F0807002D1BDEC048B08BDD2F801
:104DF00004351B0307D4D2F80C35DBB2012B38BFC6
:104E00000123B1FBF3F1294BD3F80425D00222D5BD
:104E1000B7EE009A07EE901A244AF8EE678AD2F8A5
:104E200028351B0526D4D2F810359BB207EE903AF0
:104E3000B8EEE78A18EE100A17F030FE084318BFE4
:104E400068EE888AC8EE897ABDEC048BFCEEE77ABE
:104E500017EE900A08BDD3F80425D3F81435D20311
:104E600003F01F0358BF5B00EBB107EE903AB8EEBA
:104E7000E79ACFE7D2F82835D2F82415DB01D2F82B
:104E80002425DBB222F07E4243EA516308EE103A59
:104E900007EE902AB8EEC88AF8EEE77A9FED047A1A
:104EA000A7EE878AC6E7B0EE009AB3E70040044059
:104EB00000000033144AD2F80436C3F34163012BD7
:104EC0001AD0022B08D0ABB9D2F8000110F08070D4
:104ED00011D00E4B18687047D2F8000410F08070A3
:104EE00009D00B4BD3F8200110F0010003D0094B7F
:104EF0001868704700207047D2F80033064813F056
:104F0000100F08BF00207047004004403407002005
:104F10000090054030070020006CDC0208B52DED44
:104F2000048BFFF7C7FF344A0146D2F8003613F06E
:104F3000807002D1BDEC048B08BDD2F804361B038F
:104F400007D4D2F80C36DBB2012B38BF0123B1FBFA
:104F5000F3F1294BD3F80426D00222D5B7EE009AFC
:104F600007EE901A244AF8EE678AD2F828361B0515
:104F700026D4D2F810369BB207EE903AB8EEE78A04
:104F800018EE100A17F08AFD084318BF68EE888AE9
:104F9000C8EE897ABDEC048BFCEEE77A17EE900A36
:104FA00008BDD3F80426D3F81436D20303F01F0348
:104FB00058BF5B00EBB107EE903AB8EEE79ACFE747
:104FC000D2F82836D2F82416DB01D2F82426DBB238
:104FD00022F07E4243EA516308EE103A07EE902A2F
:104FE000B8EEC88AF8EEE77A9FED047AA7EE878AD2
:104FF000C6E7B0EE009AB3E700400440000000337B
:1050000010B504462B492C4AD1F8003843F001036F
:10501000C1F80038D1F8003523F00303C1F800359A
:105020000368C1F80435436843F00040C1F80C350B
:10503000C1F80C05A36843F00040C1F81435C1F86D
:105040001405E36843F00040C1F81035C1F81005BD
:105050002369C1F824356369C1F828358A60FFF7F0
:1050600083FED1F804351A0307D4D1F80C35DBB22E
:10507000012B38BF0123B0FBF3F0104B0D4AA3FB0B
:105080000013DB0903F59673C3F31003C2F8183558
:10509000D2F8003543F00303C2F80035D2F80035EA
:1050A000DB01FBD5A469FFF793FE844214BF032004
:1050B000002010BD0040044001005A5AD34D621038
:1050C000214B1B69C3F30363013B052B39D8DFE890
:1050D00003F0050E29172703FFF720BF1A4BD3F85B
:1050E000000110F080702DD0184B18687047164BD7
:1050F0001748D3F8003213F0200F08BF0020704784
:10510000114BD3F8000410F080701BD003F5A833C6
:10511000D3F8200110F0040014D00E4B186870472B
:10512000FFF756BE084BD3F8000310F0010009D07A
:10513000D3F80823084B12F0010F084818BF18468F
:1051400070470020704700BF004004403407002033
:10515000001BB7003007002000449508006CDC02FB
:1051600008B5FFF7ADFF4FF08043D3F88033DBB2D3
:105170000133B0FBF3F008BD70B44FF000450224DA
:10518000284A294B29489563C2F80441C2F8A40073
:10519000B3FBF1F201FB123393B992B20F3A192A21
:1051A0000ED8DFE802F012300D0D0D330D100D3664
:1051B000390D0D0D0D2D0D0D0D0D0D0D0D0D0D3CA4
:1051C000002070BC70474FF440034FF480364025F8
:1051D0004FF080440020134AD2F8A01021F0E07173
:1051E0000B43C2F8A030C2F8A860C2F8A450946380
:1051F0001060D2F8A030002BFBDA70BC01207047A1
:105200004FF0C073E1E74FF48003DEE74FF4000393
:10521000DBE74FF08073D8E74FF0A073D5E74FF08E
:10522000E073D2E700A0104000389C1C0010200062
:105230000649074BD1F8402142F00202C1F8402153
:1052400000BF013BFCD10120704700BF00B01040FF
:10525000801A06002DE9F04100248B784E78A34295
:1052600014BF4FF041434FF0014302EB420C01EBFE
:105270008C0CBCF80880764206F000761E43DCF801
:1052800004704346BCF80AE001E098450ED05D1C6E
:1052900007EB0311ABB29E4598BF0023CD688C602D
:1052A0004C60CE60E900ACF80830EED541F228132E
:1052B00007EB0E1700EBC210C750BDE8F08100BF2E
:1052C000202210B50021044618F078F940F20112AE
:1052D00001232282A37410BD8B682DE9F04F002BAF
:1052E0000CBF0123022383B00193002A00F0B38096
:1052F0004FF0000802F1200E814642468C461EF80F
:105300001F1C032940F2A7805EE9073041F2141602
:1053100009EBC81423F00305A55120F0030004F5A0
:105320008955286041F22C15481E605103EB01118C
:105330004FEAC81A1A605A609A60DA6010338B42DA
:10534000F8D1DCF80C30BCF8006013F0400F14BF4B
:105350004FF082434FF0807346F30000DCF8187082
:1053600000F0007006F001061843002F6DD0DCF845
:105370001C30002B69D01EF8205C032D6BD9002354
:1053800041F21C11CA4400935EE9043423F0030B7C
:105390004AF801B041F2281124F003044AF8014010
:1053A00041F230116C1E4AF8014041F2081447F6F0
:1053B000F8715AF8044024F4FF4B5EF8044C2BF0CB
:1053C000780B01EA440444EA0B0441F2081B002173
:1053D0004AF80B4037BB5EF808BCF6B14C00A4B2EB
:1053E0005BF824A00BEB8404C3F800A064689C6005
:1053F00001318CB2A542D86003F11003EAD80199BB
:1054000008F1010399424FF001080EF1200E3FF61A
:1054100076AF002003B0BDE8F08F5BF821401C6040
:105420009E60E5E7DCF81CA05446B24606462046DE
:1054300040B101318CB2A542DE6003F11003DED928
:105440000028F6D130465646C5E71EF8205C40F0ED
:105450000040032D93D8012003B0BDE8F08F00BFBA
:1054600010B47AB100F58053D3F80841012A44F012
:105470000104C3F8084105D9D3F8882142F001029C
:10548000C3F8882179B100F58053D3F804210129AC
:1054900042F00102C3F8042105D9D3F8842142F077
:1054A0000102C3F8842103685DF8044B43F0030351
:1054B000036070478BB28BB141F2827C40F64502AB
:1054C00011EA0C0F02EA010211D0CAB143F44043C1
:1054D00000F58052C2F83431C2F8B431090C05D05D
:1054E000D0F8B4300B43C0F8B43070477047002A8E
:1054F000EED043F4004300F58052C2F83431EBE7BC
:1055000043F4804300F58052C2F83431E4E700BF31
:105510002DE9F0474FF080440425C4F828520E7C52
:10552000C4F80851D4F8085100F5805C25F0040552
:10553000C4F80851D4F8C05566F38205C4F8C055C4
:10554000DCF8004044F00104CCF80040DCF80040F6
:1055500014F00104FAD18E6841F2081EEEB17568AC
:105560002F0407F47C1705F4803500EBC41C0CF500
:105570008058C8F80051D8F8045125F47C153D43F3
:10558000C8F804515CF80E5025F47C153D434CF8E6
:105590000E5034B90124002EE1D14FF48037354646
:1055A000E3E70C88DFF81491DFF81481DFF814E1E9
:1055B00004F0020ABAF1000F3D4FDFF80CC13D4D77
:1055C00012BF4F46C4467546C0F800CDC0F8405DD6
:1055D000C0F8307D46B3B57A96F80BC06D014FEA3E
:1055E0008C0C05F060050CF0040C45EA0C05C0F8C5
:1055F000005CB58BC0F8305CD0F8405D45F0080524
:10560000C0F8405D3569C0F8707DC0F8185D357B25
:1056100005F00705C0F83C5D7569C0F8585D757BFD
:1056200005F00705C0F87C5D2AB115689288C0F8BE
:105630000023C0F80453650005F02005C4F3800280
:105640002A43650805F010052A438260220705D524
:1056500003258A8AC0F8905012040267164AA2FBFA
:1056600003239B0C013BC3F30B03C0F8DC308D7CA0
:105670004B7C6A039B0302F4005203F48043134300
:10568000220402F480022405134304F0006423433F
:105690000DB943F080630522BDE8F047C96843F4C3
:1056A0000843036041F00101C0F8A020FFF702BFEA
:1056B000080070000300070083DE1B432800700011
:1056C00009000700010007000B000700FFFFFFFFB4
:1056D0002DE9F04F0E462DED028B924600216C22F3
:1056E000804683B030461C4617F068FFBAF8003099
:1056F000D90744BF01237370DAF80830002B00F09B
:105700009380012302223370002706F148033546B7
:10571000CDF804A09FED468BB246B9469B4616468F
:1057200020344FF0000354F8102C07EB47016A6057
:1057300014F8202C0AEB81016A8154F8042CEA60E9
:1057400054F81C2CEA6114F81F2CEA848B8441F273
:10575000341308EBC71101F58050C95801F040011E
:1057600049EA010907F13401890158F8013054F878
:10577000141CAA8754F8082C69634BF8042F9A0765
:1057800022D5D0F80421D0F80011D8F82001C2F3B6
:105790000542CB03C0F3841048BFD200073000920B
:1057A00017F0CAF8B0EE480AF0EE680A41EC110BA7
:1057B00018F092FE51EC100B17F038F9009A0632EF
:1057C000A0EB8200CBF808007A1C96424FF001074C
:1057D00004F1200405F10C05A3D8B9F100095646DF
:1057E00018BF4FF00109144BDDF804A0B8EB030813
:1057F00018BF4FF0010886F80290DAE90623C6E9DF
:1058000019230E9A0D4BF2650F9A32660C4A1A60F4
:105810000C4B43F828604FF400620B4B1A6103B045
:10582000BDEC028BBDE8F08F01226DE7AFF3008085
:1058300000000000000000400000104050B30020B5
:10584000715E000054B3002000E100E0114B99426A
:1058500007D9114B994209D24FF44071C0F8001298
:1058600070474FF40071C0F8001270470B4B99421B
:1058700009D90B4B99420AD90A4B99428CBF002196
:1058800001218902EFE70021C0F8001270474FF4B0
:105890008071E8E7BF0E160200879303FFE0F5056D
:1058A0007FD1F0087FB2E60E8446D0F800024905A9
:1058B00001F07871120400F4706002F4F8120143F0
:1058C000114341F00401CCF80012CCF80432DCF8AA
:1058D000003243F00103CCF80032DCF8000210F093
:1058E0000100FAD1704700BF8446D0F80002490594
:1058F00001F07871120400F4706002F4F8120143B0
:10590000114341F00C01CCF80012DCF8002242F007
:105910000102CCF80022DCF8000210F00100FAD1FC
:10592000DCF804221A8070478B6E002B49D02DE9D9
:10593000F04F0E46834689464FF0000A0F7883B039
:1059400001F14C08B9F80A0058B3002401971CE093
:105950006700BFB253F8271041B153465846326E24
:10596000B56EA847737853B1D8F80030013753F8B3
:10597000271021B153465846B76E326EB847B9F872
:105980000A000134A3B298420AD97278D8F80030DC
:10599000002ADDD153F824100029F2D02746DCE795
:1059A000019FBAF1000F0CBF3B4600234FF0010AE4
:1059B00009F10C0908F10408002BC3D103B0BDE8BC
:1059C000F08F70472DE9F04F4B6E85B0002B5ED005
:1059D0008B6E0E46002B5AD04FF0000B01F14C0994
:1059E000C846DA4689460B78CDE9010B0393B9F82E
:1059F0000A30D9F80450002B32D000273C4616E07C
:105A00005246D6E918130198984730B3D8F80030B9
:105A1000A8605B445860EB68B9F80A200137BCB253
:105A200043F00043A242EB6005F1100518D97378EA
:105A3000524601980BB16400A4B2D6E918139847F6
:105A40004FEA840B48B1D8F800207378286042F8F8
:105A50002400002BD4D1AB60DDE74FF47A630293CE
:105A6000039A8AF00103002A08BF00234FF0010ABD
:105A700009F10C0908F10408002BB8D1DDE9018A0D
:105A8000BAF57A6F09D0504605B0BDE8F08F4FF4F3
:105A90007A6A504605B0BDE8F08F40463146FFF7C0
:105AA00043FF504605B0BDE8F08F00BF2DE9F04F31
:105AB00003EB430501EB85052F896C680E4604EB6B
:105AC00007119A46CB688BB0002B0290C0F2AD80D4
:105AD00093463B463A010CE06989994298BF0023FE
