:100000000000062081030000FD030000050400003D
:100010000D040000150400001D040000250400006C
:10002000000000000000000000000000212F02007E
:100030003504000000000000B12E0200E92A020091
:100040004D200000592000006520000071200000B4
:100050007D2000008920000095200000A1200000E4
:10006000AD200000B9200000C5200000D120000014
:10007000DD200000E9200000F52000000121000043
:100080000D21000019210000252100003121000070
:100090003D210000492100005521000061210000A0
:1000A0006D210000792100008521000091210000D0
:1000B0009D210000A9210000B5210000C121000000
:1000C000CD210000D9210000E5210000F121000030
:1000D000FD2100000922000015220000212200005D
:1000E0002D2200003922000045220000512200008C
:1000F0005D220000692200007522000081220000BC
:100100008D22000099220000A5220000B1220000EB
:10011000BD220000C9220000D5220000E12200001B
:10012000ED220000F9220000052300001123000049
:100130001D23000029230000352300004123000077
:100140004D230000592300006523000071230000A7
:100150007D2300008923000095230000A1230000D7
:10016000AD230000B9230000C5230000D123000007
:10017000DD230000E9230000F52300000124000036
:100180000D24000019240000252400003124000063
:100190003D24000049240000552400006124000093
:1001A0006D240000792400008524000091240000C3
:1001B0009D240000A9240000B5240000C1240000F3
:1001C000CD240000D9240000E5240000F124000023
:1001D000FD24000009250000152500002125000050
:1001E0002D2500003925000045250000512500007F
:1001F0005D250000692500007525000081250000AF
:100200008D25000099250000A5250000B1250000DE
:10021000BD250000C9250000D5250000E12500000E
:10022000ED250000F925000005260000112600003C
:100230001D2600002926000035260000412600006A
:100240004D2600005926000065260000712600009A
:100250007D2600008926000095260000A1260000CA
:10026000AD260000B9260000C5260000D1260000FA
:10027000DD260000E9260000F52600000127000029
:100280000D27000019270000252700003127000056
:100290003D27000049270000552700006127000086
:1002A0006D270000792700008527000091270000B6
:1002B0005CB9020000000020180500005CB90200D3
:1002C00000000004000000005CB9020000000620ED
:1002D000000000005CB9020000A00B40000000001C
:1002E000180500205CFC0400000000040000000071
:1002F000000006200000000000A00B4000000000ED
:1003000080B489B000AFF860B9607A60BB68FB6107
:10031000FB68BB6100237B610AE0BA69131DBB6106
:10032000FB69191DF96112681A607B6904337B61EE
:100330007A697B689A42F0D300BF00BF2437BD467C
:100340005DF8047B704780B485B000AF7860396099
:100350007B68FB600023BB6007E0FB681A1DFA6046
:1003600000221A60BB680433BB60BA683B689A42DB
:10037000F3D300BF00BF1437BD465DF8047B704760
:1003800072B6184B184A1C480360196881F3088834
:1003900082F30A8802F002FA144C0CE023461C1D7A
:1003A000186823461C1D1D6823461C1D1E68324606
:1003B0002946FFF7A5FF0E4B9C42EFD309E02346E9
:1003C0001C1D1D6823461C1D1E6831462846FFF76C
:1003D000BAFF084B9C42F2D362B600F05BF800BF54
:1003E000FDE700BF0000000000F00520B0020000A3
:1003F000E00200000003000008ED00E080B400AF60
:1004000000BFFDE780B400AF00BFFDE780B400AFE0
:1004100000BFFDE780B400AF00BFFDE780B400AFD0
:1004200000BFFDE780B400AF00BFFDE780B400AFC0
:1004300000BFFDE780B400AF00BFFDE780B400AFB0
:1004400000BFFDE780B400AF00BFFDE780B400AFA0
:1004500000BFFDE780B582B000AF7860786822F019
:100460006FF8034618460837BD4680BD80B582B098
:1004700000AF78603960786822F070F900BF083703
:10048000BD4680BD80B400AF00BFBD465DF8047BB3
:100490007047FFFF80B582B002AF23F085FC01F00A
:1004A000C9FC002100200AF0BBF9002001F006FD84
:1004B000002301930223009300234FF4C0620449F8
:1004C00004481FF0C2FF20F0DFF900BFFDE700BFC6
:1004D000A86202007D16000080B400AF0023184619
:1004E000BD465DF8047B704780B483B000AF786090
:1004F0007B689B88002B14BF01230023DBB21846C6
:100500000C37BD465DF8047B704780B582B000AF04
:10051000786039607B6861223968184623F0F4FB03
:1005200000BF0837BD4680BD80B582B000AF78609F
:1005300039607B68623329223968184623F0E4FB6E
:1005400000BF0837BD4680BD80B483B000AF78607F
:10055000044A7B681A607B6818460C37BD465DF814
:10056000047B7047606C020080B584B000AF786097
:1005700039607B681846FFF7E7FF134A7B681A600B
:100580007B68043340220021184623F0A3FB7B68DC
:1005900000225A64386823F05DFCF860FB68402B49
:1005A00001D94023FB607B68FA685A647B68181D98
:1005B0007B685B6C1A46396823F03FFC7B68184601
:1005C0001037BD4680BD00BFE079020080B483B023
:1005D00000AF78607B6803F580531B6F18460C37BB
:1005E000BD465DF8047B704780B483B000AF78608F
:1005F00039603B6818460C37BD465DF8047B704790
:1006000080B483B000AF03463960FB713B685AB2D7
:1006100097F9073013405BB2DBB218460C37BD4682
:100620005DF8047B704780B582B000AF78603960B8
:100630007B683968184601F099FA7B6818460837D4
:10064000BD4680BD80B483B000AF7860044A7B684B
:100650001A607B6818460C37BD465DF8047B70470E
:10066000186C020080B483B000AF7860044A7B68E5
:100670001A607B6818460C37BD465DF8047B7047EE
:10068000186C020080B582B000AF78607868FFF720
:10069000E9FF04217868FFF7E9FE7B681846083710
:1006A000BD4680BD80B582B000AF786039607B68A0
:1006B0001846FFF7C7FF0E4A7B681A607B683A68E6
:1006C0005A607B68083300211846FFF7ACFF7B684F
:1006D0000C3300211846FFF7A6FF7B6800221A6141
:1006E0007B6800225A617B6818460837BD4680BD8A
:1006F000F46B020080B582B000AF78600B467B805F
:100700007B685B681B6808331B687A685268798865
:1007100010469847034618460837BD4680BD80B549
:1007200082B000AF78607B685B681B680C331B6825
:100730007A6852681046984700BF0837BD4680BDAA
:1007400080B582B000AF78607B685B681B68183347
:100750001B687A685268104698470346184608375F
:10076000BD4680BD90B58BB000AFF860B9607A60CF
:100770003B60FB6808337B62002387F8233097F8DF
:1007800023304FF6FF711846FFF73AFF034687F80C
:100790002230FFF7A1FE0346002B05D097F8223048
:1007A000032B01D1012300E00023002BFFF794FE6F
:1007B0000346002B05D097F82230042B01D10123EA
:1007C00000E00023002B7B6AD3E8AF3F00BF002B83
:1007D00014BF01230023DBB2002B18D0FB680833C1
:1007E000FB610123BB610023FB75FB69BA69D3E898
:1007F000EF1FA1EB0200C3E8E40F002CF7D100BF0C
:10080000FB681B695A1CFB681A6101230CE0FB683A
:100810005B681B6810331C68FB6858683B687A6823
:10082000B968A047034600BF18462C37BD4690BDA7
:1008300090B58BB000AFF860B9607A603B60FB6840
:100840005B681B6814331C68FB6858683B687A68EF
:10085000B968A04778627B6A002B2CD0FB680C3308
:100860003B620023FB77FB7F4FF6FF711846FFF7D3
:10087000C7FE0346BB77FFF72FFE0346002B04D0CD
:10088000BB7F032B01D1012300E00023002BFFF7E6
:1008900023FE0346002B04D0BB7F042B01D1012390
:1008A00000E00023002B3B6AD3E8AF3F00BF002BE2
:1008B00001D0012300E00023002B18D0FB680C338B
:1008C000BB6101237B610023FB74BB697A69D3E8B8
:1008D000EF1FA1EB0200C3E8E40F002CF7D100BF2B
:1008E000FB685B695A1CFB685A61002300E07B6A65
:1008F00018462C37BD4690BD90B486B000AF7860E6
:1009000039607B6808337B613B683B610023FB7384
:100910007B693A69D3E8EF1F01EB0200C3E8E40FFB
:10092000002CF7D100BF00BF1837BD4690BC704700
:1009300090B486B000AF786039607B680C337B611F
:100940003B683B610023FB737B693A69D3E8EF1F87
:1009500001EB0200C3E8E40F002CF7D100BF00BF99
:100960001837BD4690BC704780B483B000AF786044
:100970007B681B6918460C37BD465DF8047B7047E1
:1009800080B483B000AF78607B685B6918460C3731
:10099000BD465DF8047B704780B483B000AF7860DB
:1009A000044A7B681A607B6818460C37BD465DF8C0
:1009B000047B70473C6C020080B582B000AF786069
:1009C0007868FFF7E9FF04217868FFF74FFD7B683F
:1009D00018460837BD4680BD80B483B000AF78604C
:1009E0007B6800221A607B6801221A717B680022F2
:1009F0005A717B6800229A607B6818460C37BD46A6
:100A00005DF8047B7047FFFF80B584B002AF78606B
:100A10007B68190E7B681B0CDAB27B681B0AD8B2A4
:100A20007B68DBB200930346034823F017F900BF4D
:100A30000837BD4680BD00BFD462020080B588B0D3
:100A400002AF786039603B68002B54D07B681B682C
:100A50001B0FFB74FB7C042B2DD13B68012B2AD987
:100A60007B681B681B0EDBB203F00F03BB747B6853
:100A70001B681B0C7B747B681B681B0A3B747B68C0
:100A800004331B681B0CFB607B7C03F0F003902B92
:100A900001D11B4B00E01B4BBB60B97C7B7C03F09E
:100AA0000F003B7CFA68019200930346BA6816482F
:100AB00023F0D4F820E0FB7C3A681946134823F071
:100AC000CDF800237B610BE07B699B007A681344BF
:100AD0001B6819460E4823F0C1F87B6901337B611E
:100AE0007A693B689A4202D27B69032BECD90948A8
:100AF00023F0B4F800E000BF1837BD4680BD00BF4A
:100B0000E0620200EC620200F86202002863020068
:100B1000446302004C63020080B483B000AF03461C
:100B2000FB71FB79052B1BD801A252F823F000BF03
:100B3000490B00004D0B0000510B0000550B00004D
:100B4000590B00005D0B0000094B0AE0094B08E05F
:100B5000094B06E0094B04E0094B02E0094B00E0B9
:100B6000094B18460C37BD465DF8047B704700BF43
:100B700050630200586302006C6302007C63020051
:100B80008863020098630200A463020080B582B00B
:100B900000AF78600B46FB70FB781846FFF7BCFF90
:100BA00003461946104823F059F8FB78032B05D16A
:100BB0000E4B01221A700E4823F050F8FB78052BDB
:100BC0000DD10C4B1B78002B09D0084B1B7883F000
:100BD0000103DBB2002B02D0074823F03FF800BF2F
:100BE0000837BD4680BD00BFA8630200B1150020D4
:100BF000C0630200681B0020F463020080B584B06B
:100C000000AFF860B9607A607968B868FFF716FFDE
:100C100000BF1037BD4680BD90B585B000AF334BE7
:100C20001B68002B5DD0314B1B68184608F071FC27
:100C30000346002B14BF01230023DBB2002B22D07C
:100C40002A4B1B68184608F019F90023FB600AE0DC
:100C5000264B1B68184608F03CF901201FF02CFDBC
:100C6000FB680133FB60FB68C72B09DC1F4B1B686B
:100C7000184608F04EFC0346002B01D0012300E08B
:100C80000023002BE4D1194B1C68002C06D0204611
:100C900008F057F804212046FFF7E8FB134B002229
:100CA0001A603B4600221A605A609A603B4618461A
:100CB000FFF792FE0E4B1C463B4693E8070084E884
:100CC00007000C4B00221A700B4B00221A600B4BD2
:100CD00000221A600A4806F00FFC0A4806F0C2F922
:100CE00000E000BF1437BD4690BD00BFA81500202E
:100CF00080040020B1150020B4150020B815002094
:100D0000000000201C05002090B5B9B000AFFFF72F
:100D100083FF404B01221A703F4B1B78002B01D000
:100D20003D4B00E03D4B07F1A0003D4A402122F041
:100D30001DFE3C4A07F1140311468C22184623F08D
:100D40007CF807F1A00207F1140311461846FFF7DB
:100D5000DCFB07F1140334491846FFF7E5FB334A7F
:100D600007F1080307CA83E807000420FFF772FBB6
:100D700003461C4607F1080307F114022C492046DC
:100D800007F0C5FF2B4B1C602A4B18682A4B1B78B9
:100D9000002B02D0294B1B6800E00023284A41F2B7
:100DA0008C3107F0E0FF07F1A0031946254822F037
:100DB00055FF1BF071FD244B1B685B687B601BF0CB
:100DC00087FD3B1D184613F0DBF9034641F28C32D8
:100DD00019461E4822F042FF174B1B78002B02D009
:100DE0001B4822F03BFF1B4822F038FF1A4806F050
:100DF000EFF90346194A1360194B00221A60194B88
:100E000000221A70184B07221A6000BFE437BD4653
:100E100090BD00BFB0150020501600203C640200B9
:100E200044640200F0640200BC6202007C650200BF
:100E300090150020A8150020681B0020641B0020CE
:100E4000000000204C640200A8BD0020686402007D
:100E500088640200BC6402001C050020B415002058
:100E600040160020C0150020AC15002090B5B9B088
:100E700000AF7860FFF7D0FE3A4B00221A703A4B71
:100E80007A681068186092889A80384B1B78002B1B
:100E900001D0364B00E0364B07F1A000354A402127
:100EA00022F064FD344A07F1140311468C221846DF
:100EB00022F0C3FF07F1A00207F114031146184600
:100EC000FFF723FB07F114032C491846FFF72CFB0F
:100ED0002B4A07F1080307CA83E807000420FFF73D
:100EE000B9FA03461C4607F1080307F11402254925
:100EF000204607F00CFF244B1C60234B1868234B43
:100F00001B78002B02D0224B1B6800E0002341F22B
:100F10008D32796807F066FF1E4822F09FFE7B68DD
:100F20001B681846FFF770FD7B689B8819461A48B6
:100F300022F094FE154B1B78002B02D0174822F0AC
:100F40008DFE174822F08AFE164B00221A60164BBF
:100F500000221A70154B07221A6000BFE437BD4605
:100F600090BD00BFB0150020701600205016002064
:100F70003C64020088650200F0640200BC6202006A
:100F80007C65020090150020A8150020681B002039
:100F9000641B002094650200AC650200B865020085
:100FA000F065020040160020C0150020AC1500209E
:100FB00080B500AF0E4B00221A600E4822F04EFEA4
:100FC0000D4806F0D7FA0D4806F002F903460C4A20
:100FD00013600C4B04221A60084806F0F9F8034627
:100FE000094A1360094B01221A7000BF80BD00BF7F
:100FF000181B002024660200000000201C050020B1
:10100000BC150020AC150020481600204C1600200E
:1010100090B58BB000AF78607B681B78002B0CBF5D
:1010200001230023FB779F4B1B68013B072B00F23A
:101030001D8201A252F823F059100000CD100000CB
:101040005D110000C5110000871200004B13000065
:10105000A313000003140000FB7F83F00103DBB245
:10106000002B19D01F2279688F4822F04DFE8E4B3D
:101070000022DA778C4B7B6209E07B6A1B78202B9D
:1010800002D17B6A2D221A707B6A01337B627B6AF4
:101090001B78002BF1D108E0834B1B78002B04D187
:1010A0001F228249804822F02FFE7F49804822F08B
:1010B000D5FD7C4B02221A607E4806F089F8034673
:1010C0007D4A13607D4B01221A70D4E17B681B7846
:1010D000482B03D07B681B78682B15D1784B0122F5
:1010E0001A70784822F0BAFD774B01221A706D4BC6
:1010F00003221A606F4806F06BF803466E4A1360CD
:101100006E4B01221A7028E07B681B78432B03D0BA
:101110007B681B78632B15D1694B00221A706948D4
:1011200022F09CFD684B01221A705E4B03221A606C
:10113000604806F04DF803465F4A13605F4B01229A
:101140001A700AE0FB7F83F00103DBB2002B00F092
:101150008F815E4822F082FD8AE189E1FB7F002BCE
:1011600009D05B4B00221A705A4B00221A605A4871
:1011700022F074FD1CE0574B1B68002B07D0554B29
:101180001B681B681B68534A1268104698475349EE
:101190004820FFF729FA044679682046FFF7E4F96A
:1011A0004C4B1C604A4B01221A704D4822F056FDF0
:1011B000434B1B78002B02D0FFF7A6FD5BE1FFF746
:1011C000F7FE58E1474806F055FA7B681B78712B0B
:1011D00003D07B681B78512B06D1434B00221A7039
:1011E000304B07221A6046E1404B1B68002B43DD61
:1011F0003E4B1B6819463E4822F030FD00233B62FF
:1012000025E03B6A591C3B6A942202FB03F3083336
:10121000384A13441A46384822F020FD354A3B6AC2
:10122000942101FB03F313441B681846FFF7ECFB02
:10123000304A3B6A942101FB03F3134404331B88B7
:1012400019462E4822F00AFD3B6A01333B62274BC8
:101250001B683A6A9A42D4DB294822F0FFFC114B02
:1012600005221A60134805F0B3FF0346124A1360C3
:10127000124B01221A70FEE0224822F0EFFC094BCB
:1012800006221A60F7E07B681B78712B03D07B681D
:101290001B78512B38D1144B00221A70014B0722B6
:1012A0001A6051E0AC150020501600203C6402008A
:1012B000846602001C050020481600204C16002001
:1012C000B0150020B066020044160020DC66020063
:1012D000681B0020641B0020F86602001C1B002015
:1012E0004C630200000000208C040020181B00202A
:1012F0001067020078160020286702003467020099
:101300003C670200606702007B681B78302B14D9B1
:101310005B4B1B6830337A68127893420DDB7B6835
:101320001B78313BBB61BB69942202FB03F3554A36
:1013300013441846FFF79AFD06E0534822F08EFC4E
:10134000524B06221A6096E095E0FB7F002B03D0FB
:101350004D4822F083FC8EE007F1140319467868AB
:1013600012F0E0FD0346002B0CBF01230023DBB28B
:10137000002B03D0464822F071FC7CE00023FB6088
:1013800000233B827B6918460EF08BFE0346FB6010
:1013900041F28C333B8207F10C031846FFF766FDE0
:1013A00069E07B681B78712B03D07B681B78512B1D
:1013B00003D1384B00221A705CE07B681B78642BE9
:1013C00007D101213448FFF797FA344822F046FC50
:1013D00050E07B681B78442B07D103212E48FFF790
:1013E0008BFA2F4822F03AFC44E07B681B78722B82
:1013F00040D101212848FFF79BFA2A4822F02EFC11
:1014000038E07B681B78592B03D07B681B78792BDD
:1014100013D1254B1B78002B02D0FFF775FC24E07D
:101420002248FFF761F80346002B03D01F48FFF75F
:101430001DFD1AE0FFF7BCFD17E07B681B78522BFF
:1014400003D07B681B78722B08D1FFF7E5FB1848A7
:1014500022F004FC0D4B02221A6006E0154822F02F
:10146000FDFB0A4B00221A6005E004E000BF02E029
:1014700000BF00E000BF00BF2C37BD4690BD00BFDD
:10148000181B00207816002060670200AC150020B1
:101490006C6702008C040020901500208867020011
:1014A000D86702002C680200B015002070160020DA
:1014B000786802009468020080B582B000AF5A4B91
:1014C0001B78002B57D0594805F082FE7860584BA6
:1014D0001B687A68D31A4EF65F2293424BD9524B5F
:1014E00000221A70534B1B68013B072B41D801A205
:1014F00052F823F0151500002315000031150000E7
:101500003F1500004715000073150000731500001B
:1015100065150000484822F0A1FB4848FFF778FD18
:1015200028E0474822F09AFB4648FFF771FD21E08A
:10153000454822F093FB4148FFF76AFD1AE03F4817
:10154000FFF766FD16E0414B1B68002B06DD4048A7
:1015500022F084FB3F48FFF75BFD0BE03748FFF7C5
:1015600057FD07E03C4822F079FB3C48FFF750FD6F
:1015700000E000BF54E000F001FD38603B68002B44
:101580004DDB294B00221A70294B00221A603B6860
:101590000D2B02D03B680A2B11D1314B1B68314A0D
:1015A0000021D154304822F059FB2E48FFF730FD7E
:1015B0002B4B00221A602D4B00221A7030E03B6842
:1015C000082B02D03B687F2B0CD1254B1B68002BCE
:1015D00008DD234B1B68013B214A1360244822F09D
:1015E0003DFB1DE01E4B1B687E2B19DC3B68D8B20F
:1015F0001B4B1B685A1C1A490A601A4A0146D154EF
:101600001A4B1B78002B03D01A4822F027FB07E067
:101610003B68DBB21946184822F020FB00E000BF0F
:101620000837BD4680BD00BF4C1600201C050020B9
:1016300048160020AC150020B4680200C8680200FB
:10164000CC680200D8680200DC680200181B002089
:10165000F0680200FC680200006902000C690200E8
:1016600040160020C01500204C63020044160020E4
:1016700010690200146902001869020090B5B5B043
:1016800000AF7860884822F0E9FA8849884822F05B
:10169000E5FA1E21874822F0E1FA2CE2864B1B680E
:1016A000002B40F09180854B1B68002B05D18448AE
:1016B00005F08EFD0346814A13601BF0EDF8814B67
:1016C0001B6893F8453003F00103002B09D07D4BD4
:1016D0001B68184611F02EFB0346002B01D0012396
:1016E00000E0002387F8B330764B1B6893F8453051
:1016F0009B10DBB203F00103002B14BF0123002376
:1017000087F8B2306F4B1B685B68C7F8A8301BF0D6
:10171000DFF897F8B330002B25D007F1A80318465F
:1017200012F02EFD03461946674822F097FA634BE4
:1017300000221A60654B1B78002B04D06349644873
:1017400022F08CFA02E0634822F088FA5A4B012218
:101750001A605B4805F03CFD03465F4A13605F4B2F
:1017600001221A702CE0564805F032FDC7F8AC0093
:101770005B4B1B68D7F8AC20D31A41F287329342F7
:101780000ED997F8B230002B01D0564B00E0564BE3
:101790001946564822F062FA514AD7F8AC30136025
:1017A000464B1B68D7F8AC20D31A47F22F5293420E
:1017B00006D94F4822F052FA404AD7F8AC301360AD
:1017C00001201EF079FF96E13B4B1B68092B03D1EA
:1017D000484B00221A708EE1374B1B68042B40F0F7
:1017E000AB80454A07F1080311469422184622F0BF
:1017F00024FB07F108031946404805F05EFF034645
:10180000002B00F08580002387F8CF300023C7F835
:10181000C83013E03A4AD7F8C830942101FB03F3EB
:1018200013441A68BB689A4203D1012387F8CF306A
:101830000AE0D7F8C8300133C7F8C830314B1B680D
:10184000D7F8C8209A42E5DB97F8CF3083F0010340
:10185000DBB2002B70D02B4B1B68072B6CDC294BA9
:101860001B685A1C27490A60254A942101FB03F38F
:101870001344184607F108039422194622F0DDFAB2
:10188000204B196807F1080308331A461E4822F056
:10189000E5F9BB681846FFF7B7F8BB8919461B483E
:1018A00022F0DCF948E000BF1C690200BC620200C3
:1018B0005069020060690200AC1500206C1B00201A
:1018C0001C050020A8BD00208469020050160020DD
:1018D00098690200C8690200481600204C160020D2
:1018E000701B0020E4690200E8690200F069020050
:1018F000146A02008C040020586B020000000020D3
:1019000078160020181B0020546A02003467020079
:10191000814805F05DFCC7F8C400804B1B68D7F810
:10192000C420D31AB3F5FA6F06D37D4805F022FE22
:101930007A4AD7F8C43013607A4B1B68002B00F04A
:101940009280784B1B68184607F0C3FA754B1B68EA
:10195000184607F0DEFD034687F8C33097F8C3301A
:10196000032B18D16C4805F033FC014607F1A003A6
:101970001A466D4805F052FAC7F8BC00D7F8BC30DB
:10198000002B08D0674B1B6807F1A001D7F8BC20DB
:10199000184607F075FD654B1B68072B26D15E487E
:1019A00005F016FCC7F8B800614B1B68002B03D18B
:1019B0005F4AD7F8B83013605D4B1B68D7F8B82082
:1019C000D31A41F28732934210D9594AD7F8B83026
:1019D00013605848FEF7C8FF04465648FEF7D0FF8C
:1019E00003461A462146544822F038F9534B1B78D7
:1019F000002B38D097F8C330002B34D1504B1B78D4
:101A000083F00103DBB2002B2DD0484B1B68072B62
:101A100029D1414805F0DCFBC7F8B400494B1B68ED
:101A2000D7F8B420D31AB3F57A6F1CD31AF034FF69
:101A3000454B1B685B68C7F89C301AF049FF07F1FB
:101A40009C03184612F09CFB04463348FEF7BEFD8B
:101A5000034641F28C3221463C4822F0FFF8394AD5
:101A6000D7F8B4301360314B1B68072B11D12D4BC5
:101A70001B68002B0DD0324B1B78002B09D0294B53
:101A80001B68184607F045FD0346002B01D10123D2
:101A900000E00023002B07D02D4822F0DFF8FFF7ED
:101AA000BBF82C4B00221A70FFF706FD294B1B7860
:101AB00083F00103DBB2002B1AD01C4B1B68072BF1
:101AC00016D1FFF7A9F8234B01221A70224822F001
:101AD000C5F8224822F0C2F8144B08221A600E48BA
:101AE00005F076FB03461E4A13601E4B01221A7056
:101AF00001201EF0E1FD174B1B78002B7FF4CEADCB
:101B0000FFF78AF8184822F0A9F800201EF0FCFD23
:101B100000BFD437BD4690BD1C050020BC15002079
:101B200000000020A815002080040020AC15002033
:101B3000B815002090150020646A0200B01500203E
:101B4000B1150020B4150020A8BD0020906A020045
:101B5000CC6A02008C040020E46A0200FC6A0200E5
:101B6000481600204C160020346B020080B483B06D
:101B700000AF786039607B683A681A607B68184605
:101B80000C37BD465DF8047B7047FFFF80B582B01F
:101B900000AF7860054A7B681A607B681846FEF7DC
:101BA00061FD7B6818460837BD4680BDF46B0200B6
:101BB00080B582B000AF78607868FFF7E7FF182142
:101BC0007868FEF753FC7B6818460837BD4680BD31
:101BD00080B582B000AF7860054A7B681A607B6888
:101BE0001846FEF7D9FE7B6818460837BD4680BD0B
:101BF0009C78020080B582B000AF78607868FFF70B
:101C0000E7FF4FF490617868FEF730FC7B68184678
:101C10000837BD4680BDFFFF80B500AF0B4805F01B
:101C20006FF90B4A0B49094822F0F8F807490A48AE
:101C3000FEF738FD064A0949074822F0EFF8044A42
:101C40000749084822F0EAF800BF80BD1C050020C3
:101C500018050020616F0000901500208D1B00000A
:101C6000D11B00000000002080B500AFFFF7D4FFBB
:101C700080BDFFFF80B483B000AF03463960FB80B6
:101C8000B7F90630002B0ADB3B68DAB20C49B7F92A
:101C900006305201D2B20B4483F800230AE03B68BD
:101CA000DAB20849FB8803F00F03043B5201D2B2B9
:101CB0000B441A7600BF0C37BD465DF8047B7047B5
:101CC00000E100E000ED00E080B485B000AF034625
:101CD000FB80FB881B0AFB60FB88DBB2BB60FB68F8
:101CE000FA2B12D14FF08043D3F8382E0121BB6874
:101CF00001FA03F34FF080411343C1F8383E4FF02F
:101D000080434022C3F82C221EE0FB68FB2B12D13B
:101D10004FF08043D3F83C2E0121BB6801FA03F356
:101D20004FF080411343C1F83C3E4FF08043802286
:101D3000C3F82C2208E04FF080410122BB689A4092
:101D4000FB68883341F8232000BF1437BD465DF897
:101D5000047B704780B487B000AF78607B689B6974
:101D60003B613B6903F40063002B0ED13B6903F434
:101D70000063002B0BD13B6903F01003002B06D14D
:101D80003B6903F00203002B01D0012300E0002394
:101D9000FB73FB7B002B06D07B68DB69DBB203F0B7
:101DA0007F03FB7502E07B68DB69FB75FB7D1846F2
:101DB0001C37BD465DF8047B704780B483B000AF2C
:101DC00078607B68DB6A1B0EDBB203F00F03DBB2CB
:101DD00018460C37BD465DF8047B704780B582B06D
:101DE00000AF0346FB710B46BB711346BB80BB883B
:101DF000BA79F979034802F08AFC03461846083795
:101E0000BD4680BD0000104080B582B000AF0346E3
:101E10003A60FB710B46BB71BA79F9793B680448AB
:101E200002F090FC034618460837BD4680BD00BF4F
:101E30000000104080B500AF0C20FFF745FF00F018
:101E40008FFE00F09FFD00F03BFD41F2D40001F059
:101E500007F840F20220FFF737FF4FF080430422DB
:101E6000C3F808214FF08043D3F808314FF0804287
:101E700023F00403C2F8083101F0A4FA034619461E
:101E80000C4802F087FB0C4B1B6898680023022269
:101E9000002121F0B7FC02218B20FFF7EBFE02218D
:101EA0008C20FFF7E7FE02218D20FFF7E3FE00BF45
:101EB00080BD00BF00001040C804002080B588B07D
:101EC00004AF78607B68002B01D07B6800E01F4B7B
:101ED000FB601F4B1F4A5A601D4B1F4A1A60242289
:101EE00000211E4821F0F6FE1C4B1D4A1A601B4BB8
:101EF00000221A71194B1B4A9A60184B144ADA6077
:101F0000164B194A1A610622F968184821F095FF04
:101F10000023BB6007F1080307F1080207F108017D
:101F200013480290134801900C480090124812F098
:101F30008DFE114813F0A0F80F4813F0ADF80E48CD
:101F40000FF0E0FC00BF1037BD4680BD746C02008E
:101F5000D01B0020091E0000DD1D0000D81B002042
:101F6000C41B0020D0AF020080F0FA02EC1B00205E
:101F700071A70000B5D30100741B002080B582B0AA
:101F800000AF134B7B60786803F0E8FD38603B6876
:101F900003F46023002B04D04FF46021786803F031
:101FA0000DFE7868FFF709FF0346002B14BF0123DD
:101FB0000023DBB2002B04D07868FFF7CBFE03468A
:101FC00001E04FF0FF3318460837BD4680BD00BF23
:101FD00000400B4080B584B000AFF860B9607A6013
:101FE0007B681A46B968044803F032FE7B681846DD
:101FF0001037BD4680BD00BF00400B4080B582B0A9
:1020000000AF7860396020F037FF3A68796802489D
:1020100004F046FC00BFFDE77C6C020080B582B096
:1020200000AF786039603968024804F039FC00BFBD
:10203000FDE700BF946C020080B500AF024804F0D9
:102040002FFC00BFFDE700BFB46C020080B500AFFD
:10205000FEF7FCF900BF80BD80B500AFFEF7F6F9D2
:1020600000BF80BD80B500AFFEF7F0F900BF80BDB6
:1020700080B500AFFEF7EAF900BF80BD80B500AFC4
:10208000FEF7E4F900BF80BD80B500AFFEF7DEF9D2
:1020900000BF80BD80B500AFFEF7D8F900BF80BD9E
:1020A00080B500AFFEF7D2F900BF80BD80B500AFAC
:1020B000FEF7CCF900BF80BD80B500AFFEF7C6F9D2
:1020C00000BF80BD80B500AFFEF7C0F900BF80BD86
:1020D00080B500AFFEF7BAF900BF80BD80B500AF94
:1020E000FEF7B4F900BF80BD80B500AFFEF7AEF9D2
:1020F00000BF80BD80B500AFFEF7A8F900BF80BD6E
:1021000080B500AFFEF7A2F900BF80BD80B500AF7B
:10211000FEF79CF900BF80BD80B500AFFEF796F9D1
:1021200000BF80BD80B500AFFEF790F900BF80BD55
:1021300080B500AFFEF78AF900BF80BD80B500AF63
:10214000FEF784F900BF80BD80B500AFFEF77EF9D1
:1021500000BF80BD80B500AFFEF778F900BF80BD3D
:1021600080B500AFFEF772F900BF80BD80B500AF4B
:10217000FEF76CF900BF80BD80B500AFFEF766F9D1
:1021800000BF80BD80B500AFFEF760F900BF80BD25
:1021900080B500AFFEF75AF900BF80BD80B500AF33
:1021A000FEF754F900BF80BD80B500AFFEF74EF9D1
:1021B00000BF80BD80B500AFFEF748F900BF80BD0D
:1021C00080B500AFFEF742F900BF80BD80B500AF1B
:1021D000FEF73CF900BF80BD80B500AFFEF736F9D1
:1021E00000BF80BD80B500AFFEF730F900BF80BDF5
:1021F00080B500AF03F082FF00BF80BD80B500AFA7
:1022000003F083FF00BF80BD80B500AF03F084FF03
:1022100000BF80BD80B500AF03F085FF00BF80BD6B
:1022200080B500AF03F086FF00BF80BD80B500AF72
:1022300003F087FF00BF80BD80B500AF03F088FFCB
:1022400000BF80BD80B500AF03F089FF00BF80BD37
:1022500080B500AF03F08AFF00BF80BD80B500AF3E
:1022600003F08BFF00BF80BD80B500AFFEF7EEF836
:1022700000BF80BD80B500AFFEF7E8F800BF80BDAD
:1022800080B500AFFEF7E2F800BF80BD80B500AFBB
:10229000FEF7DCF800BF80BD80B500AFFEF7D6F8D2
:1022A00000BF80BD80B500AFFEF7D0F800BF80BD95
:1022B00080B500AFFEF7CAF800BF80BD80B500AFA3
:1022C000FEF7C4F800BF80BD80B500AFFEF7BEF8D2
:1022D00000BF80BD80B500AFFEF7B8F800BF80BD7D
:1022E00080B500AFFEF7B2F800BF80BD80B500AF8B
:1022F000FEF7ACF800BF80BD80B500AFFEF7A6F8D2
:1023000000BF80BD80B500AFFEF7A0F800BF80BD64
:1023100080B500AFFEF79AF800BF80BD80B500AF72
:10232000FEF794F800BF80BD80B500AFFEF78EF8D1
:1023300000BF80BD80B500AFFEF788F800BF80BD4C
:1023400080B500AFFEF782F800BF80BD80B500AF5A
:10235000FEF77CF800BF80BD80B500AFFEF776F8D1
:1023600000BF80BD80B500AFFEF770F800BF80BD34
:1023700080B500AFFEF76AF800BF80BD80B500AF42
:10238000FEF764F800BF80BD80B500AFFEF75EF8D1
:1023900000BF80BD80B500AFFEF758F800BF80BD1C
:1023A00080B500AFFEF752F800BF80BD80B500AF2A
:1023B000FEF74CF800BF80BD80B500AFFEF746F8D1
:1023C00000BF80BD80B500AFFEF740F800BF80BD04
:1023D00080B500AFFEF73AF800BF80BD80B500AF12
:1023E000FEF734F800BF80BD80B500AFFEF72EF8D1
:1023F00000BF80BD80B500AFFEF728F800BF80BDEC
:1024000080B500AFFEF722F800BF80BD80B500AFF9
:10241000FEF71CF800BF80BD80B500AFFEF716F8D0
:1024200000BF80BD80B500AFFEF710F800BF80BDD3
:1024300080B500AFFEF70AF800BF80BD80B500AFE1
:10244000FEF704F800BF80BD80B500AFFDF7FEFFCA
:1024500000BF80BD80B500AFFDF7F8FF00BF80BDB5
:1024600080B500AFFDF7F2FF00BF80BD80B500AFC3
:10247000FDF7ECFF00BF80BD80B500AFFDF7E6FFC4
:1024800000BF80BD80B500AFFDF7E0FF00BF80BD9D
:1024900080B500AFFDF7DAFF00BF80BD80B500AFAB
:1024A000FDF7D4FF00BF80BD80B500AFFDF7CEFFC4
:1024B00000BF80BD80B500AFFDF7C8FF00BF80BD85
:1024C00080B500AFFDF7C2FF00BF80BD80B500AF93
:1024D000FDF7BCFF00BF80BD80B500AFFDF7B6FFC4
:1024E00000BF80BD80B500AFFDF7B0FF00BF80BD6D
:1024F00080B500AFFDF7AAFF00BF80BD80B500AF7B
:10250000FDF7A4FF00BF80BD80B500AFFDF79EFFC3
:1025100000BF80BD80B500AFFDF798FF00BF80BD54
:1025200080B500AFFDF792FF00BF80BD80B500AF62
:10253000FDF78CFF00BF80BD80B500AFFDF786FFC3
:1025400000BF80BD80B500AFFDF780FF00BF80BD3C
:1025500080B500AFFDF77AFF00BF80BD80B500AF4A
:10256000FDF774FF00BF80BD80B500AFFDF76EFFC3
:1025700000BF80BD80B500AFFDF768FF00BF80BD24
:1025800080B500AFFDF762FF00BF80BD80B500AF32
:10259000FDF75CFF00BF80BD80B500AFFDF756FFC3
:1025A00000BF80BD80B500AFFDF750FF00BF80BD0C
:1025B00080B500AFFDF74AFF00BF80BD80B500AF1A
:1025C000FDF744FF00BF80BD80B500AFFDF73EFFC3
:1025D00000BF80BD80B500AFFDF738FF00BF80BDF4
:1025E00080B500AFFDF732FF00BF80BD80B500AF02
:1025F000FDF72CFF00BF80BD80B500AFFDF726FFC3
:1026000000BF80BD80B500AFFDF720FF00BF80BDDB
:1026100080B500AFFDF71AFF00BF80BD80B500AFE9
:10262000FDF714FF00BF80BD80B500AFFDF70EFFC2
:1026300000BF80BD80B500AFFDF708FF00BF80BDC3
:1026400080B500AFFDF702FF00BF80BD80B500AFD1
:10265000FDF7FCFE00BF80BD80B500AFFDF7F6FEC4
:1026600000BF80BD80B500AFFDF7F0FE00BF80BDAC
:1026700080B500AFFDF7EAFE00BF80BD80B500AFBA
:10268000FDF7E4FE00BF80BD80B500AFFDF7DEFEC4
:1026900000BF80BD80B500AFFDF7D8FE00BF80BD94
:1026A00080B500AFFDF7D2FE00BF80BD80B500AFA2
:1026B000FDF7CCFE00BF80BD80B500AFFDF7C6FEC4
:1026C00000BF80BD80B500AFFDF7C0FE00BF80BD7C
:1026D00080B500AF02F0B2FF00BF80BD80B500AF93
:1026E000FDF7B4FE00BF80BD80B500AFFDF7AEFEC4
:1026F00000BF80BD80B500AFFDF7A8FE00BF80BD64
:1027000080B500AFFDF7A2FE00BF80BD80B500AF71
:10271000FDF79CFE00BF80BD80B500AFFDF796FEC3
:1027200000BF80BD80B500AFFDF790FE00BF80BD4B
:1027300080B500AFFDF78AFE00BF80BD80B500AF59
:10274000FDF784FE00BF80BD80B500AFFDF77EFEC3
:1027500000BF80BD80B500AFFDF778FE00BF80BD33
:1027600080B500AFFDF772FE00BF80BD80B500AF41
:10277000FDF76CFE00BF80BD80B500AFFDF766FEC3
:1027800000BF80BD80B500AFFDF760FE00BF80BD1B
:1027900080B500AFFDF75AFE00BF80BD80B500AF29
:1027A0003D4BD3F888303C4A43F47003C2F888307C
:1027B000394BD3F88830384A43F00F03C2F88830D9
:1027C000354BD3F88C30344A43F4406343F0030371
:1027D000C2F88C304FF080430022C3F8442E4FF0F3
:1027E0008043D3F800344FF0804223F40033C2F822
:1027F0000034294B294A9A604FF08043D3F824389B
:102800004FF0804223F00103C2F82438244B9B6A26
:1028100023F44023224A43F400239362204BDB6AD3
:1028200023F440231E4A43F40023D3621D4BD3F804
:1028300000311C4A43F48053C2F80031194BD3F8DD
:102840004431184A23F48033C2F84431154B3C22FA
:10285000C3F84421134BD3F84431124A43F4803374
:10286000C2F844310E4B9B6A23F003030C4A43F039
:10287000020393620A4BDB6A23F00303084A43F026
:102880000203D362084B00229A60084B00229A6030
:1028900000F00EF800BF80BD00ED00E00000000079
:1028A00000600240005004400040024000500240DE
:1028B00080B400AF00BFBD465DF8047B7047FFFFEA
:1028C00080B582B000AF43F2180000F0C9FA0848A2
:1028D00003F05AFC074B7B607B6801224FF4E13127
:1028E000042003F099FF00BF0837BD4680BD00BF3C
:1028F0000F000100001BB70080B485B000AF034695
:10290000FB80FB881B0AFB60FB88DBB2BB60FB68BB
:10291000FA2B12D14FF08043D3F8382E0121BB6837
:1029200001FA03F34FF080411343C1F8383E4FF0F2
:1029300080434022C3F82C221EE0FB68FB2B12D1FF
:102940004FF08043D3F83C2E0121BB6801FA03F31A
:102950004FF080411343C1F83C3E4FF0804380224A
:10296000C3F82C2208E04FF080410122BB689A4056
:10297000FB68883341F8232000BF1437BD465DF85B
:10298000047B704780B500AF00F002F800BF80BD47
:1029900080B58AB000AF40F21A20FFF7ADFF43F2D6
:1029A000FE3000F05DFA274B1B88BB8407F124033F
:1029B0001946254803F06CFD244B1B883B8407F126
:1029C00020031946204803F0B1FC214B9B6823F0FB
:1029D0000F031F4A43F0030393601E4B1B88BB8306
:1029E00007F11C031946184803F066FC1A4800F06A
:1029F000CDF93B4600221A605A609A60DA601A618B
:102A00005A619A61154B3B6008237B600123BB60D0
:102A10003223FB60124BBB613B46184600F07CFB47
:102A2000002000F001FA46F2FE3000F019FA012110
:102A3000202000F06DFA0B4B094A1A6000BF2837BE
:102A4000BD4680BDE46C020000500440E86C02000A
:102A500000300440EC6C0200006CDC02B035000277
:102A600080D1F0089004002080B485B000AF034608
:102A7000FB80FB881B0AFB60FB88DBB2BB60FB684A
:102A8000FA2B12D14FF08043D3F8382E0121BB68C6
:102A900001FA03F34FF080411343C1F8383E4FF081
:102AA00080434022C3F82C221EE0FB68FB2B12D18E
:102AB0004FF08043D3F83C2E0121BB6801FA03F3A9
:102AC0004FF080411343C1F83C3E4FF080438022D9
:102AD000C3F82C2208E04FF080410122BB689A40E5
:102AE000FB68883341F8232000BF1437BD465DF8EA
:102AF000047B704780B586B000AFF860B9607A603B
:102B00007B68002B06D10A4B0A4A4FF4B5710A487C
:102B100020F0B0FDBB6820339B00FA6813447B6152
:102B20007B697A6812881A8000BF1837BD4680BD5D
:102B3000FC6C0200546D0200046D020080B483B08E
:102B400000AF786039607B685A6C3B68DB431A40A1
:102B50007B685A6400BF0C37BD465DF8047B704744
:102B600080B500AF00F002F800BF80BD80B58CB02A
:102B700000AF0E20FFF778FF6E496F48FFF7DEFFCA
:102B80000023BB8597F82D30092262F3030387F8F1
:102B90002D3097F82D3043F0100387F82D3007F1D2
:102BA0002C031A460D216448FFF7A4FF00233B8540
:102BB00097F82930092262F3030387F8293097F840
:102BC000293043F0100387F8293007F128031A460B
:102BD0000E215948FFF78EFF0023BB8497F825305C
:102BE000092262F3030387F8253097F8253043F074
:102BF000100387F8253007F124031A460F214E48A9
:102C0000FFF778FF00233B8497F82130092262F315
:102C1000030387F8213097F8213043F0100387F839
:102C2000213007F120031A4614214348FFF762FFC1
:102C30000023BB837B7F092262F303037B777B7FC7
:102C400043F010037B7707F11C031A4615213A481D
:102C5000FFF750FF00233B837B7E092262F30303CF
:102C60007B767B7E43F010037B7607F118031A46D0
:102C700004213148FFF73EFF0023BB827B7D092200
:102C800062F303037B757B7D43F010037B7507F1D3
:102C900014031A4605212848FFF72CFF00233B8226
:102CA0007B7C092262F303037B747B7C43F010037B
:102CB0007B7407F110031A4606211F48FFF71AFF1D
:102CC0000023BB817B7B092262F303037B737B7B45
:102CD00043F010037B7307F10C031A4607211648D3
:102CE000FFF708FF00233B817B7A022262F3030394
:102CF0007B727B7A43F010037B7207F108031A465C
:102D000008210D48FFF7F6FE0023BB807B790222E5
:102D100062F303037B717B7943F010037B713B1DEE
:102D20001A4609210448FFF7E5FE00BF3037BD46CB
:102D300080BD00BFF0E030000070114080B400AFF3
:102D4000074BD3F8003503F08073002B14BF012329
:102D50000023DBB21846BD465DF8047B704700BF18
:102D60000040044080B400AF074BD3F8003603F0B6
:102D70008073002B14BF01230023DBB21846BD462D
:102D80005DF8047B704700BF0040044080B483B00E
:102D900000AF78607B68214A934205D07B68204A67
:102DA000934201D0012332E07B681C4A934201D058
:102DB000012300E000231B4AC2F80833194BD3F863
:102DC0000033184A23F40003C2F80033154BD3F83C
:102DD0000033144A43F01003C2F80033114BD3F808
:102DE0000033104A43F02003C2F800330D4BD3F8F0
:102DF00000330C4A43F00103C2F8003300BF094B13
:102E0000D3F8003303F08073002BF8D0002318466A
:102E10000C37BD465DF8047B704700BF006CDC02D8
:102E2000004495080040044080B485B000AF78604D
:102E30000A4BD3F80035FB60FB6823F44033FB609A
:102E4000FA687B681343FB60044AFB68C2F80035EC
:102E500000BF1437BD465DF8047B70470040044056
:102E600080B489B000AF78607B68FB61264B7B61E2
:102E70007B68B3F1004F40D00023BB6138E0FB69B1
:102E8000002B39D0FB697B827B8A002B2AD07B8A7E
:102E9000C3F30B033B827B8A1B0B9BB2DBB2013B70
:102EA000FB733B8A40F2FE32934215D1174B5B69AC
:102EB00023F07062FB7B1B0603F07063134913431E
:102EC0004B6100BF114B1A69FB7B1B06534003F09B
:102ED0007063002BF6D105E03B8A9B007A691344AE
:102EE000FA7B1A60FB691B0CFB61BB690133BB6198
:102EF000BB69012BC3D900E000BF00BF2437BD462A
:102F00005DF8047B704700BF600200400040044051
:102F100080B485B000AF03463960FB80104BFB6086
:102F2000FB889B00FA6813444FF0C0421A603B686C
:102F3000002B07D1FB889B00FA6813444FF08042B6
:102F40001A6006E0FB889B00FA6813443A68013A6D
:102F50001A6000BF1437BD465DF8047B704700BFA0
:102F60000003004080B52DED028B84B000AF00233C
:102F7000BB604FF00003FB6000F076F8B860FFF72D
:102F8000DDFE0346002B22D000F032FA786000F01C
:102F90006FFA3860BA687B68B2FBF3F3BB60BB685A
:102FA00007EE903AB8EE678A00F0C2FAF0EE407A87
:102FB00068EE277AC7ED037A3B6807EE903AB8EEE1
:102FC000677AD7ED036AC6EE877AC7ED037AD7ED45
:102FD000037AFCEEE77A17EE903A18461037BD46B2
:102FE000BDEC028B80BD80B52DED028B84B000AFAF
:102FF0000023BB604FF00003FB6000F061F8B86095
:10300000FFF7B0FE0346002B22D000F011FA7860E3
:1030100000F05EFA3860BA687B68B2FBF3F3BB601D
:10302000BB6807EE903AB8EE678A00F0D7FAF0EE88
:10303000407A68EE277AC7ED037A3B6807EE903A4C
:10304000B8EE677AD7ED036AC6EE877AC7ED037AE2
:10305000D7ED037AFCEEE77A17EE903A1846103770
:10306000BD46BDEC028B80BD80B582B000AF0023B1
:103070007B60124BD3F804355B0E03F00303022B85
:103080000ED0022B11D8002B02D0012B04D00CE063
:1030900000F01AF978600BE000F000F9786007E0C2
:1030A000012000F027F9786002E000237B6000BF78
:1030B0007B6818460837BD4680BD00BF004004400D
:1030C00080B582B000AF00237B60124BD3F804368A
:1030D0005B0E03F00303022B0ED0022B11D8002B42
:1030E00002D0012B04D00CE000F0EEF878600BE089
:1030F00000F0D4F8786007E0012000F0FBF8786079
:1031000002E000237B6000BF7B6818460837BD469D
:1031100080BD00BF0040044090B587B000AF78602C
:103120003D4BD3F800383C4A43F00103C2F8003865
:10313000394BD3F80035384A23F00303C2F8003581
:10314000354A7B681B68C2F80435334A7B685B6884
:10315000C2F80C357B685B682F4A43F00043C2F825
:103160000C352D4A7B689B68C2F814357B689B68D8
:10317000294A43F00043C2F81435274A7B68DB68CC
:10318000C2F810357B68DB68234A43F00043C2F87D
:103190001035214A7B681B69C2F824351E4A7B68BA
:1031A0005B69C2F828351C4B1C4A9A60FFF75CFF2C
:1031B000786100F01DF938617A693B69B2FBF3F37D
:1031C000FB60FB68164AA2FB0323DB0903F5967339
:1031D000114AC3F31003C2F818350F4BD3F800356A
:1031E0000D4A43F00303C2F8003500BFFFF7A6FD08
:1031F000034683F00103DBB2002BF7D17B689C69A7
:10320000FFF7B0FE03469C4201D0032300E00023F9
:1032100018461C37BD4690BD0040044001005A5A74
:10322000D34D621080B400AF074BD3F8003203F0E7
:103230002003002B01D0054B00E000231846BD46BB
:103240005DF8047B704700BF00400440001BB700DE
:1032500080B483B000AF0E4BD3F8003303F001030A
:10326000002B02D100237B600BE0094BD3F808331D
:1032700003F00103002B02D0064B7B6001E0064BFC
:103280007B607B6818460C37BD465DF8047B704751
:103290000040044000449508006CDC0280B400AF9C
:1032A000074BD3F8003303F01003002B01D0054B7C
:1032B00000E000231846BD465DF8047B704700BF60
:1032C00000400440006CDC0280B400AF074BD3F830
:1032D000003103F08073002B02D0054B1B6800E027
:1032E00000231846BD465DF8047B7047004004404B
:1032F0009404002080B483B000AF78600D4BD3F805
:10330000003403F08073002B0DD00B4BD3F8202139
:103310007B68134003F00F03002B02D0074B1B68A0
:1033200002E0002300E0002318460C37BD465DF89C
:10333000047B704700400440009005409804002042
:1033400080B582B000AF00237B601D4B1B691B0E54
:1033500003F00F03013B062B29D801A252F823F0FA
:103360007D330000853300008D330000953300006D
:103370009F330000A7330000B5330000FFF7A4FF20
:10338000786018E0FFF74EFF786014E0FFF760FF09
:10339000786010E00420FFF7ADFF78600BE0FFF7E6
:1033A000E1FD786007E0FFF71EFE786003E0002390
:1033B0007B6000E000BF7B6818460837BD4680BDD3
:1033C0000040044080B582B000AF00237B60FFF76F
:1033D000B7FF02464FF08043D3F88033DBB20133AE
:1033E000B2FBF3F37B607B6818460837BD4680BDAF
:1033F00080B483B000AF01237B600C4BD3F804355D
:1034000003F40023002B09D1084BD3F80C35DBB2B1
:103410007B607B68002B01D101237B607B681846B1
:103420000C37BD465DF8047B704700BF0040044088
:1034300080B483B000AF01237B600C4BD3F804361B
:1034400003F40023002B09D1084BD3F80C36DBB270
:103450007B607B68002B01D101237B607B68184671
:103460000C37BD465DF8047B704700BF0040044048
:1034700080B483B000AF01237B60144BD3F80435D4
:1034800003F48013002B19D1104BD3F8043503F447
:103490008033002B06D00D4BD3F8143503F01F03F7
:1034A0007B6006E0094BD3F8143503F01F035B0083
:1034B0007B607B68002B01D102237B607B68184610
:1034C0000C37BD465DF8047B704700BF00400440E8
:1034D00080B483B000AF01237B60144BD3F8043673
:1034E00003F48013002B19D1104BD3F8043603F4E6
:1034F0008033002B06D00D4BD3F8143603F01F0396
:103500007B6006E0094BD3F8143603F01F035B0021
:103510007B607B68002B01D102237B607B681846AF
:103520000C37BD465DF8047B704700BF0040044087
:1035300080B584B000AF4FF07E53FB60254BD3F8CD
:10354000283503F40063002B0AD1224BD3F8103541
:103550009BB207EE903AF8EE677AC7ED037A27E060
:103560001C4BD3F82835DB0103F08003BB60194BFB
:10357000D3F824355B0EBA681343BB60154BD3F800
:10358000243523F07E4307EE903AB8EE677ADFEDFC
:10359000126AC7EE267AC7ED017ABB6807EE903A49
:1035A000F8EE677A97ED017A77EE277AC7ED037A1E
:1035B000F8681FF0BDFE02460B46134302D14FF0E0
:1035C0007E53FB60FB6807EE903AB0EE670A103757
:1035D000BD4680BD004004400000004C80B584B072
:1035E00000AF4FF07E53FB60254BD3F8283603F431
:1035F0000063002B0AD1224BD3F810369BB207EEA2
:10360000903AF8EE677AC7ED037A27E01C4BD3F8BF
:103610002836DB0103F08003BB60194BD3F8243656
:103620005B0EBA681343BB60154BD3F8243623F006
:103630007E4307EE903AB8EE677ADFED126AC7EE86
:10364000267AC7ED017ABB6807EE903AF8EE677A02
:1036500097ED017A77EE277AC7ED037AF8681FF0C5
:1036600067FE02460B46134302D14FF07E53FB60C8
:10367000FB6807EE903AB0EE670A1037BD4680BD92
:10368000004004400000004C80B483B000AF03460B
:10369000FB80B7F90630002B0BDBFB8803F01F0221
:1036A0000749B7F906305B09012000FA02F241F838
:1036B000232000BF0C37BD465DF8047B704700BF78
:1036C00000E100E080B483B000AF0346FB80B7F9AF
:1036D0000630002B12DBFB8803F01F020A49B7F902
:1036E00006305B09012000FA02F2203341F8232062
:1036F000BFF34F8F00BFBFF36F8F00BF00BF0C370A
:10370000BD465DF8047B704700E100E080B485B001
:1037100000AF0346FB80FB881B0AFB60FB88DBB223
:10372000BB60FB68FA2B12D14FF08043D3F8382EE0
:103730000121BB6801FA03F34FF080411343C1F844
:10374000383E4FF080434022C3F82C221EE0FB6835
:10375000FB2B12D14FF08043D3F83C2E0121BB68E4
:1037600001FA03F34FF080411343C1F83C3E4FF0A0
:1037700080438022C3F82C2208E04FF080410122D0
:10378000BB689A40FB68883341F8232000BF143798
:10379000BD465DF8047B704780B584B000AF03463A
:1037A000FB800023FB60B7F9063013F1800F02D1D4
:1037B0000123FB6004E0B7F906301846FFF764FF09
:1037C000FB6818461037BD4680BD80B584B000AF99
:1037D0000346FB800023FB60B7F9063013F1800F2E
:1037E00002D10123FB6004E0B7F906301846FFF769
:1037F00069FFFB6818461037BD4680BD80B483B0B2
:1038000000AF78607B68D3F8003203F00103002B2F
:1038100014BF01230023DBB218460C37BD465DF808
:10382000047B704780B483B000AF78607B68D3F8C6
:1038300004329BB218460C37BD465DF8047B7047D6
:1038400080B584B000AF786039603B68002B06D14A
:10385000164B174A40F26A3116481FF00BFF3B68BF
:1038600003331B781A063B6802331B781B041A4388
:103870003B6801331B781B0213433A6812781343E9
:10388000FB603B6805331B781B023A6804321278F0
:103890001343BB607B68BA68C3F800237B68FA688F
:1038A000C3F8042300BF1037BD4680BD686D020019
:1038B000B86F0200706D020080B483B000AF0346A1
:1038C0000A46FB801346BB80FB880133FB80FA88E5
:1038D000BB889A4201D30023FB80FB8818460C3733
:1038E000BD465DF8047B704780B483B000AF0346EB
:1038F000FB714FF080430422C3F808214FF080434E
:10390000D3F808314FF0804223F00403C2F80831A5
:103910004FF08043D3F8C03523F00402FB799B00BD
:1039200003F004034FF080411343C1F8C03500BFDA
:103930000C37BD465DF8047B7047FFFF80B586B04D
:1039400000AF786039603B68002B05D1344B354AB5
:10395000C52135481FF08EFE7B6803F580531B6838
:1039600043F001037A6802F58052136000BF7B6860
:1039700003F580531B6803F00103002BF7D10023EC
:10398000FB7545E001233B613B689B68002B03D03E
:103990003B689B685B683B61FB7D3A6902F480325F
:1039A00079682233DB010B441A60FB7D7A6822338D
:1039B000DB01134404331B6823F47C13FB603B6975
:1039C0001B0403F47C11FB7DFA680A4379682233F7
:1039D000DB010B4404331A60FB7D7A68DB0113447E
:1039E00003F5885308331B6823F47C13FB603B69A1
:1039F0001B0403F47C11FB7DFA680A437968DB0140
:103A00000B4403F5885308331A60FB7D0133FB75C3
:103A1000FB7D012BB6D900BF00BF1837BD4680BD66
:103A2000C06D0200846F0200C86D020080B586B0D0
:103A300000AF786039603B68002B05D13D4B3E4AB2
:103A4000E6213E481FF016FE00237B6100233B6108
:103A50003B689B68BB603B681B8803F00203002B3C
:103A600003D002237B6120233B617B6943F4E02385
:103A700043F001037B617B6943F008027B68C3F874
:103A8000002D7B687A69C3F8402D3B6943F4E0035D
:103A900043F008033B617B683A69C3F8302DBB688B
:103AA000002B42D0BB689B7A5B0103F06002BB68CD
:103AB000DB7A9B0003F004031A437B68C3F8002CF5
:103AC000BB689B8B1A467B68C3F8302C7B68D3F8A5
:103AD000403D43F008027B68C3F8402D7B683A699B
:103AE000C3F8702D0023FB731CE0F97BFB7BBA68E5
:103AF000043152F8212079689B010B4403F61853D6
:103B00001A60FB7BBA6813441B7B1A46FB7B02F0EE
:103B1000070279689B010B4403F63C531A60FB7B58
:103B20000133FB73FB7B012BDFD900BF1837BD4688
:103B300080BD00BFC06D0200986F0200C86D02001A
:103B400080B586B000AFF860B9607A603B60BB6852
:103B5000002B06D1364B374A40F2131136481FF07E
:103B600089FD00237B617B68002B03D07968F868AE
:103B7000FFF766FEBB681B889B0803F00102BB6869
:103B80001B885B0003F020031A43BB681B885B089B
:103B900003F0100313437B61FB687A699A60BB688A
:103BA0001B8803F00803002B08D0FB680322C3F82E
:103BB0009020BB689B8A1A04FB681A673B681F4AFF
:103BC000A2FB03239B0C013B7B617B69C3F30B02CC
:103BD000FB68C3F8DC20BB689B7C5B0303F40052EA
:103BE000BB685B7C9B0303F480431A43BB681B8860
:103BF0001B0403F480031A43BB681B881B0503F0F6
:103C00000063134343F408437B61BB689B7C002B38
:103C100003D17B6943F080637B61FB687A691A603A
:103C2000FB680522C3F8A02000BF1837BD4680BD41
:103C3000C06D0200A46F0200C86D020083DE1B434A
:103C400080B489B000AFF860B9601346FB71BB68FF
:103C50007B617B69002B01D104234AE07B695B789F
:103C6000032B01D8042344E07B695B681A46FB7987
:103C700022F00302F968DB010B4403F58853143387
:103C80001A607B699B681A46FB7922F00302F96887
:103C9000DB010B4403F589531A607B695B785A1E7C
:103CA000FB79C2F30902F968DB010B4403F5895380
:103CB0000C331A607B695B68BB610023FB8311E0F6
:103CC000BB6900221A60BB6900225A60BB690022EE
:103CD0009A60BB690022DA60BB691033BB61FB8B61
:103CE0000133FB837B695B781A46FB8B9342E7D3F6
:103CF000002318462437BD465DF8047B704780B426
:103D00008DB000AFF860B9607A60FB70BB681B884B
:103D100003F00103002B14BF01230023FB777B6812
:103D2000BB614FF080733B62BB69002B01D1042360
:103D3000A8E0BB68DB6803F04003002B03D03B6ABC
:103D400043F080433B62FB7F002B03D03B6A43F090
:103D500000733B62BB689B69002B03D0BB68DB69C7
:103D6000002B03D13B6A43F000433B62BB691B78E5
:103D7000032B01D8042385E0BB691B691A46FB7835
:103D800022F00302F968DB010B4403F588531C336E
:103D90001A60BB695B691A46FB7822F00302F96876
:103DA000DB010B4403F5895308331A60BB691B78A8
:103DB0005A1EFB78C2F30902F968DB010B4403F5D4
:103DC000895310331A60FB78FA68DB01134403F55A
:103DD000885308331B6823F4FF4323F078037B6187
:103DE000BB69DB699B08DA0047F6F87313407A6910
:103DF00013437B61FB78FA68DB01134403F58853B6
:103E000008337A691A60BB691B69BB620023FB85B2
:103E100031E0BB689B69002B03D0BB68DB69002BDA
:103E200020D1FB7F002B03D0FB8D5B00FB8401E0E6
:103E3000FB8DFB84BB699A69FB8C9B0013441A6859
:103E4000BB6A1A60FB7F002B09D0BB699A69FB8CA7
:103E500001339B0013441A68BB6A9A6002E0BB6A94
:103E600000229A60BB6A3A6ADA60BB6A1033BB62AE
:103E7000FB8D0133FB85BB691B781A46FB8D934292
:103E8000C7D3002318463437BD465DF8047B70471E
:103E900080B584B000AF78600023FB6006E00D4A77
:103EA0007B68934206D0FB680133FB60FB68002B04
:103EB000F5D000E000BFFB68002B06D0064B074A98
:103EC00040F2012106481FF0D5FBFB681846103769
:103ED000BD4680BD00001040186E0200C86F020091
:103EE000C86D020080B582B000AF78607B68002B9F
:103EF00006D1114B114A40F2172111481FF0BAFBAD
:103F00002022002178681FF0E5FE7B6801221A74E8
:103F10007B6801225A747B6801229A747B680022B4
:103F20001A807B6800229A607B6800229A8200BF18
:103F30000837BD4680BD00BFC06D0200DC6F0200C7
:103F4000C86D020080B586B000AFF860B9607A60D5
:103F50003B60BB68002B06D1174B184A40F2412149
:103F600017481FF087FBF868FFF792FF786140F26F
:103F700002231846FFF7CAFBBB681B7C1846FFF7F5
:103F8000B3FCB968F868FFF7D9FCB968F868FFF7BF
:103F90004DFD3B687A68B968F868FFF7D1FDBB68EA
:103FA000DB6843F001031946F86800F0E1F800BF50
:103FB0001837BD4680BD00BFC06D0200F46F02001F
:103FC000C86D020080B586B000AFF860B9607A6055
:103FD000BB68002B06D1204B204A40F27E212048AE
:103FE0001FF048FB7B68002B06D11E4B1B4A40F29A
:103FF0007F211B481FF03EFBBB689B68002B01D153
:10400000012300E00223BB750023FB751BE0FB7D51
:104010001A467968F868FFF713FE0346002B01D0B3
:10402000012315E0FB7D7A68B968F868FFF767FE41
:104030000346002B01D001230AE07B6820337B601C
:10404000FB7D0133FB75FA7DBB7D9A42DFD30023F4
:1040500018461837BD4680BDC06D020000700200D2
:10406000C86D02004C6E020080B584B000AF78606D
:104070000B46FB701346BB70FB78002B06D12D4B13
:104080002D4A4FF42A712D481FF0F4FABB78002B0B
:1040900006D12B4B284A40F2A92128481FF0EAFA02
:1040A000FB78022B01D90223FB70BB78022B01D9CC
:1040B0000223BB700023FB7314E0FB7B7A68DB01F7
:1040C000134403F5885308331A68FB7B42F001025E
:1040D0007968DB010B4403F5885308331A60FB7BD6
:1040E0000133FB73FA7BBB789A42E6D30023FB7360
:1040F00012E0FB7B7A682233DB01134404331A6835
:10410000FB7B42F0010279682233DB010B4404336C
:104110001A60FB7B0133FB73FA7BFB789A42E8D38E
:104120007B681B6843F003027B681A6000BF10378E
:10413000BD4680BD5C6E020014700200C86D0200B6
:10414000686E020080B582B000AF78603960074ABF
:104150003B6813607868FFF79BFE8B231846FFF7D8
:104160001BFB00BF0837BD4680BD00BF001C002000
:1041700080B485B000AF786039603B689BB2FB606B
:10418000FB68002B25D00023FB721FE0FA6841F288
:1041900082731340002B03D0FB6843F48043FB6021
:1041A000FA6840F645031340002B03D0FB6843F444
:1041B0000043FB60FB7A7A68DB01134403F5895303
:1041C0001433FA681A60FB7A0133FB72FB7A012B15
:1041D000DCD93B681B0CFB60FB68002B07D07B68BD
:1041E000D3F8B420FB681A437B68C3F8B42000BF3F
:1041F0001437BD465DF8047B704780B485B000AFCE
:10420000786039603B689BB2FB60FB68002B2FD065
:104210000023FB7229E0FA6841F282731340002BFD
:1042200003D0FB6843F48043FB60FA6840F6450323
:104230001340002B03D0FB6843F40043FB60FB7A80
:104240007A68DB01134403F5895314331968FB685A
:10425000DA43FB7A0A407968DB010B4403F58953A2
:1042600014331A60FB7A0133FB72FB7A012BD2D92B
:104270003B681B0CFB60FB68002B08D07B68D3F805
:10428000B420FB68DB431A407B68C3F8B42000BF4E
:104290001437BD465DF8047B7047FFFFFFFFFFFF4B
:1042A00080B588B000AFF860B9607A603B607B6829
:1042B000002B06D1B04BB14A4FF45871B0481FF0F3
:1042C000D9F93B68002B06D1AE4BAC4A40F26131C4
:1042D000AB481FF0CFF9BB6A002B06D1AA4BA74A07
:1042E00040F26231A6481FF0C5F90123FB77002395
:1042F000BB7700237B773B68BB616C220021B868E9
:104300001FF0E8FC7B681B8803F00103002B02D040
:10431000BB6801225A707B689B68002B04D0022383
:10432000FB77BB6801221A700023BB77F4E0BA7FE9
:10433000BB691969B86813465B0013449B000344CA
:1043400004331960BA7FB96813465B0013449B00BD
:104350000B44083300221A80BB691B78BA7F1846C9
:10436000B96813465B0013449B000B440A330246B2
:104370001A80BA7FBB69D969B86813465B001344D9
:104380009B0003440C331960BA7FBB695968B86855
:1043900013465B0013449B0003441C331960BB6944
:1043A0005B78BA7F1846B96813465B0013449B00DC
:1043B0000B44263302461A80BA7FB96813465B0065
:1043C00013449B000B44203300221A80BA7FB96843
:1043D00013465B0013449B000B44223300221A80D7
:1043E000BA7FB96813465B0013449B000B44243327
:1043F00000221A80BA7FBB69D968B86813465B008F
:1044000013449B00034434331960BB695B78BA7F63
:104410001846B96813465B0013449B000B443C33B9
:1044200002461A80BA7FB96813465B0013449B00AA
:104430000B44383300221A80BA7FB96813465B00F8
:1044400013449B000B443A3300221A80BB7FBA69A5
:104450009269B96812339B000B445A60BB7FFA68BB
:10446000DB01134403F5895314331B68DBB203F0FB
:104470004003DAB27B7F13437B77BB7FFA68343328
:104480009B0113441B6803F00203002B3ED0BB7F4B
:10449000FA682233DB01134404331B681B0C03F05E
:1044A0003F037B61BB7FFA682233DB0113441B6847
:1044B00003F48033002B02D07B69DB0000E07B69D2
:1044C0007B61FB68D3F820319B0903F01F0307339E
:1044D00018461EF07BFE02460B4643EC112B9FED67
:1044E000240B20F09DFB53EC102B104619461EF0B8
:1044F000E7FE03463B617B6906339A00BB7F39695F
:104500008A1AB96814339B000B445A60BB69203384
:10451000BB61BB7F0133BB77BA7FFB7F9A42FFF45D
:1045200006AF7B7F002B14BF01230023DAB2BB68E8
:104530009A70F868FFF7ACFC02461449BB6841F872
:1045400022307B689A69BB685A667B68DA69BB6807
:104550009A66BB68BA6ADA65BB68FA6A1A660C4979
:10456000F868FFF7EFFD00BF2037BD4680BD00BFF4
:104570000000000000000040C06D02002470020036
:10458000C86D02004C6E0200746E0200FC1B00201D
:104590003555000080B584B000AF786039600023E5
:1045A000FB603B681C4AA2FB03239B0CBB60BB68FF
:1045B000132B02D9BB68F92B06D9184B184A40F2C5
:1045C000D13118481FF056F8BB68222B02D80223BD
:1045D000FB6016E0BB683B2B02D80323FB6010E0B6
:1045E000BB68632B02D80023FB600AE0BB68952BF5
:1045F00002D80123FB6004E0BB68F92B01D8042337
:10460000FB60FB681B0203F470627B68C3F8002246
:1046100000BF1037BD4680BD83DE1B43806E0200A5
:1046200038700200C86D020080B485B000AF7860B9
:10463000084611461A460346FB700B46BB701346EC
:104640003B807B68D3F8003203F47063FB60FB7837
:104650005B0503F07872FB681A43BB781B0403F414
:10466000F813134343F004027B68C3F800223A882E
:104670007B68C3F804227B68D3F8003243F0010260
:104680007B68C3F8002200BF1437BD465DF8047B89
:10469000704780B485B000AF78600B46FB7013465E
:1046A000BB707B68D3F8003203F47063FB60FB7867
:1046B0005B0503F07872FB681A43BB781B0403F4B4
:1046C000F813134343F00C027B68C3F800227B68A5
:1046D000D3F8003243F001027B68C3F8002200BF28
:1046E0001437BD465DF8047B704780B584B000AFD9
:1046F00078600023FB6000BF7868FFF77FF803460F
:10470000002BF9D1FB6818461037BD4680BD80B537
:1047100082B000AF7860084611461A460346FB7027
:104720000B46BB7013463B803B88BA78F9787868B3
:10473000FFF77AFF7868FFF7D8FF03461846083777
:10474000BD4680BD80B586B000AFF8607B600B468B
:10475000FB721346BB727B68002B06D1104B114ACB
:1047600040F24E4110481EF085FFBA7AFB7A194696
:10477000F868FFF78EFFF868FFF7B7FF78617B698D
:10478000002B01D07B6907E0F868FFF74BF8034680
:104790001A467B681A807B6918461837BD4680BD6B
:1047A000A46E020044700200C86D020080B586B09D
:1047B00000AFF860B9607A60FB70FB68002B06D12F
:1047C000194B1A4A40F2FB5119481EF053FF4FF0A3
:1047D00001437B61FB78002B03D07B6943F080436E
:1047E0007B6197F82030002B03D07B6943F0007386
:1047F0007B61BB68002B02D0BA68FB681A607B68DB
:10480000002B03D07A68FB689A6002E0FB68002204
:104810009A60FB6800225A60FB687A69DA6000BF20
:104820001837BD4680BD00BFBC6E02005470020048
:10483000C86D020080B588B000AF78603960002391
:10484000FB613B681B78002B01D0022300E00123B1
:104850007B743B685B6E002B03D03B689B6E002B28
:1048600002D14FF47A6386E00023FB7576E0FA7D8F
:10487000396813465B0013449B000B4404331B68E8
:10488000BB6100237B825AE03B685B78002B03D03E
:104890007B8A5B00BB8201E07B8ABB823B685B6EEC
:1048A0003A68116EFA7D786898470346FB60FB68AA
:1048B000002B03D14FF47A63FB614CE0BB69FA68CB
:1048C0001A60FB7D3A6812339B0013445A68BB8A16
:1048D0009B001344FA681A603B685B78002B1FD07A
:1048E0003B685B6E3A68116EFA7D786898470346BC
:1048F000FB60FB68002B03D14FF47A63FB612AE075
:10490000BB69FA689A60FB7D3A6812339B001344D6
:104910005A68BB8A01339B001344FA681A6002E0AC
:10492000BB6900229A60BB69DB6843F00042BB6947
:10493000DA60BB691033BB617B8A01337B82FA7D0D
:10494000396813465B0013449B000B440A331B88F1
:104950007A8A9A4298D3FB7D0133FB75FA7D7B7C82
:104960009A4284D3FB69B3F57A6F03D139687868CA
:1049700000F005F8FB6918462037BD4680BD90B5AC
:1049800087B000AF786039603B681B78002B01D09E
:10499000022300E00123FB743B689B6E002B56D082
:1049A0000023FB754FE00023BB823DE03B685B7852
:1049B000002B03D0BB8A5B009BB200E0BB8A3B822A
:1049C000FB7D3A6812339B0013445A683B8A9B0074
:1049D00013441B68FB60FB68002B07D03B689C6E90
:1049E000F9683B681A6EFB7D7868A0473B685B7886
:1049F000002B16D0FB7D3A6812339B0013445A6893
:104A00003B8A01339B0013441B68FB60FB68002B4F
:104A100007D03B689C6EF9683B681A6EFB7D78682E
:104A2000A047BB8A0133BB82FA7D396813465B001D
:104A300013449B000B440A331B88BA8A9A42B5D3AD
:104A4000FB7D0133FB75FA7DFB7C9A42ABD300BF43
:104A50001C37BD4690BD80B485B000AF786039602A
:104A60007B68DB68DB0C03F03F03FB603B683A7B51
:104A70001A7000BF1437BD465DF8047B704780B5DF
:104A80008AB002AFF860B9601346FB71FA79134639
:104A90005B0013449B00BA6813440433FB61FB6959
:104AA0009B887B83FB691A68FB699B881B01134405
:104AB0007B617B69DB683B61BB689A78BB685B782C
:104AC00000931346002200217869FFF76FFEFB690F
:104AD0009A88FB69DB8819461046FEF7EDFE03460F
:104AE0001A46FB699A803B6903F08053002B05D17D
:104AF000FB699B887A8B9A42D4D100E000BFFB69A6
:104B00001A68FB69DB881B011A44FB791146FA68B5
:104B1000DB01134403F589530833196000BF2037C4
:104B2000BD4680BD90B593B002AFF860B9607A60C1
:104B3000FB70BB68002B06D17F4B804A40F2FE61C0
:104B40007F481EF097FDFB78012B06D97D4B7B4AF1
:104B500040F2FF617A481EF08DFDFA7813465B0043
:104B600013449B00BA6813440433FB61FB691A6861
:104B7000FB699B881B011344FB63FB699B887B8754
:104B800000237B630023BB6100233B630023FB8581
:104B90000023BB8500237B8500237B6100237B6290
:104BA000002387F82330002387F82230FB6BDB6873
:104BB000002B03DA40F6A3737B633EE0FB6BDB68FC
:104BC00003F08053002B19D0FB6BDB6803F4004328
:104BD000002B09D07B6820331946F86BFFF73BFFA9
:104BE00040F6A1737B6327E0FB6BDB68C3F30E0326
:104BF000002B21D140F6A3737B631DE0FB69DA88AB
:104C00007B8F11461846FEF757FE03467B87FB69EC
:104C10009B887A8F9A4203D140F6A3737B630CE0A2
:104C2000FB691A687B8F1B011344FB63FB699B883C
:104C30007A8F9A42BAD100E000BF7B6B002B0CD078
:104C40007B6B40F6A172934205D1FB781A46B96896
:104C5000F868FFF714FF7B6BEFE100237B87FB69AC
:104C60001A68FB699B881B011344FB63FB6BDB68C1
:104C700003F08053002B33D0012387F82230FB6BE5
:104C8000DB689BB2C3F30E039AB27B689A807B68A1
:104C90009B881A467B8DD31AFA69926892B2934226
:104CA00018DDBB685B78002B06D1274B234A40F206
:104CB0005B7123481EF0DEFCFB699B68FB857B680B
:104CC0009A887B8DD31A9AB2FB699B689BB2D31AE0
:104CD000BB8521E07B689A887B8DD31AFB851BE01E
:104CE000BB685B7883F00103DBB2002B07D0FB6964
:104CF0009B68FB857A8DFB8D13447B850CE0FB69FB
:104D00009B68FB85FB699B68BB85FA8DBB8D134453
:104D10009AB27B8D13447B85BB685B6EBA68116E5B
:104D2000FA78F868984778617B69002B0ED10123E7
:104D300087F8233027E000BFC46E02006C700200C9
:104D4000C86D0200D46E0200F06E0200BB685B7892
:104D5000002B18D0BB8D002B15D0BB685B6EBA68DA
:104D6000116EFA78F868984778627B6A002B0AD14E
:104D7000BB689C6EBB681A6EFB787969F868A047BF
:104D8000012387F8233097F8233083F00103DBB247
:104D9000002B00F0E980BB685B7883F00103DBB295
:104DA000002B1DD0FB78BA6812339B0013445A685D
:104DB000FB699B889B0013441B68BB617B681A6876
:104DC0007B8FDB001344BA691A607B681A687B8F9B
:104DD000DB001344FA8D9A807B8F01337B873DE0A3
:104DE000FB78BA6812339B0013445A68FB699B88AE
:104DF000DB0013441B68BB617B681A687B8FDB0098
:104E00001344BA691A607B681A687B8FDB0013440D
:104E1000FA8D9A807B8F01337B87BB8D002B1DD051
:104E2000FB78BA6812339B0013445A68FB699B886D
:104E3000DB00043313441B683B637B681A687B8F79
:104E4000DB0013443A6B1A607B681A687B8FDB00C7
:104E50001344BA8D9A807B8F01337B87BB685B7864
:104E600083F00103DBB2002B19D07B69BB61FB78B7
:104E7000BA6812339B0013445A68FB699B889B00F5
:104E80001344BA691A60B969BB689A78BB685B78E1
:104E9000009313460022F86BFFF788FC38E07B692B
:104EA000BB61FB78BA6812339B0013445A68FB69F4
:104EB0009B88DB001344BA691A60BB8D002B0FD0AE
:104EC0007B6A3B63FB78BA6812339B0013445A68D1
:104ED000FB699B88DB00043313443A6B1A600CE0D7
:104EE000FB78BA6812339B0013445A68FB699B88AD
:104EF000DB00043313441B683B63B9693A6BBB683E
:104F00009878BB685B7800930346F86BFFF74EFC1C
:104F1000FB699A88FB69DB8819461046FEF7CCFCD2
:104F200003461A46FB699A807B6800221A72FB6965
:104F30001A68FB69DB881B011A44FB781146FA6882
:104F4000DB01134403F58953083319601BE0BB6888
:104F50009C6E7B681A687B8FDB0013441968BB6802
:104F60001A6EFB78F868A0477B8F5A1E7A87002B51
:104F7000EDD1FB781A46B968F868FFF780FD40F676
:104F8000A4737B6307E097F8223083F00103DBB260
:104F9000002B7FF464AE7B6B002B4DD17B681A68CD
:104FA0007B8F013B7B877B8FDB0013449B88FB85DA
:104FB000FB8D042B0ED97B681A687B8FDB001344B2
:104FC0009A887B6819687B8FDB000B44043A92B2A5
:104FD0009A802BE07B681A687B8FDB0013440022E9
:104FE0009A80BB689C6E7B681A687B8FDB001344D9
:104FF0001968BB681A6EFB78F868A047FB8D032B15
:1050000014D87B681A687B8F013B7B87788F0346B7
:10501000DB0013449A88FB8D13449AB27B681968AD
:105020000346DB000B44043A92B29A807B689B886B
:10503000043B9AB27B689A807B6B18464437BD4626
:1050400090BD00BF80B485B000AF786039603B6828
:105050005B68C3F30D023B68DB6819042C4B0B4003
:105060001343FB600023FB723B68DB7D022B03D004
:105070003B68DB7D032B0FD13B685B7D002B04D0AD
:10508000FB6843F08043FB6003E0FB6823F0804350
:10509000FB603B689B7DFB723B681B7D002B04D053
:1050A000FB6843F00043FB6003E0FB6823F0004330
:1050B000FB603B681B681A467B681A603B689B680C
:1050C0001A467B685A607B68FA689A603B681B7E68
:1050D000DB0403F4F0023B681B69C3F30E031A43BD
:1050E000FB7A1B0403F440331A433B68DB7D1B0748
:1050F00003F04053134343F00043FB607B68FA68BE
:10510000DA6000BF1437BD465DF8047B704700BF0E
:105110000000FF3F90B58BB002AFF860B960134656
:10512000FB71FA7913465B0013449B001833BA688D
:1051300013440433BB61BB691A68BB69DB881B017C
:105140001344FB61FA7913465B0013449B00303330
:10515000BA68134404337B6100233B614AE0FB6976
:10516000DB6803F08053002B2AD07B691A687B69C7
:10517000DB8819460B465B000B44DB0013443B61A4
:105180007B69DA887B691B8919461046FEF794FB18
:1051900003461A467B69DA803B6900221A71BB68B4
:1051A000DB6D002B0CD0BB68DC6DBB681B6EFA7925
:1051B00001933B69009313460122B968F868A04740
:1051C000BB691B899BB2013B9AB2BB691A81BB695F
:1051D000DA88BB695B8919461046FEF76DFB03460A
:1051E0001A46BB69DA80BB691A68BB69DB881B0198
:1051F0001344FB61BB691B899BB2002B03D0FB6985
:10520000DB68002BABDA00BF2437BD4690BDFFFF43
:1052100080B594B000AFF860B9607A60FB70BB688D
:10522000002B06D18C4B8D4A40F6E4018C481EF0D1
:1052300021FAFA78B96813465B0013449B000B44CB
:1052400034331B68002B06D1864B844A40F6E501B7
:1052500083481EF00FFA7B68002B06D1824B7F4AF1
:1052600040F6E6017E481EF005FA7B685B68002B7D
:1052700006D17E4B794A40F6E70179481EF0FAF9EB
:105280007B681B68002B06D1794B744A40F6E80115
:1052900073481EF0EFF9FA7813465B0013449B0045
:1052A0001833BA6813440433FB63FA7813465B007F
:1052B00013449B003033BA6813440433BB63BB6BA5
:1052C0001A68BB6B9B8819460B465B000B44DB00DE
:1052D00013447B637B681B683B630023FB640023F0
:1052E000BB640023BB640BE0BB6CDB003A6B134474
:1052F0009B881A46FB6C1344FB64BB6C0133BB6494
:105300007B685B68BA6C9A42EED3FB6CB3F5804F56
:1053100002D340F6A77309E1FB78BA6814339B0007
:1053200013445B68002B0BD0FB78BA6814339B00E6
:1053300013445B68FA6C9A4202D940F6A773F5E011
:105340007B685A68FB6B5B891946FB6B1B899BB2B8
:10535000CB1A5B009A4202D940F6A573E6E07B685F
:10536000DA687B6B1A60BB6B9A88BB6B1B8919462A
:105370001046FEF7A1FA03461A46BB6B9A8000233B
:10538000BB647B685B683B64FB6B1A68FB6B9B8848
:105390001B011344FB627B685B683A6C9A4208D13C
:1053A0003B6C022B01D9022300E0032387F847302E
:1053B00007E03B6C022B94BF01230023DBB287F88C
:1053C000473007F1100300221A605A609A60DA60D1
:1053D0001A615A619A61FB6C3B627B681B7A03F02D
:1053E0000103DBB2002B14BF01230023DBB287F8DB
:1053F00024307B681B7A03F00203DBB2002B14BF5E
:1054000001230023DBB287F825307B685B7A87F8BD
:10541000263097F8473087F827307B681B7AC3F32C
:105420008303DBB287F82830BB6CDB003A6B134494
:105430001B683B61BB6CDB003A6B13449B887B6150
:105440003B6C012B16D80023BB610023FB613B6C36
:10545000013B3B6422E000BFAC6E02007C700200A6
:10546000C86D02000C6F0200406F0200486F02001E
:10547000646F0200BB6C0133DB003A6B13441B68A2
:10548000BB61BB6C0133DB003A6B13449B88FB614F
:10549000BB6C0233BB643B6C023B3B6407F1100303
:1054A0001946F86AFFF7CEFDFB6B9A88FB6B5B89A8
:1054B00019461046FEF700FA03461A46FB6B9A801F
:1054C000F868FEF7E5FC8B231846FEF77EF9FB6BC8
:1054D0001B899BB201339AB2FB6B1A81F868FEF705
:1054E000D7FC8B231846FEF757F93B6C002B7FF453
:1054F0004BAFFB6B9B88002B06D1FB6B1A68FB6BD9
:105500005B891B01134405E0FB6B1A68FB6B9B88EE
:105510001B011344FB62FA6AFB7822F00302F9686C
:10552000DB010B4403F589531A60002318465037FA
:10553000BD4680BD90B587B002AF786039607B68AA
:1055400003F580539B6803F00103002B34D07B6884
:1055500003F58053D3F86031FB60FB6803F0400330
:10556000002B17D07B6803F580531A4648F240039E
:10557000C2F860313B68DB6D002B0BD03B68DC6D03
:105580003B681B6E019300230093002300223968BF
:105590007868A047FB6803F00103002B0CD07B6800
:1055A00003F580531A4648F20103C2F86031002225
:1055B00039687868FFF7AEFD7B6803F580539B6818
:1055C00003F00203002B34D07B6803F58053D3F83B
:1055D000E031BB60BB6803F04003002B17D07B6851
:1055E00003F580531A4648F24003C2F8E0313B68A5
:1055F000DB6D002B0BD03B68DC6D3B681B6E0193B1
:10560000002300930123002239687868A047BB6813
:1056100003F00103002B0CD07B6803F580531A467E
:1056200048F20103C2F8E031012239687868FFF7D7
:1056300071FD00BF1437BD4690BDFFFF80B500AFC0
:10564000044B1B68044A126811460448984700BF7F
:1056500080BD00BF001C0020FC1B0020000010408B
:1056600080B483B000AF78607B689B6843F002022F
:105670007B689A607B689B6823F002027B689A6073
:1056800000BF0C37BD465DF8047B704780B584B021
:1056900000AF78600023FB6009E00E4AFB6852F817
:1056A00023307A689A4206D0FB680133FB60FB68BE
:1056B000092BF2D900E000BFFB68092B05D9064B86
:1056C000064A822106481DF0D5FFFB6818461037B0
:1056D000BD4680BD8C700200B4700200BC72020036
:1056E000DC70020080B58CB000AFF860B9607A6001
:1056F000BB68002B06D17C4B7C4A40F213117C48DE
:105700001DF0B8FFBB681B68002B06D1794B774AA8
:105710004FF48A7176481DF0ADFFBB681B7A072BEA
:1057200006D9754B714A4FF48B7171481DF0A2FF79
:10573000BB685B7A072B06D9704B6C4A40F2171195
:105740006B481DF097FF0023FB62BB681B68FB6181
:10575000002387F823300023FB84042387F82230BA
:1057600042E07B685A00BB681B6897F8221001FB77
:1057700003F3B2FBF3F301335B08BB84BB8C002B58
:1057800002D10123BB8406E0BB8CB3F5005F02D3DA
:1057900041F6FF73BB8497F82230BA8C02FB03F307
:1057A0007A68B2FBF3F3BB61BB681B68BA699A42C3
:1057B00004D9BB681B68BA69D31A03E0BB681A68CE
:1057C000BB69D31A7B617A69FB699A4207D87B6906
:1057D000FB6197F8223087F82330BB8CFB8497F865
:1057E0002230013387F8223097F82230202BB8D9A5
:1057F000BB681B68424AA2FB03235A0913465B009D
:105800001344FA699A4203D940F22153FB6250E1F2
:10581000F868FFF73BFF03460121184600F0E0FB64
:10582000F862FB6A002B01D0FB6A43E1F868FFF7DE
:1058300017FFFB681B69BB6297F82330032B07D95E
:1058400097F82330072B03D8BB6A43F40033BB62BD
:10585000BB6A23F0F853BB6297F82330013B1B0669
:1058600003F0F853BA6A1343BB62BB6A23F4FF53D5
:1058700023F01F03BB62FB8CC3F30C02BB6A1A4309
:10588000FB681A61FB681B6923F00052FB681A6110
:10589000FB689B6923F4E26323F00703BB62BB68E8
:1058A0001B791A46BB68DB7B1B0203F4E0631A43D7
:1058B000BB689B7B9B0003F004031343BA6A13434A
:1058C000BB62BB685B79012B1CD1BB681B79002BC9
:1058D00004D0BB6A23F40063BB621BE0BB6A43F4E1
:1058E0000063BB6216E000BF4C710200D072020080
:1058F000DC7002005C71020078710200C07102006D
:105900001F85EB51BB681B79002B03D0BB6A43F0AA
:105910001003BB62FB68BA6A9A61FB681B6923F4D7
:105920000053BB62BB68DB795B0303F40052BB6AC4
:105930001A43FB681A61BB685B7A1B04BA68127A67
:105940001A43FB68DA62FB689B6A43F08802FB68D3
:105950009A62FB689B6A43F44042FB689A62574B29
:10596000BB62BB6A43F00043BB62BB6A43F4404383
:10597000BB62FB685A6ABB685B7B1B0103F01001CA
:10598000BB681B7B5B0103F020030B431A43FB68DE
:105990005A62BB689B7A002B05D0FB685B6A43F0B8
:1059A0000802FB685A62BB68DB7A002B05D0FB68F3
:1059B0005B6A43F00102FB685A62BB689B79002B6B
:1059C00004D0BB6A43F00053BB6203E0BB6A23F020
:1059D0000053BB62FB685A69BB6A1A43FB685A6191
:1059E000FB689B69BB62BB6893F82630002B03D031
:1059F000BB6A43F40023BB62BB6893F82730002BDB
:105A000003D0BB6A43F48023BB62FB68BA6A9A6125
:105A1000BB681B8A1A46FB689A64BB685B8A1A4695
:105A2000FB68DA64FB689A6DBB681B7D1946BB682E
:105A30001B7E5B001943BB681B7F9B001943BB683F
:105A400093F82030DB000B431A43FB689A65BB6870
:105A50005B7D9B07BA68D28A1A43FB681A66BB68EB
:105A60005B7E9B07BA68528B1A43FB685A66BB6819
:105A70005B7F9B07BA68D28B1A43FB689A66BB6848
:105A800093F821309B07BA68528C1A43FB68DA6698
:105A9000BB6893F825301A02FB681A65BB6893F857
:105AA0002430002B05D0FB681B6D43F00F02FB6810
:105AB0001A65FB6A18463037BD4680BD00001F409E
:105AC00080B582B000AF78607B68002B06D1204B98
:105AD000204A40F23D2120481DF0CCFD2822002123
