:10000000000006202D03000001030000050300008E
:10001000090300000D030000110300001503000098
:10002000000000000000000000000000E1C301002B
:100030001D0300000000000071C301008DC001001D
:100040008D3F0000953F00009D3F0000A53F000050
:10005000AD3F0000B53F0000BD3F0000C53F0000C0
:10006000CD3F0000D53F0000DD3F0000E53F000030
:10007000ED3F0000F53F0000FD3F0000054000009F
:100080000D400000154000001D400000254000000C
:100090002D400000354000003D400000454000007C
:1000A0004D400000554000005D40000065400000EC
:1000B0006D400000754000007D400000854000005C
:1000C0008D400000954000009D400000A5400000CC
:1000D000AD400000B5400000BD400000C54000003C
:1000E000CD400000D5400000DD400000E5400000AC
:1000F000ED400000F5400000FD400000054100001B
:100100000D410000154100001D4100002541000087
:100110002D410000354100003D41000045410000F7
:100120004D410000554100005D4100006541000067
:100130006D410000754100007D41000085410000D7
:100140008D410000954100009D410000D52E00002A
:10015000A5410000AD410000B5410000BD410000D7
:10016000C5410000CD410000D5410000DD41000047
:10017000E5410000ED410000F5410000FD410000B7
:10018000054200000D420000154200001D42000023
:10019000254200002D420000354200003D42000093
:1001A000454200004D420000554200005D42000003
:1001B000654200006D420000754200007D42000073
:1001C000854200008D420000954200009D420000E3
:1001D000A5420000AD420000B5420000BD42000053
:1001E000C5420000CD420000D5420000DD420000C3
:1001F000E5420000ED420000F5420000FD42000033
:10020000054300000D430000154300001D4300009E
:10021000254300002D430000354300003D4300000E
:10022000454300004D430000554300005D4300007E
:10023000654300006D430000754300007D430000EE
:10024000854300008D430000954300009D4300005E
:10025000A5430000AD430000B5430000BD430000CE
:10026000C5430000CD430000D5430000DD4300003E
:10027000E5430000ED430000F5430000FD430000AE
:10028000054400000D440000154400001D4400001A
:10029000254400002D440000354400003D4400008A
:1002A000454400004D440000554400005D440000FA
:1002B000EC35020000000020E8070000EC350200E9
:1002C0000000000400000000EC35020000000620E1
:1002D00000000000EC35020000A00B400000000010
:1002E00000080020543704000000000464030100EB
:1002F000000006200000000000A00B4000000000ED
:10030000FEE700BFFEE700BFFEE700BFFEE700BF5D
:10031000FEE700BFFEE700BFFEE700BFFEE700BF4D
:10032000FEE700BFFEE700BFFEE700BF72B61C4B52
:100330001C4A20480360196881F3088882F30A8800
:1003400004F092F81849194A91420DD2D1E90045BA
:1003500088680C310028F7D00023E658EE500433AB
:100360009842FAD89142F1D3114DA94213D20024F8
:10037000013D6D1A01F1100325F0070508311D44F8
:1003800051E9020222B10023C45004339A42FBD83F
:100390000831A942F4D162B600F02CF8FEE700BFA4
:1003A0000000000000F00520B0020000E0020000A4
:1003B0000003000008ED00E04AF6012300B583B019
:1003C00001A90120ADF8043018F0D2FF19F0E2FACB
:1003D000FA2017F0E3FD19F0E7FA00214FF0FF30A3
:1003E00019F05EFBF9E700BF18F038BE18F026BF21
:1003F000704700BF30B583B01CF0F2FF02F06AFB1B
:10040000464B4748D3F8804021461CF0DDFEE50707
:100410005BD4A0077DD4610777D4E20571D4A3052E
:100420006BD4250565D4E0045FD4A10459D46204DB
:1004300053D423044DD43B481CF036FF3A4A4021A4
:100440003A481CF0C1FE3A4800230246394C83EA80
:1004500004010133402B42F8041FF8D10022134657
:10046000344D50F8044F83EA05018C4203F1010337
:1004700018BF0132402BF4D12F4B30493048002AAD
:1004800018BF19461CF0A0FE02F04EFC002100240B
:100490000925084609F0E0FC002002F055FBCDE9F3
:1004A000005402254FF4007223462649264817F0CF
:1004B00021FB4FF4C06223462449CDE9005424486F
:1004C00017F018FB17F056FCFEE722481CF07CFEE4
:1004D0009FE721481CF078FEADE720481CF074FE31
:1004E000A7E71F481CF070FEA1E71E481CF06CFE39
:1004F0009BE71D481CF068FE95E71C481CF064FE55
:100500008FE71B481CF060FE89E71A481CF05CFE70
:1005100083E719481CF058FE7DE700BF00800440C7
:100520008CF9010034FA01000000000438FA0100DF
:10053000FCFFFF030000A5A550F9010074F90100BC
:1005400068FA010090FA0100B9030000C8FC01003C
:10055000B1170000B8F9010028FA01001CFA0100E7
:1005600010FA010004FA0100ECF90100E0F90100C1
:10057000D8F90100C8F90100C0F901000D4A0E4B7D
:10058000D2F864119A68C1F30A0002449A600A041E
:1005900002D5DA680132DA60084A1968D2F8342DD7
:1005A0005868C2F30A0CC2F30A4261440244C3E928
:1005B00000127047001010408C1B002000001040FB
:1005C00010B40468087811781A7823465DF8044B53
:1005D000184700BF0368087811781847704700BFB4
:1005E000704700BF074B186850B1002200B583B0B8
:1005F00002231146009218F0F3F903B05DF804FBF2
:10060000704700BFBC1B0020014600B5CBB283B0D1
:100610000093C1F30742C1F307230348090E1CF0FE
:10062000D3FD03B05DF804FB98FA010010B50A4C45
:10063000226802B910BD92B20020084903F016FBEF
:10064000074A28B9136B013313630023236010BDDD
:10065000D36A0133D362F8E71008002014080020A1
:10066000EC100020FFFFFFFF2DE9F04FD1071446EB
:1006700087B000F19F80A20700F18D80630761D5EC
:10068000554D2B78002B60D14FF0070AD346534DC0
:1006900000260127B0465FFA8BF40DF11409CDE96D
:1006A0000388CDF81480F3B2002E56D1BBF10E0FA3
:1006B0002A786AD84A4AA95DBC4202EB012202921A
:1006C0005BD9691C895D02330A44DBB202920DF1E9
:1006D000080C0196591C9A1CA342C9B2D2B222D26C
:1006E000E85CDCF8046003F1030E06EB00608C426A
:1006F0005FFA8EFECCF8040003F1040343D9695C71
:10070000944200EB0140DBB2CCF8040039D9AA5C7A
:10071000744500EB0220CCF8040030D915F80E2007
:100720000244CCF804200CF1040CCC45D2D1019E3B
:100730000422002002A90E3603F098FA0E37B245C3
:10074000FFB2ACDC07B0BDE8F08F28461CF09EFE7F
:100750008346824600289BD1F4E7224A224806F1CC
:100760000D015145B8BF02469C420292AFD9A95D26
:10077000BC4202EB01220292A3D83B46A7E7734694
:10078000D1E71346CFE70B46CDE7120202F17442E0
:1007900002F5403295E74FF4FA054FF4803300201C
:1007A000124A02A902920422CDE90350059303F0F4
:1007B0005DFA63E7002006A7D7E90067042202A9D3
:1007C000CDE90400CDE9026703F050FA53E700BF1A
:1007D000010101F000030001F0150020A4FA01005E
:1007E000000003F0000003FC000003F8000002F02A
:1007F0000138C0B2FD2848D970B5CA070C4684B08C
:1008000035D4A30701D404B070BD00216A4601238A
:100810002548CDE90111254C00900DF10C0E0391F6
:10082000991C122BC9B218D8581CC0B2E65C255CC2
:10083000506803F1030C00EB0660043300EB054045
:1008400013295FFA8CFCDBB250601FD0655C14F892
:100850000C1001EB05210144516004329645DFD1B3
:1008600004226946002003F001FA04B070BD0020A4
:100870009FED0B7B042269468DED007BCDE90200E4
:1008800003F0F4F9A307BED5BFE77047131D9E45DB
:1008900002F10802E4D09645E2D00B46DDE700BF46
:1008A000038011F0000001004E0012F4ACFA0100C8
:1008B000012A02D1016000207047002AFBD10260AA
:1008C000F9E700BF012A02D1016000207047022A27
:1008D00005D0032AF9D0002AF7D10260F5E70B68AA
:1008E0000360F2E7012A02D1016000207047022A6A
:1008F00005D0032AF9D0002AF7D10260F5E70B688A
:100900000360F2E7924B2DE9F04F924F5E68924BF5
:1009100087B01C78BB6A92460133BB62B4B18F4B7F
:10092000186828B192B208F0D9FE002840F09981E9
:100930008B4A1368013313608A4B854A59685268A1
:100940000A44961B5E6007B0BDE8F08F20468B46D8
:1009500003F062F9002800F06E81BAF1000FEBD0CD
:100960002546009403965BF825304FEA85081A0F58
:100970000C2A00F29180DFE802F007070742428F5D
:1009800007074242428383006E1CB2451BD34FF0DF
:100990000109002003F05CF9734B04EB09021B68AA
:1009A000984200F29E80002A40F0A4805BF8083054
:1009B000190F032900F08580052900F08280144674
:1009C0003546B245CFD8039E002CB5D0664D2B6876
:1009D0002344B3F5007F00F25381009BB4F5007F00
:1009E0000BEB830140F242810020A2B203F03EF9FA
:1009F000002800F02081FB6A0133FB629CE7AE1CFB
:100A00005645E0D8032A40F0738101218E4600212B
:100A10004FF002090291190E0191C3F3036153488B
:100A200010F821C0BCF1000FB3D0AEF1020CBCFA3B
:100A30008CFC00EB8101704691F802E04FEA5C1CEF
:100A4000E645A6D1022821D0002C00F09180464B2B
:100A50001B682344B3F5007F00F21581009BB4F5B9
:100A6000007F0BEB830140F2CE800020A2B203F0A6
:100A7000FDF8002840F0F1803B6B01333B63CDE093
:100A8000EE1CB2459FD34FF0030982E7C978029864
:100A900081427FF47EAFD7E72E1DB24593D3052A5E
:100AA00018BF4FF004097FF474AF0221C3F307208D
:100AB0008E46190E01914FF00409C3F303610290B1
:100AC000ADE70921C3F30360C3F3035321FA03F332
:100AD000DB077FF574AF4FF00001244B23F82010A3
:100AE0006DE7C01A904205D3002C7FF45FAF4A46F1
:100AF00000955BE7ACB12344B3F5007F00F2C680FC
:100B0000009BB4F5007F0BEB830140F2988000203E
:100B1000A2B203F0ABF8002840F0BB803B6B01337E
:100B20003B63002003F094F80F4B1B68984265D894
:100B30003B6B5BF8082001333B63130F032B00F082
:100B4000B380052B00F0CA803546002439E700BF8A
:100B5000001000E0EC1000201C100020AC1600205B
:100B60001410002074100020100800202010002015
:100B70003968032A01F10101396037D00224019A52
:100B8000C3F3035002F00F02C3F307235A4D15F8C5
:100B900022100029D8D00921C140C907D4D500208E
:100BA00005EB8201497825F822000029CCD0022CDF
:100BB0004FEA026271D042F0405242F440120024E7
:100BC00020460492059403F043F84C4B1B6898426E
:100BD000BAD9C01A0128B7D0FFF728FD0222204653
:100BE00004A903F043F8AFE71A0E0192019AC3F388
:100BF00003500124002302F00F02C7E7C01A484542
:100C0000BFF475AF94E73D4B3D481D68A20000EB73
:100C100085001CF02EFC394B25441D603A685BF8BA
:100C2000083001323A601A0F032ADDD0052A8BD131
:100C30001A0E0192A2E73B6B01333B637CE62F4B1C
:100C40002F481B68A20000EB830001931CF011FCED
:100C5000019B2A4A2344136063E7FB6A0133FB626A
:100C6000DCE7284A13680133136065E62F682448DF
:100C7000A20000EB87003C441CF0FBFB2C605BE611
:100C8000FFF7D4FCA9E6FFF7D1FCE7E6FFF7CEFCBF
:100C900036E7FB6A0133FB6243E742EA032242F094
:100CA000A04242F444128AE701230021C2F3036008
:100CB000C2F30354D4B1A3F10202013CB2FA82F2AE
:100CC0004FF0010518BF01240B4B520903F82050C7
:100CD00003EB80039A70D9705C7035E70223C2F38E
:100CE0000360C2F30354C2F30721E3E7354668E625
:100CF0004FF002094DE600BF201000201008002030
:100D00001408002018100020D0F8CC3110B504468B
:100D100023B100F5E271032208469847D4F8BC31AC
:100D200023B104F5DA71032208469847D4F8AC31B0
:100D300023B104F5D271032208469847D4F89C31B8
:100D400023B104F5CA71032208469847D4F88C31C0
:100D500023B104F5C271032208469847D4F87C31C8
:100D600023B104F5BA71032208469847D4F86C31D0
:100D700023B104F5B271032208469847D4F85C31D8
:100D800023B104F5AA71032208469847D4F84C31E0
:100D900023B104F5A271032208469847D4F83C31E8
:100DA00023B104F59A71032208469847D4F82C31F0
:100DB00023B104F59271032208469847D4F81C31F8
:100DC00023B104F58A71032208469847D4F80C3100
:100DD00023B104F58271032208469847D4F8FC3009
:100DE00023B104F1F401032208469847D4F8EC300B
:100DF00023B104F1E401032208469847D4F8DC301B
:100E000023B104F1D401032208469847D4F8CC302A
:100E100023B104F1C401032208469847D4F8BC303A
:100E200023B104F1B401032208469847D4F8AC304A
:100E300023B104F1A401032208469847D4F89C305A
:100E400023B104F19401032208469847D4F88C306A
:100E500023B104F18401032208469847E36F23B1CC
:100E600004F17401032208469847E36E23B104F1AC
:100E70006401032208469847E36D23B104F154014D
:100E8000032208469847E36C23B104F1440103228E
:100E900008469847E36B23B104F134010322084666
:100EA0009847E36A23B104F12401032208469847D6
:100EB000E36923B104F11401032208469847204650
:100EC00010BD00BF836810B5044613B1032201466C
:100ED0009847204610BD00BF074B186850B100224C
:100EE00000B583B002231146009217F079FD03B0DC
:100EF0005DF804FB704700BFBC1B00200023C0E965
:100F00000033C0E90233C0E90533C0E90733C0E963
:100F10000933C0E90C33C0E90E33C0E91033C0E92E
:100F20001233C0E91433C0E91633C0E91833C0E9FD
:100F30001A33C0E91C33C0E91E330374C362C0E92D
:100F40002033C0E92233C0E92433C0E92633C0E9A5
:100F50002833C0E92A33C0E92C33C0E92E33C0E975
:100F60003033C0E93233C0E93433C0E93633C0E945
:100F70003833C0E93A33C0E93C33C0E93E33C0E915
:100F80004033C0E94233C0E94433C0E94633C0E9E5
:100F90004833C0E94A33C0E94C33C0E94E33C0E9B5
:100FA0005033C0E95233C0E95433C0E95633C0E985
:100FB0005833C0E95A33C0E95C33C0E95E33C0E955
:100FC0006033C0E96233C0E96433C0E96633C0E925
:100FD0006833C0E96A33C0E96C33C0E96E33C0E9F5
:100FE0007033C0E97233C0F8D031704710B5044691
:100FF0004FF4DB61FFF7FAF9204610BD38B50D4D0F
:101000000D4C284605F084FC224628460B490C4D21
:101010001CF020FA22460B490B481CF01BFA28460C
:10102000FFF76CFF22462846BDE8384007491CF010
:1010300011BA00BF0001000400080020BD680000D4
:10104000B0160020E105000048000020090D000056
:1010500038B5134C14F0F8F8237883B9114B124AC1
:101060001249134801F012FE054614F00BF955B968
:1010700010481CF019F90123237014F0E5F801F071
:10108000F3FD14F0FFF80C4805F010FC08250022D1
:101090000A490B4B0B4C086025601A7038BD00BF25
:1010A0004400002004000020140000202400002040
:1010B00034000020C0FA0100000100040C080020E8
:1010C00008080020A8160020F0B55B480C46A5B023
:1010D00005F0ECFB052C014610D8584B584D53F841
:1010E000242058481CF070F82968002971D0032C7E
:1010F0000CD10122544B1A7025B0F0BD504D534A0B
:1011000050481CF061F829680029F5D006A808F0BD
:1011100013FB47F23053239A1A9C04931B9B4C48B1
:10112000CDE90232DDE91832CDE90024DDE91612FD
:10113000219E229F1CF048F8464B47489B6A1C9909
:101140000193209B0093DDE91D231CF03DF856EA36
:10115000070304D03A46314640481CF035F8404970
:101160004FF48062D1E988133E481CF02DF83E4BC5
:101170001A688ABB002CBFD0286808F003FB4528FA
:10118000014653D845282ED8DFE800F04E4C4A4897
:10119000464442402D2D2D2D2D2D2D2D2D2D2D2D27
:1011A0002D2D2D2D2D2D2D2D2D2D2D2D2D2D2D2D6F
:1011B0002D2D2D2D2D2D2D2D2D2D2D2D2D2D2D2D5F
:1011C0002D2D2D2D2D2D2D2D2D2D2D2D3E3C3A3817
:1011D0003634032C8DD08FE7196824481BF0F4FFB8
:1011E000002C89D0C8E7224A224825B0BDE8F0404B
:1011F0001BF0EABF204AF7E7204AF5E7204AF3E769
:10120000204AF1E7204AEFE7204AEDE7204AEBE7E2
:10121000204AE9E7204AE7E7204AE5E7204AE3E7F2
:10122000204AE1E7204ADFE7204ADDE7104A204B69
:10123000802808BF1A46D7E700010004842E020068
:10124000AC160020D0FC0100A4160020ACFE01006A
:10125000F0FC0100EC10002064FD0100B0FD010075
:10126000000101040CFE0100C01B002048FE01002B
:1012700014FB010084FE010080FC010058FC010009
:101280002CFC010000FC0100CCFB0100A0FB0100D4
:1012900090FB01007CFB010064FB01005CFB010092
:1012A0003CFB010030FB0100B8FC0100FCFA01002E
:1012B000A4FC010010B50446164805F085FD002287
:1012C000154B1A7044B9154B196899B9144B1B7812
:1012D0004BB114481BF0E8FF13481BF075FF0A22BE
:1012E000124B1A6010BD12481BF0DEFF0C220F4B90
:1012F0001A6010BD0F481BF067FF09220B4B0E4808
:101300001A6005F0D3FA01220C490D4B08601A70DF
:1013100010BD00BF4800002030110020381100200F
:101320009C1600202CFF010084FF0100A81600205D
:10133000B0FE010054FF010000010004141600205B
:101340001016002038B51B4C2068002831D008F05A
:1013500015FAB0B9256835B1284607F06FFD0421AC
:101360002846FFF743F800231349144A1448236022
:101370000B70136005F078FCBDE83840114805F0AB
:10138000E3B9206807F0E0FDC82509E0206807F010
:101390001DFEFFF74BF9012016F000FE013DD9D0EC
:1013A000206808F0EBF90028F0D12568002DD3D192
:1013B000D9E738BDAC160020A4160020A0160020E6
:1013C000480000200001000470B500250446B6B0B6
:1013D000FFF7B8FF224A234E10782349234B0D70A4
:1013E000A84218BF134694E803003060B1806E46EF
:1013F00040211F4A03A81BF0FDFC8C221D4913A8A5
:101400001CF037F803A9612213A81BF099FF2922C9
:1014100019490DF1AE001BF093FF184B93E807003C
:1014200086E807000420FEF7DFFF3346064613AACE
:10143000134907F049FC13482B46214641F28D32EF
:101440000660304607F02CFD0F481BF02DFF0C22E4
:101450000E480F490F4B05600D701A6036B070BD15
:10146000F0150020E4150020A5160020A4FA0100C4
:1014700090FF01009C2E02009CFF0100282F02001B
:1014800000010004AC160020B4FF01001816002073
:101490001C160020A816002030B5A34D04462B686A
:1014A0000278013B83B00A2B1FD8DFE803F02C063B
:1014B000465D656D751E7C8A2000002A40F0F7802D
:1014C0009A4B9B4A19789B4B9B4800290CBF1146AD
:1014D00019461BF079FE032398482B6005F0E6F9C6
:1014E00001229749974B08601A7003B030BD002A5B
:1014F00040F0F28041F28C339348838003B0BDE822
:101500003040FFF761BF632A00F0C98000F2AF806E
:10151000432A00F0C480482A00F0C580002A40F029
:10152000A8808A4B8A4A19788A4800290CBF11463C
:1015300019461BF049FE0223CEE7642A00F0A7807B
:1015400000F29180442A00F0A280532A00F0A38088
:10155000002A40F08A80754B1B78FBB97E497F4892
:101560001BF032FE0423B7E7002A55D17C497D48A1
:101570001BF02AFE0523AFE7002A3FD17A497B48BA
:101580001BF022FE0623A7E7002A5FD1784979489D
:101590001BF01AFE07239FE7002A4AD103B0BDE8DB
:1015A0003040FFF755BD744B1B78DBB9734B302AC5
:1015B000196800F2A380724803B0BDE830401BF008
:1015C00003BE2AB96F4803B0BDE830401BF0FCBD34
:1015D00001A90EF00FFA002840F082806A481BF043
:1015E000F3FD82E702F0DF00A0F14D00B0FA80F0D9
:1015F000400903B0BDE83040FFF75CBE01A90EF022
:10160000F9F9002837D0564B0F22214618461BF017
:1016100097FE0022C273B1E701A90EF0EBF980B387
:101620004D4B0F22214618461BF08AFE0022C27342
:101630009CE701A90EF0DEF930B34D4B0F22214695
:1016400018461BF07DFE0022C273A7E701A90EF029
:10165000D1F998B1444B0F22214618461BF070FE79
:101660000022C27392E7732A15D04848ABE7682A74
:1016700019D04748A7E73A4946489DE73A494648BE
:101680009AE73549454897E73949454894E70122A3
:10169000264B1A7082E70022244B1A705EE7002264
:1016A000404B1A703DE701223E4B1A7039E7274B39
:1016B00001461F2218461BF043FE00210278C17725
:1016C000002A3FF4FDAE2D23202A08BF037010F836
:1016D000012F002AF8D1F3E61BF02AFA83B20BE7B8
:1016E00001980BF0FDFA0246174B41F28C312E485F
:1016F0001A601BF069FD0B232B60F6E601F1300345
:1017000093420ADA02F0DF024D2A7FF454AF1D48FB
:101710001BF05AFD0A232B60E7E69420234B313A55
:1017200000FB0230EAE600BFA816002044000020BB
:10173000F0FF0100C01502002C00020000010004AF
:101740001416002010160020DC150020F0150020D3
:10175000A4FA010010000200340000207C00020006
:1017600024000020D4000200140000202C010200FC
:1017700004000020840102003011002038110020F4
:1017800054FF010084FF0100DC0102006000020040
:10179000F4FF0100EC00020044010200940002008A
:1017A0009C010200A5160020F80102003C11002057
:1017B0002DE9F04F00259849984CD1F8FC20984B22
:1017C000984E42F08072D7B0C1F8FC20D4F8EC708B
:1017D000C4F8EC605D601A68934842F001021A6038
:1017E000D4F8F030CDE9325790493493319031AA92
:1017F000C4F8F010CDE92105249192E803001EAA57
:1018000004F1E40382E8030093E8030031AA82E8CC
:1018100003001EAA92E8030083E8030031A8239680
:10182000FFF750FB21A8FFF74DFB8149814B824A0E
:10183000CDE93115CDE92323CDE92115D4F8FC10EC
:10184000C4F8FC20D4F800213391349231AA92E8F4
:1018500003001EAA82E80300C4F8003131AA04F193
:10186000F40393E8030082E803001EAA92E8030051
:1018700083E8030031A8FFF725FB21A8FFF722FB2F
:101880006E4B6F4AE16DCDE92323E265226E23663C
:10189000543431AB34923391CDE91E5594E80300B2
:1018A00083E803001EAB93E8030084E8030031A83B
:1018B000CDE92155FFF706FB21A8FFF703FB16F042
:1018C000C7FE02465F496048604B086060481A6086
:1018D0001BF0EAFC5F4960481BF076FC5F481BF098
:1018E000E3FC5F4B5F4A19785F4B6048A9420CBF2D
:1018F000114619461BF068FC5D4A5E4B11785E4844
:10190000A94208BF1A4611461BF05EFC5B4B1B78D0
:10191000002B00F0C4855A481BF0C6FC504B1B78C6
:10192000002B00F0A985574B119357481BF0BCFCC6
:10193000032156481BF048FC554804F0B7FF00232C
:10194000544A554E1060554AB346554FDFF8CCA067
:1019500013600F962BBB01F067FA0028C0F262817A
:101960000124504B50481C701BF09EFC3C494F4AD0
:101970004F4B09784F4800290CBF114619461BF000
:1019800023FC464B42481C6004F090FF4A4B1C70FD
:101990004A4B1860012016F001FB404B1B68002BDE
:1019A000D9D0082B00F0F882092B00F0D282002554
:1019B0001B4B0F9ED3F80480CDF84080002002F02E
:1019C0002BF9002800F0BA80002002F033F900283B
:1019D00000F0B480402D00F0B180394B186820B180
:1019E00007F0CCFE032800F00A8196F820000135AC
:1019F000031D082B40F2BE800E9535462A68120F53
:101A00000C2A00F2A180DFE802F05D5D5D8E8E9F02
:101A10005D5D8E8E8E9D9D0000ED00E0B016002075
:101A2000001000E0E508000069060000C1050000A4
:101A3000F1070000D5050000C5080000DD05000025
:101A4000B1080000B4650020E5050000BC1B0020C3
:101A5000340302009CFF01006403020074030200CF
:101A6000A5160020140202000C02020090030200DE
:101A7000F0150020A4FA0100A00302004400002099
:101A8000B0030200E415002010040200400402002C
:101A900000010004EC15002088100020A81600208A
:101AA000EC1000209C160020B0040200200202006E
:101AB0001C020200D8040200101600201416002098
:101AC000AC160020012605EB8604D9465D464FEA98
:101AD000860859F8041B504619F060F94C45F8D1B6
:101AE000DBF80010090F0F2909D0574B186818B1FF
:101AF00007F044FE032831D0396A013139629BF87E
:101B00002040B44222D95149D8440B1D03EB840C28
:101B100058F8043BC44541F8043FF9D1A41BE0B296
:101B20008BF820006AE70226B042CCD200202E4675
:101B30000E9D02F071F800287FF446AFDDF840807A
:101B40000F96A3E00326EFE70426EDE74FF000022F
:101B50003F4B2E4683F820200E9D2FE73A4B32460E
:101B60003B49186807F0BAFD002879D0B9690131FE
:101B7000B961C4E70422002031A902F003FA10F091
:101B8000FF0205D196F8200000283FF417AF33E795
:101B90007968319B01317960B9681B0F1144023BB0
:101BA000B9600D2B0BD8DFE803F0220722070A0AE1
:101BB0000A0A0A0A0A0A0A263B6901333B6196F8B7
:101BC000200081180829DFD831AB03EB820294464C
:101BD00053F8042B46F82020634500F10100C0B201
:101BE000F6D1C8B20E9586F82000354606E7FB68A8
:101BF0000133FB60E3E77B6901337B61DFE7124B75
:101C0000186807F0ABFD00287FF4EFAE02F012F881
:101C100000283FF4EAAE7B6ADDF8408001330F967E
:101C20007B6233E00B4804F041FE40F6B7320A4BCA
:101C30001B68C31A93427FF6ADAE08481BF034FB15
:101C4000FFF706FAA6E600BFAC16002084100020BD
:101C50008810002000010004EC150020FC040200A4
:101C6000F969A14B0131F9611968814631449F48F6
:101C700019600F95DDF840800E9D04F017FE9C4B17
:101C80001968411AB1F57A7F80F0208299499A4B00
:101C90008A685B681344A3EB08038B60BB6BAB42A1
:101CA0007B6B38BFBD6301337B63FEF767FC924BF0
:101CB000904A5B681361914B93F80080B8F1000F74
:101CC00040F04381894804F0F1FD8D4B1A68821A77
:101CD000B2F57A7FC0F0398118608A4D8A4B21AC09
:101CE000D3F834900FCD0FC40FCD0FC40FCD0FC458
:101CF00095E8070084E807003C22834921A8CDF835
:101D0000B8901BF0D9FA002800F01C81794B1C69AF
:101D10007E4B1B69E41A40F035837B6B7C4AA3EB56
:101D200009030B93BB6B794C0C93D2F81C32714DA9
:101D30000A93D2F8183209933B6808933B6B0793D8
:101D4000FB6A0693BB6A05937B6A04933B6A039321
:101D5000FB6902930FCD0FC42B686E482360BB69EB
:101D600001937B690093D7E9032379681BF02CFA70
:101D7000694B1B78002B40F0FD82684BD3F800C004
:101D8000BCF1000F36D0614631A807F0D5FCDDE983
:101D90003112DDE9333441EA0200389D1843DDF8A1
:101DA000E4C02043DDF8E8E02843DDF8EC8040EAB9
:101DB0000C0040EA0E0050EA080007D0CDE903E825
:101DC000CDE9015C564800941BF0FEF947F2305310
:101DD00004934E9B41990393469B52480293459B23
:101DE0000193449B0093DDE942231BF0EDF94B4B3B
:101DF000D3F800C0444C434D0FCD0FC40FCD0FC4DA
:101E00000FCD0FC495E8070084E80700BCF1000F70
:101E100032D0384B384C60465E68D4F80480BD6AD6
:101E200007F0D4F8D4F80490FEF700FC314863685A
:101E300002681344A3EB08030360BB6AAB420BD0F8
:101E4000394CA9EB080221688A4205D95B1BA360C3
:101E5000436822609B1B6360304B186807F08EFC60
:101E6000324B1A7842B138B9314B1B7823B9314B18
:101E70001B680C2B00F041832F4B1B7853B11B4880
:101E800004F014FD4EF65F222C4B1B68C31A9342DC
:101E900000F2268100F0C8FF0346002B1EDB254A16
:101EA00012680C2A00F05A81002223490D2B0A7077
:101EB00022490A6000F045810A2B00F04281082B7C
:101EC00000F033817F2B00F03081A3F120025E2AE5
:101ED00004D81B4A12687E2A40F30783012200209F
:101EE000114616F0C9FC58E52C1100200001000431
:101EF0002811002074100020001000E000000020D5
:101F0000AC100020EC100020B01000206010002069
:101F100000010104840702001C100020AC16002000
:101F20005C080200C4080200501B0020A516002017
:101F3000A4160020A8160020101600201416002059
:101F4000181600207B6BBB4A5363BB4BD3F800C011
:101F50005CE7BA4B1B78002B3FF429AD9424B849B9
:101F6000224631A81BF085FAB64831A904F060FE7C
:101F700020B1B54B1868072840F39F82B34804F09E
:101F800095FCB34B1B68C31AB3F57A6FFFF40FAD22
:101F90000020FFF78FF90AE513F056F9AD4B1868EA
:101FA0000CF07AFF8146002800F029824FF00008EB
:101FB000A84BA94A1B68127893F84D5005F001040C
:101FC000002A45D0002C00F01582B9F1000F3ED058
:101FD0005B681C9313F056F91CA80DF00BFE9E4B8A
:101FE00001461B78002B00F003829C4A9C4BB8F101
:101FF000000F18BF1A469B481BF0E6F89A4B1B7857
:10200000002B40F05B81994B1B7823B9119B9B8877
:10201000002B40F01F8200238B4A04211360012310
:10202000864A934813701BF0CFF892481BF03CF996
:10203000844804F0DBFE002800F03B82834804F073
:1020400035FC834B8C4A186009231360A2E4444694
:102050005B681C9313F016F9002CBDD17B4804F08B
:1020600025FC41F28732854B04461E461B68C31A85
:10207000934210D9824B784A15F0040F10788149A9
:10208000814A18BF1946754B002818BF1A467F4869
:102090001BF09AF83460704B1B78002B3FF47AAC3D
:1020A00047F22F527A4B1B68E31A93427FF672ACC9
:1020B000784B1B78002B00F0D281754B1C6013F01D
:1020C000C3F800F0D1FD13F0DDF863E41860724B43
:1020D00072481C4619681BF077F8C4F80090D5E5E3
:1020E00000236F4A1370644B1B68013B082B3FF6BB
:1020F000F5AE01A252F823F02F24000021240000A5
:10210000132400001D2100001D2100001D210000DE
:102110001D210000DD1E00003D24000061481BF071
:10212000C3F86148FFF7B8F9D8E6604B1B68002B8D
:102130007FF7D4AE5D4A013B5D4813601BF044F865
:10214000CCE60024594D5B4A2B685B48D4541BF005
:10215000ABF85848FFF7A0F92C60BFE61B2B00F046
:102160002984433B2E2B3FF6B9AE2E2B3FF6B6AE5D
:1021700001A252F823F000BF81290000DD1E0000FB
:10218000DD1E0000DD1E0000DD1E00006D260000CB
:10219000DD1E0000DD1E0000DD1E00005B250000CE
:1021A000DD1E0000DD1E0000DD1E0000DD1E000043
:1021B0003F250000DD1E0000DD1E0000DD1E0000CA
:1021C000DD1E0000DD1E0000DD1E0000DD1E000023
:1021D000DD1E0000DD1E0000DD1E0000DD1E000013
:1021E000DD1E0000DD1E0000DD1E0000DD1E000003
:1021F000DD1E0000DD1E000081290000DD1E000044
:10220000DD1E0000DD1E0000DD1E00006D2600004A
:10221000DD1E0000DD1E0000DD1E00005B2500004D
:10222000DD1E0000DD1E0000DD1E0000DD1E0000C2
:102230003F250000B0100020AC1600203011002017
:10224000342F020048000020381100200001000453
:1022500034110020C40801204400002024020200A0
:102260003402020028050200A51600209C1600205A
:102270005C050200A4050200A81600200408002046
:10228000480202004C0202005402020060060200F2
:102290000C080020080800202C110020EC06020089
:1022A000101600208009020080FE01001816002090
:1022B000340E02001C160020F8FA0100FFF742F865
:1022C0000123AF4A21A81370AE4BAE4A1978AE4B2A
:1022D000002918BF13464021AC4A1AF08BFD8C220E
:1022E000AB4931A81BF0C5F8612221A931A81BF028
:1022F00027F82922A7490DF593701BF021F8A64B6A
:1023000093E807001EAB83E807000420FEF76CF893
:102310000446A2491EAB31AA06F0D6FCA04841F201
:102320008C31A04A00230460204606F091FD12F093
:102330008BFF9D4B1B685B681D9312F0A3FF1DA8CC
:102340000DF058FC41F28C32014698481AF03CFFDF
:1023500097481AF0A9FF914804F0A8FA0C22954B6F
:102360009549186000230A60944A1360944A1370D8
:10237000FFF710BB934B94481A68944B19681AF0F6
:1023800023FFFAE46425924A924B164698689368B4
:102390002246C01AA0FB050143461AF00FFA8D4BE6
:1023A0008146586873682246C01AA0FB050143465F
:1023B0001AF004FA874A4346804610683268864E0F
:1023C000801AA0FB0501854D22461AF0F7F92D6809
:1023D0004B46A6FB05C5AD09B4FBF5F401464246E4
:1023E0007F4800941AF0F0FE7E4BD3F8349094E4CA
:1023F0007D4A00E65B681C9312F044FF2EE66A4BB0
:1024000018680BF033FAB0F1000818BF4FF001085C
:10241000CEE576481AF048FF7548FFF73DF85DE5D0
:1024200074481AF041FF7448FFF736F856E57348D0
:102430001AF03AFF7248FFF72FF84FE5714B1B680F
:10244000002B40F3D88270481AF02EFF6F48FFF738
:1024500023F843E56E48FEF7B7FFFFF79BBA012369
:102460006C4A6D4813701AF01FFF12F0EDFE00F079
:1024700007FC12F007FF20E6654B11939B88002BA9
:102480003FF453AA65481AF09FFE119C2068FEF79E
:10249000BBF8A18862481AF097FEFFF746BA614B75
:1024A000614A00936149624B62481AF08DFEFFF762
:1024B00035BA61481AF0F8FEC0E5604B451C04FBD4
:1024C0000030504B224631A91D601AF0D2FF294638
:1024D00033AA5B481AF078FE3198FEF795F8BDF8FC
:1024E000C8104F481AF070FE48E535498B54334BFD
:1024F00001321A601AF07AFEF0E4284804F0D6F9A6
:102500002C4B04461B68C31AB3F57A6FFFF4B4ACC6
:1025100012F09AFE244B1B685B68319312F0B2FEF6
:1025200031A80DF067FB474B0146D3F8183241F252
:102530008C3245481AF048FE1E4B1C609CE4434A0E
:1025400043491378434883F001031370424A002B38
:1025500018BF11461AF038FEC0E400223F49404837
:102560000B7883F001030B703E49934208BF01468C
:10257000144B3D481A60154B1A601AF025FEADE465
:10258000A5160020F0150020A4FA0100380502006D
:102590009C2E02009CFF0100282F02000001000475
:1025A000AC16002048000020C408012040050200AD
:1025B000B4FF0100A0160020A81600201816002065
:1025C0001C160020141000203808020018100020EB
:1025D0006010002074100020D34D621060070020AE
:1025E00030070200B01000202C0202007409020023
:1025F000C01502005409020080FE010068090200B3
:102600001C0202003811002098090200B0FF0100EE
:10261000E41500200808002084060200FC030200E4
:1026200008040200040000202400002034000020E0
:1026300014000020D0030200180602003C11002004
:10264000E0060200000101042C0902000000002045
:1026500000030200140E0200D40202001C1000202D
:102660009802020064020200CC090200A54DA648AF
:102670001AF01AFEFDF782FFEA68A4491646A44B39
:102680001892A44CCA68A448964218BF1C46A34A94
:10269000D2F870311E68D2F880311A961B681293F6
:1026A0006B681D461693D3680E93D2F8A43110932D
:1026B000D2F8FC30D2F80421139314920A46984BB6
:1026C000D3F81C3215934B68A5EB030CCB6A159D10
:1026D000EB1A08938B6A1499139DCB1A0793536ACC
:1026E000EB1A0693136A1299CB1A0593D36985499D
:1026F000F31A04939369109EF31A039313465569D2
:102700000E9E864AD1F800905268751B8E68196932
:102710001992511A1A689B68CDE901450025F31AF0
:10272000A9EB0202CDF800C017961AF04DFD31AAB0
:1027300010217C48319515F019FF04467A4B319AE7
:102740001B687A48D31A1E461B931AF03DFD002CD5
:1027500000F056815EB3DFF8CC810F9E744B1B688E
:102760007BB10022D8F80000724903E001329342A5
:1027700000F0048151F804CB8445F7D16E4B53F837
:102780002230D8F818001B9AC01A6423A0FB03015A
:1027900000231AF013F801350246D8F804106748F0
:1027A0001AF012FDAC4208F12408D7D10F96644804
:1027B0001AF07AFD5F4A5B4B5F490F9E02EB84057E
:1027C0001868243342F8040B53F80C0C954241F876
:1027D000040BF5D10F96524A554B53491C60D2F861
:1027E000443200240493D2F8403256480393D2F87E
:1027F0003C32554D0293D2F838320193D2F834323C
:102800000093319B0B601146D2F83032D1F8281278
:10281000D2F82C221AF0D8FC4C4B4D4A1B68296880
:10282000A2FB03239A0C6B68B1FBF2F1B3FBF2F34A
:102830004848AA681AF0C8FC214620224648C5E943
:102840000044AC601AF062FD444A45481146D36921
:102850000493936903935369029313690193D368B3
:1028600000939368096852681AF0AEFC2146202252
:102870003A481AF04BFD16F06FFD044616F072FD53
:102880004FF400330246214636481AF09DFC1F4B98
:10289000169AC3F800905A60179A33489A60189AAB
:1028A000DA60199A1A610E9A5A61109A9A611A9A04
:1028B000DA61129A1A62139A5A62149A9A62159AF3
:1028C000DA622A4B1A682A4B19681AF07DFC294BE8
:1028D000196800293FF402AB31A806F02DFF499B8F
:1028E000319904933A9B24480393399B0293389B74
:1028F0000193349B0093DDE932231AF065FCFFF766
:10290000EDBA00BF8C1B0020EC0902005C1B00200C
:10291000B402020080FE0100140A0200D80801205F
:1029200000010104101900208C180020FC0A02008C
:1029300088180020D018002090180020180B0200E2
:10294000F8FA0100240B0200501B00206007002051
:1029500083DE1B43B80B020028030104001C002087
:10296000080C02009C0C0200E40C02001410002071
:1029700018100020AC160020200D0200002300E7F4
:102980003B68214808933B6B0793FB6A0693BB6A3D
:1029900005937B6A04933B6A0393FB690293BB69CB
:1029A00001937B6900937968D7E903231AF00CFC43
:1029B000FFF794BA012415481AF076FCFEF7C2FC22
:1029C000134B14481C701AF06FFC1349134A144B34
:1029D0000978144800290CBF114619461AF0F4FB77
:1029E000114B12481C6003F061FF114B1C70114B1E
:1029F0001860FFF773BA1048FEF74EFDFFF76EBA86
:102A00000E481AF051FCE6E6940D0200A4090200FB
:102A10009C160020B0040200A5160020200202002F
:102A20001C020200D8040200A816002000010004C5
:102A3000101600201416002080FE0100F8FA010094
:102A4000104A30B4104B114C114D1268A3FB0232E6
:102A50006B6825682360A3EB050C0023920CBCFB7C
:102A6000F2FC0C4A52F8044F644502D80133072B9C
:102A7000F8D1094C54F82320013244F8232030BC0B
:102A800007F0B6B96007002083DE1B43FC1B002063
:102A9000001000E0C42F0200001C00208C4600B58E
:102AA000864613467146624602485DF804EB02F022
:102AB0000BBC00BF000010408C4600B58646134694
:102AC0007146624602485DF804EB02F01DBC00BF8F
:102AD0000000104010B54FF480534FF08044C4F80C
:102AE000203201F0A3FD01F09FFD01F027FD41F22E
:102AF000D40001F007FE0423C4F82832C4F80831DA
:102B0000D4F8083123F00403C4F8083102F038F88F
:102B100001460A4802F0AAFB00230949022209687B
:102B2000886819461AF0B2F84022064B83F88B23C6
:102B300083F88C2383F88D2310BD00BF0000104064
:102B40009807002000E100E070B59AB0044609AE95
:102B5000002836D0384D394A394B6A60394A00214D
:102B60002A60184620221AF0D1FB0346364A8560B7
:102B7000C260364A051F40F8042C354A426020687E
:102B80001861A3882B836079A378627821780290FA
:102B900020790190E07800902E481AF015FB002271
:102BA0002D492E4B0992CDE901313246334631464B
:102BB00000952B480DF01CFC29480DF0C9FC1AB0FB
:102BC00070BD0146442230461AF0A0FB304603F0A7
:102BD00035FB18B9304603F037FB08B1214CB9E793
:102BE000304605A903F036FB0028F7D19DF81900FF
:102BF0009DF815109DF818309DF8142041409DF85F
:102C00001C509DF81D005A409DF8204041406A40EC
:102C1000144862409DF81630C2709DF81A20534047
:102C20009DF81E2053409DF82220534043719DF88B
:102C300021304B400371D1E7E81B0020B92A000086
:102C4000C81B00209D2A000080F0FA02F01B002023
:102C500064340200800E0200412A000099580100ED
:102C6000201C00202007002010B5044C20460DF049
:102C700079FC2046BDE810400BF052BF201C00201C
:102C800001480AF059BD00BF201C002070B586B075
:102C90000C4601A915461E460CF0ACFE10B90020EA
:102CA00006B070BD204602A90CF0A4FE0028F6D0A4
:102CB000284603A90CF09EFE0028F0D00D4803AB77
:102CC00002AA01A90DF006FB0A480DF04BFC0EB15B
:102CD00033780BB90120E3E7304604A90CF08AFEF3
:102CE0000028F7D0049B002005A905930AF08AFB71
:102CF000F0E700BF201C00200649074AD1F8FC304D
:102D000043F08073C1F8FC30136843F00103136093
:102D1000704700BF00ED00E0001000E0014B586874
:102D2000C0097047001000E038B54FF4A063374A7F
:102D3000C2F82431D2F8003123F00103C2F8003187
:102D4000D2F8003143F4616343F00C03C2F8003160
:102D50001369D807FCD42E4AD2F80038D9070BD40F
:102D60002C4B9360D2F8003843F00103C2F80038CE
:102D7000D2F80038002BFBDA4FF080411420D1F854
:102D80002832234A43F44033C1F82832D2F80831BC
:102D900023F03403C2F80831C2F80801D2F8003138
:102DA00043F00103C2F80031D2F80031DB01FBD55A
:102DB0004FF080434FF400344FF48035D3F8182A95
:102DC000154942F02202C3F8182A0020C3F82852FD
:102DD000C3F8284201F0E0FE01F03AFF1F22002470
:102DE0004FF0400C0D4B0E49C3F830211A6B0D48C3
:102DF00042F440421A631C601A6922F00F1222F456
:102E000070621143196180F843C338BD005004401B
:102E10000040044001005A5A00366E0100A01040E4
:102E20000407070000E100E008B5124802F0B4FF13
:102E300010F4602F14D10F4AD36A13F0706F15D0BD
:102E40009369190507D440F612010B40022B02D0FA
:102E5000D069C0B208BD074BD86900F07F0008BD3B
:102E60004FF46021034802F0B3FFE4E74FF0FF3076
:102E700008BD00BF00400B402DE9F843171E14DDCC
:102E80000E464D1EDFF8449005EB07080E4C01E09E
:102E9000013C0DD00D4802F07FFF0302F8D515F874
:102EA000013F4545C9F81C30F0D13846BDE8F883EC
:102EB000074AC6F1010311682B44FB1A0B4438463C
:102EC0001360BDE8F88300BF400D030000400B40D5
:102ED000C01B00200121084616F07EBA0D460446AC
:102EE00008B519F02FFA2A462146024803F016FCCD
:102EF000FEE700BFB00E020008B5024803F00EFC6A
:102F0000FEE700BFC80E020008B5024803F006FC49
:102F1000FEE700BFE80E020000487047B430020030
:102F2000004870471030020000487047A830020087
:102F300038B548B940F209434FF4417C174D6B80D6
:102F40001648A5F800C038BD072825D8144B134DE6
:102F500053F8204020461AF099FAC0B21F2886463E
:102F600028BF4FF01F0E0EF1010C5FFA8CFC4FEAE8
:102F70004C0C4CF4407C0028E2D02A460023601E12
:102F8000013310F8011FDBB29E4522F8021FF7D86B
:102F90000248A5F800C0D6E7002038BD7C1C002000
:102FA0002807002042F20162B1F802C0944501D026
:102FB000002070478A8808B5D2B2012ACB8806D192
:102FC000044A2C2B28BF2C23126817F0C1FA0120C9
:102FD00008BD00BF480700200120704770B500F50C
:102FE000AC750446284616F02BFB08B9002070BDCE
:102FF0000120617817F0F8F90028F7D004F58A4627
:10300000703628464FF40072314616F03BFB0546F9
:1030100070B1034632460120617817F009FA60B9B1
:103020004FF0E023D3F8F03DDB07DFD500BEDDE74E
:103030006178012017F0EAF9D8E7284670BD00BF93
:1030400030B50025164C83B044F27472002120463E
:103050001AF05CF904F5B67101234FF40072009583
:1030600004F5A27016F0B8FA4FF4804204F55B71D3
:103070000123009504F5AC7016F0AEFA04F5804318
:10308000012083F8705714F095F903460120C4E934
:10309000545314F08FF9C4E9590503B030BD00BF93
:1030A000E41C002010B5134C4FF4A27200212046FE
:1030B0001AF02CF904F5A27016F0E4FB04F5AC70DC
:1030C00016F0E0FB002204F12403C4F80320C4F846
:1030D0000720C4F80B20C4F80F2004F5AA7103F8E8
:1030E000112C23F8132B8B42F9D1034B83F8702753
:1030F00010BD00BFE41C0020E45C0020012901D0C9
:1031000001207047F8B5204E938814463278DBB220
:103110009A4225D163780546062B1CD00B2B1FD174
:10312000638806F5804706F5A27087F8703716F0B9
:10313000A9FB06F5AC7016F0A5FB144B2BB1A088CB
:1031400097F87017C0B2AFF300802146284617F0F9
:10315000E5F90120F8BD42F2016362889A4201D08C
:103160000020F8BD0A4B23B12146FFF71BFF0028C2
:10317000EFD1E3882146122B28BF12232846054AA7
:1031800017F0E6F9E5E700BFE41C002000000000AE
:10319000A52F00004C07002070B500F5A27504466D
:1031A000284616F05DFAB0F5007F00D270BD012010
:1031B000A17817F019F90028F8D0284616F050FA2F
:1031C000B0F5007F0AD304F58642A1784FF400736E
:1031D000BDE870400120703217F02AB9A1780120B3
:1031E000BDE8704017F012B92DE9F0434B7983B078
:1031F000012B04D00025284603B0BDE8F0838B796D
:10320000012BF7D1CB79002BF4D10D7807464C195F
:10321000617824290BD1954202D9EBE7AA42E9D380
:1032200023781C4461782B4424299DB2F6D00429CC
:10323000E0D16379012BDDD1A379032BDAD1E379D6
:10324000002BD7D1DFF8548198F8011098F802309C
:1032500039B14FF0E023D3F8F03DDB07CAD500BE0B
:10326000C8E7002BF5D1A17888F8001026782179DD
:103270003544ADB2264441B3AA4228BF994608D28C
:1032800081E0337849451D441E44ADB21DD9AA42A0
:1032900079D37378052BF4D131463846019217F073
:1032A00081F8019A0028D4D0B378D90914BF88F8DE
:1032B000013088F8023009F101035FFA83F93378AD
:1032C00021791D441E44ADB2DBE77178242908D171
:1032D000AA424AD333781E4471782B4424299DB2E4
:1032E000F6D0042941D1AA423FD3A478B378A342AF
:1032F0003BD1317837790D4431444878ADB2242838
:1033000007D044E00B7819444E782B44242E9DB20C
:103310002FD1AA42F6D2002F3ED0AA4225D30E4684
:10332000002101E0AA422BD3052805D133780131D1
:103330001D44ADB21E44C9B23378B9421D441E4487
:103340007078ADB2EED324280BD1954202D90CE0AF
:10335000AA420AD333781E4470782B4424289DB2A5
:10336000F6D0042801D19542C0D90C48FFF714FFCC
:1033700041E730460E46002FF3D0AA42D0D2F0E704
:103380002428EED1F1E771782429AAD1EDE70FB115
:10339000AA42C4D20E46E4E70E46D6E7E41C00205B
:1033A00070B5204C1D46A27894F801C08A420AD01C
:1033B0008C4518D04FF0E023D3F8F03DDB0700D563
:1033C00000BE002070BD9AB2174904F5A27016F035
:1033D000ABF9164B13B10020FDF77EFD1148FFF746
:1033E000DBFE012070BD06462046FFF7F7FD0028F2
:1033F000F7D104F5AC7016F023F90028F1D1002DB7
:10340000EFD0C5F30805002DEBD13046617816F0FA
:10341000EBFF0028E5D02B462A463046617817F0AE
:1034200007F8DEE7E41C002054600020D90E0000FD
:103430002DE9F04F44F27474894604FB00F19BB00F
:103440000990BE489B4643189E7801920391002E36
:1034500000F03C81002A00F0C88303F58E437033EE
:10346000049301F5AC73C31800265D46079320E072
:10347000BCF1400F00F04E8100F24081BCF1200F02
:1034800000F0778200F2DD81012201998BF80020A3
:10349000B14240F31681BCF1100F00F08F81012280
:1034A0000023A74C324496B22370019B9E4280F0C9
:1034B0000881049B1B78012B00F00C810023DFF8AE
:1034C00084B28BF8003059F8263005B11BBA03F0EE
:1034D000F00CBCF1900FCBF80430D8B200F01A8198
:1034E000C6D9BCF1C00F09D000F21781BCF1A00F02
:1034F00000F01081BCF1B00F40F0168103273A466E
:1035000001998BF80020891BB942C0F2DA80374458
:10351000711CDFF834E209EB870709EB810151F8F0
:10352000044B05B124BAB9424EF8044FF7D1BCF1AF
:10353000300F00F00F0040F00B814FF0000CC3F390
:10354000072303F0F0027E4C102A03F00F0384F8E7
:1035500000C000F03582302A00F02882002A40F0B6
:103560008D81F02744F2747C4FF0010A09998DF89F
:10357000287000EBC00700EB47070CFB0177DFF872
:10358000CC8107F1200CA8F104010F4428F80C208D
:103590004FEAC00E87F813A0002B00F012834FF003
:1035A000090C2CFA02FC01220CF0010C00210F2A5C
:1035B0000BD88F1C5BFA87F797F8048002F1680735
:1035C0006F44013207F8408CD2B20131CFB29F4232
:1035D000EDD3BCF1000F02D00F2A40F2BF81039B54
:1035E0000EEB000800EB48089844544B0AA9984495
:1035F00098F825300A4411F801CB08EB03078A42FA
:1036000003F1010387F814C003F00F03F3D188F826
:10361000253003990EEB000200EB42020A444749B1
:103620000A4492F824209A4280F090819A1AD1B2EA
:103630000022039B0EEB000700EB47071F443F4BA4
:1036400090461F44030143F0040CCDF820C084468B
:103650000593CDF818E004EB82030229C3F8048037
:1036600040F22681531CDBB204EB8303184697F823
:10367000242003F1030E0291B918097D013200F8EC
:10368000011F864502F00F02F6D1029987F8242027
:103690000339C9B2BAF1000F00F04481002940F0AB
:1036A0004E81059A42F0070C83F800C0227801325F
:1036B000D2B22270002A40F0D780019B9E42FFF4D4
:1036C000F8AE03981D4B1844FFF788FC30461BB03A
:1036D000BDE8F08FDDF81CB0584615F0C1FF019B26
:1036E000C0F38F069E4228BF1E46002D7BD1B2003C
:1036F0004946079892B216F017F8D6E6BCF1600F6B
:1037000000F0978013D9BCF1700F00F09280BCF1EB
:10371000800F09D102273A46F2E6BCF1E00F09D04A
:1037200000F0D002D02A05D00136B6B2BDE6BCF119
:10373000500FF9D104273A46E2E600BFE41C00200E
:10374000BC1C0020D01C0020D41C0020E81C002041
:10375000BCF1400F7FF4A4AE9BF808109BF809A0C1
:103760000291029CC3F3033C8901ACF102074FEACA
:10377000540EC3F3032841EA9A040C2F3FF690AE8F
:103780000FF2040A5AF827F0013A0000013A00004B
:10379000A1340000A1340000A1340000A1340000D5
:1037A0009F3B0000973A0000C93A0000D53A00005C
:1037B000F13A00005D3B0000773B0000C84C00F090
:1037C0000F002270C3F30722F13AC3F307210E2A38
:1037D00064D8DFE802F05B5F5B3D3D3D633D3D3D0E
:1037E0003D3D3D3D3D00002E3FF463AE102EB24600
:1037F000344628BF4FF0100A002704E0102CA246E0
:1038000028BF4FF0100A4FEA8A0809EB87014246A9
:103810000AA8A4EB0A0419F02CFE574458461FFAD4
:1038200088F20AA9A4B215F07FFFBFB2002CE5D13F
:103830003BE601238BF80030019BB3423FF72FAEEC
:103840003FE7BCF1300F7FF46FAF02273A4657E6EF
:10385000000140F005022271C3F30742C3F307637E
:103860006171A271E37101229BF800300798334423
:103870009C4992009EB215F057FF16E6002B00F00F
:10388000A381E24662464FEAC00E8FE6000140F097
:103890000202E0E7000140F00302DCE700222270B0
:1038A000C3F30742C3F307636171A271E371FCE5DF
:1038B000DDF818E0BAF1000F3FF4FCAE0132D2B2ED
:1038C00004EB820217460EEB0C030CEB4300039B48
:1038D0001844854B184490F8243000EB030C9CF8F6
:1038E00014C001330129B84603F00F0307F801CFD4
:1038F00001D00121F1E780F82430C2F101034344F3
:10390000DBB2012B059B0CBF43F0050C43F0060C0A
:1039100082F800C022780132D2B22270002A3FF42D
:10392000CCAEA1E7089A1A7022780132D2B2227086
:1039300000293FF4BFAE032A7FF68DAE94E7089AC4
:103940001A7022780132D2B22270F4E7C2F110026A
:10395000134413F0FF017FF46BAEA6E5531C114630
:10396000DAB201F168030DEB0301F72301F8403CE3
:1039700035E60127019A8BF80070B2427FF7A1AEBD
:103980000022C3F3033141EA001161F30702C3F3DC
:10399000072161F30F22C3F30741514C61F3174232
:1039A0001B0E63F31F62277062605CE7002B00F060
:1039B0001E8162464FF0010C4FEAC00EE246F5E56B
:1039C000F02144F27477099A8DF8281000EBC001B9
:1039D00000EB410107FB0211DFF8108101F1200724
:1039E000A8F1040211444FF0010228F807C04FEA81
:1039F000C00ECA74002B00F0E180E2460122CEE541
:103A00000027BCF1020F4FEAD41148F0B00C4FEA86
:103A1000001204F07F083846314C14BF4FF0620E9C
:103A20004FF0640EE1734FF0060142F00B0262F3B7
:103A3000070014BF4FF0630A4FF0650A6CF30F20C4
:103A400062F3070722732274A173C3F306424FF097
:103A50002601C3F306636EF3174063F31F6004236C
:103A60006CF30F276AF3174762F31F6784F813801C
:103A700084F80DC084F811C0A1746760A060079835
:103A8000237015F0EDFD2278B0EB820FBFF412AE7B
:103A90000023237015E6BEF1010F38BF4FF0010E71
:103AA000010141F0090168F06F00002261F3070293
:103AB000C3F3064360F30F22094C63F317426EF31E
:103AC0001F6262600123DAE7010141F00A0168F038
:103AD0005F00EAE7010141F00B0168F04F00E4E705
:103AE000BC1C0020C01C0020E41C0020E81C00209E
:103AF000DB014FEA001058D54FF0000C20219BF855
:103B00000B303E4C03F07F03E37240F00B03237154
:103B1000237248F0B00384F806C0A1726371637227
:103B20000B2103234FF00A0C4FF0090E9BF80A20DB
:103B300004F10C0A02F07F02E271221D40F00C0039
:103B40008AF8000068F03F0002F80E00029800F0CA
:103B50007F07002002F80C70505490E70022274C99
:103B6000030143F00D0368F02F012371617184F8A4
:103B700006E0E271A6E70023020142F00E0268F0BF
:103B80001F0062F3070304F07F0860F30F23E109CD
:103B900068F31743194C61F31F63636092E70101F7
:103BA00041F0080168F07F007FE70123144A0321F8
:103BB0004FF0020C92469E46141FBFE79A46012220
:103BC0000DE551460222CCE644F274729A460999F8
:103BD00000EBC00300EB430302FB0133094A4FEA49
:103BE000C00E134493F8253013E5019E69E50122C8
:103BF000194692464FEAC00EB3E600BFBC1C002037
:103C0000C01C0020E41C00200346012201481A7059
:103C1000704700BFC830020044F27472044B02FBCC
:103C20000033587818B19878003818BF01207047D1
:103C3000E41C002044F2747208B5044B02FB00300F
:103C400015F0FEFCC0F38F0008BD00BF281E002049
:103C500044F2747208B5044B02FB003015F000FD0D
:103C6000C0F38F0008BD00BF3C1E00200123FFF7FA
:103C7000DFBB00BF30B583B00190A8B3A1B39AB346
:103C80004FF0000C9DF8043082F800C0180903F0D2
:103C90000F030F2B00F0A680023B0C2B24D8DFE88B
:103CA00003F025253A195A78070707070707070081
:103CB0004FF0000C012340F0200010719DF80540EA
:103CC000BDF8060081F800C05471D0801370012047
:103CD00003B030BD9DF905409DF80530002CC0F2C1
:103CE000B88040F0300010710020F1E7002301217E
:103CF0009DF805C040F010009DF8064060F30703F2
:103D000011706CF30F239DF8071064F3174361F3F0
:103D10001F635360DBE70B78002B00F08F802321BB
:103D200001235171022140F03000107102F10B0C9F
:103D300002F8051B032B03F1080169448CBF002125
:103D400011F8041C03F1010002F8011F98BFC3B26F
:103D50006245EFD1BBE740F0300010710B78002BCB
:103D600063D14FF0010E53710025022301209DF80D
:103D7000054002F10B0C0D7002F8053B864594BF1F
:103D80000023234602F8013F88BF02209445F5D165
:103D90009DE740F0300010710B78002B3DD19DF86D
:103DA0000530F02BA0D19DF80730F72B9CD10120D6
:103DB000022350710025022002F10B040D7002F85D
:103DC000050B022B03F1080169448CBF002111F897
:103DD000041C03F1010002F8011F98BFC3B2944212
:103DE000EFD174E79DF905109DF805306145BFF6E8
:103DF0007BAFF62B0ED903F10801C9B207293FF6B4
:103E000073AF0024012140F0100010715371D48071
:103E100011705CE7F32BF4D866E79DF80730F72BB9
:103E20007FF462AF32200123C3E79DF80630F72B01
:103E30007FF45AAF31234FF0020E94E79DF805301E
:103E4000F02B7FF451AF12250124557102230C7021
:103E500068E7F72BD5D140F0300010710B78002BBC
:103E60003FF442AF00233024022054710B701070D5
:103E7000D38093602BE700BF2DE9F04F44F27474B8
:103E800004FB00F8DFF8F8A099460AEB08039C78D9
:103E900089B0002C70D0164644F270729C5C0D46BE
:103EA000002C4DD1002E62D008F5A277B3465744BE
:103EB00004E0A6EB040BBBF1000F59DD02223846EB
:103EC00001A915F00FFC022852D19DF804C00CF096
:103ED0000F0CACF1040CBCF1030F02D8BBF1010FC5
:103EE00046D00422384602A915F0CCFB04283FD165
:103EF00002980028DDD09DF8081003AA08EB1111E4
:103F000003315144FFF7B6FE0028D2D09DF80C30A3
:103F1000002BCED003EB040C03AA1FFA8CF000E0B8
:103F20001C46631C52F8041F9BB2B9F1000F00D06D
:103F300009BA834245F82410F2D11FFA8CF4B8E78D
:103F4000AEB108F5A277002457440D1F05E0039A8F
:103F50009CB2A64245F8042F09D00422384603A992
:103F600015F090FB042804F10103F0D026463446F6
:103F70000AEB0800FFF710F9204609B0BDE8F08F02
:103F8000E41C00200123FFF777BF00BF08B5FCF752
:103F9000CBF908BD08B5FCF7C7F908BD08B5FCF7B3
:103FA000C3F908BD08B5FCF7BFF908BD08B5FCF7B3
:103FB000BBF908BD08B5FCF7B7F908BD08B5FCF7B3
:103FC000B3F908BD08B5FCF7AFF908BD08B5FCF7B3
:103FD000ABF908BD08B5FCF7A7F908BD08B5FCF7B3
:103FE000A3F908BD08B5FCF79FF908BD08B5FCF7B3
:103FF0009BF908BD08B5FCF797F908BD08B5FCF7B3
:1040000093F908BD08B5FCF78FF908BD08B5FCF7B2
:104010008BF908BD08B5FCF787F908BD08B5FCF7B2
:1040200083F908BD08B5FCF77FF908BD08B5FCF7B2
:104030007BF908BD08B5FCF777F908BD08B5FCF7B2
:1040400073F908BD08B5FCF76FF908BD08B5FCF7B2
:104050006BF908BD08B5FCF767F908BD08B5FCF7B2
:1040600063F908BD08B5FCF75FF908BD08B5FCF7B2
:104070005BF908BD08B5FCF757F908BD08B5FCF7B2
:1040800053F908BD08B5FCF74FF908BD08B5FCF7B2
:104090004BF908BD08B5FCF747F908BD08B5FCF7B2
:1040A00043F908BD08B501F0F9FF08BD08B501F0F6
:1040B000F9FF08BD08B501F0F9FF08BD08B501F02A
:1040C000F9FF08BD08B501F0F9FF08BD08B501F01A
:1040D000F9FF08BD08B501F0F9FF08BD08B501F00A
:1040E000F9FF08BD08B501F0F9FF08BD08B501F0FA
:1040F000F9FF08BD08B5FCF717F908BD08B5FCF7CE
:1041000013F908BD08B5FCF70FF908BD08B5FCF7B1
:104110000BF908BD08B5FCF707F908BD08B5FCF7B1
:1041200003F908BD08B5FCF7FFF808BD08B5FCF7B2
:10413000FBF808BD08B5FCF7F7F808BD08B5FCF7B3
:10414000F3F808BD08B5FCF7EFF808BD08B5FCF7B3
:10415000EBF808BD08B5FCF7E7F808BD08B5FCF7B3
:10416000E3F808BD08B5FCF7DFF808BD08B5FCF7B3
:10417000DBF808BD08B5FCF7D7F808BD08B5FCF7B3
:10418000D3F808BD08B5FCF7CFF808BD08B5FCF7B3
:10419000CBF808BD08B5FCF7C7F808BD08B5FCF7B3
:1041A000C3F808BD08B5FCF7BFF808BD08B5FCF7B3
:1041B000BBF808BD08B5FCF7B7F808BD08B5FCF7B3
:1041C000B3F808BD08B5FCF7AFF808BD08B5FCF7B3
:1041D000ABF808BD08B5FCF7A7F808BD08B5FCF7B3
:1041E000A3F808BD08B5FCF79FF808BD08B5FCF7B3
:1041F0009BF808BD08B5FCF797F808BD08B5FCF7B3
:1042000093F808BD08B5FCF78FF808BD08B5FCF7B2
:104210008BF808BD08B5FCF787F808BD08B5FCF7B2
:1042200083F808BD08B5FCF77FF808BD08B5FCF7B2
:104230007BF808BD08B5FCF777F808BD08B5FCF7B2
:1042400073F808BD08B5FCF76FF808BD08B5FCF7B2
:104250006BF808BD08B5FCF767F808BD08B5FCF7B2
:1042600063F808BD08B5FCF75FF808BD08B5FCF7B2
:104270005BF808BD08B5FCF757F808BD08B5FCF7B2
:1042800053F808BD08B5FCF74FF808BD08B5FCF7B2
:104290004BF808BD08B5FCF747F808BD08B5FCF7B2
:1042A00043F808BD08B5FCF73FF808BD08B5FCF7B2
:1042B0003BF808BD08B5FCF737F808BD08B5FCF7B2
:1042C00033F808BD08B5FCF72FF808BD08B5FCF7B2
:1042D0002BF808BD08B5FCF727F808BD08B5FCF7B2
:1042E00023F808BD08B5FCF71FF808BD08B5FCF7B2
:1042F0001BF808BD08B5FCF717F808BD08B5FCF7B2
:1043000013F808BD08B5FCF70FF808BD08B5FCF7B1
:104310000BF808BD08B5FCF707F808BD08B5FCF7B1
:1043200003F808BD08B5FBF7FFFF08BD08B5FBF7AC
:10433000FBFF08BD08B5FBF7F7FF08BD08B5FBF7A5
:10434000F3FF08BD08B5FBF7EFFF08BD08B5FBF7A5
:10435000EBFF08BD08B5FBF7E7FF08BD08B5FBF7A5
:10436000E3FF08BD08B5FBF7DFFF08BD08B5FBF7A5
:10437000DBFF08BD08B5FBF7D7FF08BD08B5FBF7A5
:10438000D3FF08BD08B5FBF7CFFF08BD08B5FBF7A5
:10439000CBFF08BD08B5FBF7C7FF08BD08B5FBF7A5
:1043A000C3FF08BD08B5FBF7BFFF08BD08B5FBF7A5
:1043B000BBFF08BD08B5FBF7B7FF08BD08B5FBF7A5
:1043C000B3FF08BD08B5FBF7AFFF08BD08B5FBF7A5
:1043D000ABFF08BD08B5FBF7A7FF08BD08B501F0A6
:1043E000B9FB08BD08B5FBF79FFF08BD08B5FBF793
:1043F0009BFF08BD08B5FBF797FF08BD08B5FBF7A5
:1044000093FF08BD08B5FBF78FFF08BD08B5FBF7A4
:104410008BFF08BD08B5FBF787FF08BD08B5FBF7A4
:1044200083FF08BD08B5FBF77FFF08BD08B5FBF7A4
:104430007BFF08BD08B5FBF777FF08BD08B5FBF7A4
:1044400073FF08BD08B5FBF76FFF08BD08B5FBF7A4
:104450006BFF08BD08B5FBF767FF08BD08B5FBF7A4
:1044600063FF08BD704700BF4FF08042002038B5A1
:104470002D4B2E4CD3F888102D4D41F47001C3F80C
:104480008810D3F8881041F00F01C3F88810D3F8D2
:104490008C1041F4406141F00301C3F88C10C2F864
:1044A000440ED2F8001421F40031C2F800149C60CC
:1044B0003C24D2F824181F4B21F00101C2F8241823
:1044C000996A02F58A2221F4402141F4002199627F
:1044D000D96A21F4402141F40021D962D2F80011B7
:1044E00041F48051C2F80011D2F8441121F4803116
:1044F000C2F84411C2F84441D2F8441141F4803169
:10450000C2F844119A6A0C4922F0030242F00202F6
:104510009A62DA6A22F0030242F00202DA62A860CA
:104520008860FFF79FFF38BD00ED00E0000000004D
:1045300000400240006002400050024010B543F2CB
:10454000180000F0DFF8064801F0D0FDBDE810408B
:1045500001224FF4E1310420024B02F0B5B800BF54
:104560000F000100001BB7004FF080624FF0804346
:1045700030B5274D8DB0274CC3F8282243F2FE30CA
:1045800000F0C0F8AB8901A92046ADF8043001F075
:104590002FFE2B8A02A92046ADF8083001F0CAFD93
:1045A0001D4A03A99368204623F00F0343F0030339
:1045B0009360AB8A0024ADF80C3001F0A9FD1748D8
:1045C00000F060F810A1D1E9000101223223144D5E
:1045D000CDE9040104A8CDE90623CDE908440A95F4
:1045E00000F01EFA204600F081F846F2FE3000F09E
:1045F00089F80121202000F0B5F80A4B1D600DB0AC
:1046000030BD00BFAFF30080B035000208000000ED
:10461000E83002000050044000300440006CDC022E
:1046200080D1F00860070020FFF79EBF30B44FF044
:1046300080444FF480454FF4C8524FF490500F4BD4
:10464000C4F820525C6C0E492140596430BCA3F878
:10465000B420A3F8B820A3F8BC20A3F8D020A3F876
:10466000D420A3F89020A3F89420A3F89820A3F8CE
:104670009C20A3F8A000A3F8A4007047007011408C
:104680000F1FCFFF174B984229D003F1B76303F5F3
:104690005843984221D10122134BC3F80823D3F881
:1046A000002322F40002C3F80023D3F8002342F0D1
:1046B0001002C3F80023D3F8002342F02002C3F80D
:1046C0000023D3F8002342F00102C3F80023D3F8FB
:1046D0000023D201FBD50020704701207047002243
:1046E000DAE700BF006CDC0200400440044AD2F864
:1046F000003523F440330343C2F80035704700BF50
:104700000040044030F0004318D083B210B42BBBFB
:104710000121000C83B240F2FE3C1A0BC3F30B03E1
:10472000013A6345D2B20DD09B0003F18043C3F838
:104730006022013903D15DF8044B70477047000CCB
:10474000E8D1F8E7064C636962F31B636361120604
:104750002369534013F0706FFAD1EAE70221DAE7D8
:10476000004004404FF0C043800000F18040C0F89A
:10477000003321B94FF08043C0F80033704701394E
:10478000C0F80013704700BF144AD2F80435C3F3D1
:104790004163012B1AD0022B08D0ABB9D2F800012B
:1047A00010F0807011D00E4B18687047D2F80004DA
:1047B00010F0807009D00B4BD3F8200110F00100ED
:1047C00003D0094B1868704700207047D2F80033B7
:1047D000064813F0100F08BF002070470040044047
:1047E000680700200090054064070020006CDC0290
:1047F00008B52DED048BFFF7C7FF344A0146D2F808
:10480000003513F0807002D1BDEC048B08BDD2F8E6
:1048100004351B0307D4D2F80C35DBB2012B38BFAB
:104820000123B1FBF3F1294BD3F80425D00222D5A3
:10483000B7EE009A07EE901A244AF8EE678AD2F88B
:1048400028351B0526D4D2F810359BB207EE903AD6
:10485000B8EEE78A18EE100A17F0C8FF084318BF31
:1048600068EE888AC8EE897ABDEC048BFCEEE77AA4
:1048700017EE900A08BDD3F80425D3F81435D203F7
:1048800003F01F0358BF5B00EBB107EE903AB8EEA0
:10489000E79ACFE7D2F82835D2F82415DB01D2F811
:1048A0002425DBB222F07E4243EA516308EE103A3F
:1048B00007EE902AB8EEC88AF8EEE77A9FED047A00
:1048C000A7EE878AC6E7B0EE009AB3E7004004403F
:1048D00000000033144AD2F80436C3F34163012BBD
:1048E0001AD0022B08D0ABB9D2F8000110F08070BA
:1048F00011D00E4B18687047D2F8000410F0807089
:1049000009D00B4BD3F8200110F0010003D0094B64
:104910001868704700207047D2F80033064813F03B
:10492000100F08BF002070470040044068070020B7
:104930000090054064070020006CDC0208B52DEDF6
:10494000048BFFF7C7FF344A0146D2F8003613F054
:10495000807002D1BDEC048B08BDD2F804361B0375
:1049600007D4D2F80C36DBB2012B38BF0123B1FBE0
:10497000F3F1294BD3F80426D00222D5B7EE009AE2
:1049800007EE901A244AF8EE678AD2F828361B05FB
:1049900026D4D2F810369BB207EE903AB8EEE78AEA
:1049A00018EE100A17F022FF084318BF68EE888A35
:1049B000C8EE897ABDEC048BFCEEE77A17EE900A1C
:1049C00008BDD3F80426D3F81436D20303F01F032E
:1049D00058BF5B00EBB107EE903AB8EEE79ACFE72D
:1049E000D2F82836D2F82416DB01D2F82426DBB21E
:1049F00022F07E4243EA516308EE103A07EE902A15
:104A0000B8EEC88AF8EEE77A9FED047AA7EE878AB7
:104A1000C6E7B0EE009AB3E7004004400000003360
:104A200010B504462B492C4AD1F8003843F0010355
:104A3000C1F80038D1F8003523F00303C1F8003580
:104A40000368C1F80435436843F00040C1F80C35F1
:104A5000C1F80C05A36843F00040C1F81435C1F853
:104A60001405E36843F00040C1F81035C1F81005A3
:104A70002369C1F824356369C1F828358A60FFF7D6
:104A800083FED1F804351A0307D4D1F80C35DBB214
:104A9000012B38BF0123B0FBF3F0104B0D4AA3FBF1
:104AA0000013DB0903F59673C3F31003C2F818353E
:104AB000D2F8003543F00303C2F80035D2F80035D0
:104AC000DB01FBD5A469FFF793FE844214BF0320EA
:104AD000002010BD0040044001005A5AD34D62101E
:104AE000214B1B69C3F30363013B052B39D8DFE876
:104AF00003F0050E29172703FFF720BF1A4BD3F841
:104B0000000110F080702DD0184B18687047164BBC
:104B10001748D3F8003213F0200F08BF0020704769
:104B2000114BD3F8000410F080701BD003F5A833AC
:104B3000D3F8200110F0040014D00E4B1868704711
:104B4000FFF756BE084BD3F8000310F0010009D060
:104B5000D3F80823084B12F0010F084818BF184675
:104B600070470020704700BF0040044068070020E5
:104B7000001BB7006407002000449508006CDC02AD
:104B800008B5FFF7ADFF4FF08043D3F88033DBB2B9
:104B90000133B0FBF3F008BD70B44FF000450224C0
:104BA000284A294B29489563C2F80441C2F8A40059
:104BB000B3FBF1F201FB123393B992B20F3A192A07
:104BC0000ED8DFE802F012300D0D0D330D100D364A
:104BD000390D0D0D0D2D0D0D0D0D0D0D0D0D0D3C8A
:104BE000002070BC70474FF440034FF480364025DE
:104BF0004FF080440020134AD2F8A01021F0E07159
:104C00000B43C2F8A030C2F8A860C2F8A450946365
:104C10001060D2F8A030002BFBDA70BC0120704786
:104C20004FF0C073E1E74FF48003DEE74FF4000379
:104C3000DBE74FF08073D8E74FF0A073D5E74FF074
:104C4000E073D2E700A0104000389C1C0010200048
:104C50000649074BD1F8402142F00202C1F8402139
:104C600000BF013BFCD10120704700BF00B01040E5
:104C7000801A06002DE9F04100248B784E78A3427B
:104C800014BF4FF041434FF0014302EB420C01EBE4
:104C90008C0CBCF80880764206F000761E43DCF8E7
:104CA00004704346BCF80AE001E098450ED05D1C54
:104CB00007EB0311ABB29E4598BF0023CD688C6013
:104CC0004C60CE60E900ACF80830EED541F2281314
:104CD00007EB0E1700EBC210C750BDE8F08100BF14
:104CE000202210B50021044618F010FB40F20112FA
:104CF00001232282A37410BD8B682DE9F04F002B95
:104D00000CBF0123022383B00193002A00F0B3807B
:104D10004FF0000802F1200E814642468C461EF8F4
:104D20001F1C032940F2A7805EE9073041F21416E8
:104D300009EBC81423F00305A55120F0030004F586
:104D40008955286041F22C15481E605103EB011172
:104D50004FEAC81A1A605A609A60DA6010338B42C0
:104D6000F8D1DCF80C30BCF8006013F0400F14BF31
:104D70004FF082434FF0807346F30000DCF8187068
:104D800000F0007006F001061843002F6DD0DCF82B
:104D90001C30002B69D01EF8205C032D6BD900233A
:104DA00041F21C11CA4400935EE9043423F0030B62
:104DB0004AF801B041F2281124F003044AF80140F6
:104DC00041F230116C1E4AF8014041F2081447F6D6
:104DD000F8715AF8044024F4FF4B5EF8044C2BF0B1
:104DE000780B01EA440444EA0B0441F2081B002159
:104DF0004AF80B4037BB5EF808BCF6B14C00A4B2D1
:104E00005BF824A00BEB8404C3F800A064689C60EA
:104E100001318CB2A542D86003F11003EAD80199A0
:104E200008F1010399424FF001080EF1200E3FF600
:104E300076AF002003B0BDE8F08F5BF821401C6026
:104E40009E60E5E7DCF81CA05446B24606462046C4
:104E500040B101318CB2A542DE6003F11003DED90E
:104E60000028F6D130465646C5E71EF8205C40F0D3
:104E70000040032D93D8012003B0BDE8F08F00BFA0
:104E800010B47AB100F58053D3F80841012A44F0F8
:104E90000104C3F8084105D9D3F8882142F0010282
:104EA000C3F8882179B100F58053D3F80421012992
:104EB00042F00102C3F8042105D9D3F8842142F05D
:104EC0000102C3F8842103685DF8044B43F0030337
:104ED000036070478BB28BB141F2827C40F6450291
:104EE00011EA0C0F02EA010211D0CAB143F44043A7
:104EF00000F58052C2F83431C2F8B431090C05D043
:104F0000D0F8B4300B43C0F8B43070477047002A73
:104F1000EED043F4004300F58052C2F83431EBE7A1
:104F200043F4804300F58052C2F83431E4E700BF17
:104F30002DE9F0474FF080440425C4F828520E7C38
:104F4000C4F80851D4F8085100F5805C25F0040538
:104F5000C4F80851D4F8C05566F38205C4F8C055AA
:104F6000DCF8004044F00104CCF80040DCF80040DC
:104F700014F00104FAD18E6841F2081EEEB1756892
:104F80002F0407F47C1705F4803500EBC41C0CF5E6
:104F90008058C8F80051D8F8045125F47C153D43D9
:104FA000C8F804515CF80E5025F47C153D434CF8CC
:104FB0000E5034B90124002EE1D14FF4803735462C
:104FC000E3E70C88DFF81491DFF81481DFF814E1CF
:104FD00004F0020ABAF1000F3D4FDFF80CC13D4D5D
:104FE00012BF4F46C4467546C0F800CDC0F8405DBC
:104FF000C0F8307D46B3B57A96F80BC06D014FEA24
:105000008C0C05F060050CF0040C45EA0C05C0F8AA
:10501000005CB58BC0F8305CD0F8405D45F0080509
:10502000C0F8405D3569C0F8707DC0F8185D357B0B
:1050300005F00705C0F83C5D7569C0F8585D757BE3
:1050400005F00705C0F87C5D2AB115689288C0F8A4
:105050000023C0F80453650005F02005C4F3800266
:105060002A43650805F010052A438260220705D50A
:1050700003258A8AC0F8905012040267164AA2FBE0
:1050800003239B0C013BC3F30B03C0F8DC308D7C86
:105090004B7C6A039B0302F4005203F480431343E6
:1050A000220402F480022405134304F00064234325
:1050B0000DB943F080630522BDE8F047C96843F4A9
:1050C0000843036041F00101C0F8A020FFF702BFD0
:1050D000080070000300070083DE1B4328007000F7
:1050E00009000700010007000B000700FFFFFFFF9A
:1050F0002DE9F04F0E462DED028B924600216C22D9
:10510000804683B030461C4618F000F9BAF80030EB
:10511000D90744BF01237370DAF80830002B00F080
:105120009380012302223370002706F1480335469D
:10513000CDF804A09FED468BB246B9469B46164675
:1051400020344FF0000354F8102C07EB47016A603D
:1051500014F8202C0AEB81016A8154F8042CEA60CF
:1051600054F81C2CEA6114F81F2CEA848B8441F259
:10517000341308EBC71101F58050C95801F0400104
:1051800049EA010907F13401890158F8013054F85E
:10519000141CAA8754F8082C69634BF8042F9A074B
:1051A00022D5D0F80421D0F80011D8F82001C2F39C
:1051B0000542CB03C0F3841048BFD20007300092F1
:1051C00017F062FAB0EE480AF0EE680A41EC110BF3
:1051D00019F02AF851EC100B17F0D0FA009A0632A9
:1051E000A0EB8200CBF808007A1C96424FF0010732
:1051F00004F1200405F10C05A3D8B9F100095646C5
:1052000018BF4FF00109144BDDF804A0B8EB0308F8
:1052100018BF4FF0010886F80290DAE90623C6E9C4
:1052200019230E9A0D4BF2650F9A32660C4A1A60DA
:105230000C4B43F828604FF400620B4B1A6103B02B
:10524000BDEC028BBDE8F08F01226DE7AFF300806B
:1052500000000000000000400000104058640020E2
:10526000915800005C64002000E100E0114B99427D
:1052700007D9114B994209D24FF44071C0F800127E
:1052800070474FF40071C0F8001270470B4B994201
:1052900009D90B4B99420AD90A4B99428CBF00217C
:1052A00001218902EFE70021C0F8001270474FF496
:1052B0008071E8E7BF0E160200879303FFE0F50553
:1052C0007FD1F0087FB2E60E8446D0F8000249058F
:1052D00001F07871120400F4706002F4F8120143D6
:1052E000114341F00401CCF80012CCF80432DCF890
:1052F000003243F00103CCF80032DCF8000210F079
:105300000100FAD1704700BF8446D0F80002490579
:1053100001F07871120400F4706002F4F812014395
:10532000114341F00C01CCF80012DCF8002242F0ED
:105330000102CCF80022DCF8000210F00100FAD1E2
:10534000DCF804221A8070478B6E002B49D02DE9BF
:10535000F04F0E46834689464FF0000A0F7883B01F
:1053600001F14C08B9F80A0058B3002401971CE079
:105370006700BFB253F8271041B153465846326E0A
:10538000B56EA847737853B1D8F80030013753F899
:10539000271021B153465846B76E326EB847B9F858
:1053A0000A000134A3B298420AD97278D8F80030C2
:1053B000002ADDD153F824100029F2D02746DCE77B
:1053C000019FBAF1000F0CBF3B4600234FF0010ACA
:1053D00009F10C0908F10408002BC3D103B0BDE8A2
:1053E000F08F70472DE9F04F4B6E85B0002B5ED0EB
:1053F0008B6E0E46002B5AD04FF0000B01F14C097A
:10540000C846DA4689460B78CDE9010B0393B9F813
:105410000A30D9F80450002B32D000273C4616E061
:105420005246D6E918130198984730B3D8F800309F
:10543000A8605B445860EB68B9F80A200137BCB239
:1054400043F00043A242EB6005F1100518D97378D0
:10545000524601980BB16400A4B2D6E918139847DC
:105460004FEA840B48B1D8F800207378286042F8DE
:105470002400002BD4D1AB60DDE74FF47A630293B4
:10548000039A8AF00103002A08BF00234FF0010AA3
:1054900009F10C0908F10408002BB8D1DDE9018AF3
:1054A000BAF57A6F09D0504605B0BDE8F08F4FF4D9
:1054B0007A6A504605B0BDE8F08F40463146FFF7A6
:1054C00043FF504605B0BDE8F08F00BF2DE9F04F17
:1054D00003EB430501EB85052F896C680E4604EB51
:1054E00007119A46CB688BB0002B0290C0F2AD80BA
:1054F00093463B463A010CE06989994298BF0023E4
:105500009F4204EB031100F0A080C8680028C0F29D
:105510009C80C8680133C0009BB2EDD5CB6813F402
:10552000004340F05081C968C1F30E01002900F02A
:105530008C801F4604930AEB4A0306EB83010AF1B1
:10554000120306919900A94608912546059714462D
:10555000CDF80CA066E0E368049DC3F30E03591B6D
:1055600090B28142ABF8043040F3B58080464FF0F2
:10557000010A1B1A5B1B9BB20593DDE90202D6E907
:10558000181398470190002800F089807378002B49
:1055900060D0059B002B40F0AB80089BB9F8080059
:1055A000F3185968DBF8003051F83020079343F8BE
:1055B000372003EBC702019BA2F8048041F830308A
:1055C000B9F80820013701EBC2014868BFB2B178D1
:1055D000019B0029236018BF4FF04341A06008BF22
:1055E0004FF0034100206060E160B9F80A10013219
:1055F00092B2914298BF0022DDE902034FF0000C05
:1056000041F22814D9F8045000EBC31005EB011146
:10561000A9F808208BF808C00151BAF1000F40F03A
:105620009C8014012C44E368069A13F08053D268DE
:1056300091D196F801A01FFA82F8BAF1000F4FD16C
:10564000049B43449BB2049397E740F6A3700BB0CE
:10565000BDE8F08FB3780022002B14BF4FF0414C0F
:105660004FF0014C089BB9F80800F3185968DBF8B3
:10567000005051F8203005EBC70E45F83730019B3C
:10568000AEF80480013741F8203007952360BFB29F
:10569000A2606260B9F80820C4F80CC0A5E7DDF884
:1056A0000CA07D1EADB2ED005FB1DBF800105346DB
:1056B00049590298B46E326E083DA04715F1080FA3
:1056C000F3D1029852463146FFF7D4FA40F6A4705F
:1056D0000BB0BDE8F08F4FF0010A1FFA81F84CE7DC
:1056E0009A46049B03EB48039BB2CDE9043844E798
:1056F000DDE90202D6E918139847002842D07378F2
:10570000002BA7D0089BB9F808C0F3185A68DBF83B
:10571000005002EBCC0EDEF80430791C099352F8ED
:105720003C3089B245F83730099B05EBC70EAEF81F
:10573000048045F83130059B05EBC1018B80019B4E
:10574000023742F83C30B9F80810079502EBC10265
:105750005060B9F80820BFB239E7079B7A1E92B2B1
:1057600003EBC2018C88DDF80CA0042C15D9043C95
:105770008C800020BBF80430043BABF804300BB045
:10578000BDE8F08FDDF80480DDF80CA041465346FB
:105790000298B46E326EA04783E7A1F804C0029865
:1057A00053F83210B56E5346326EA847042CE0D041
:1057B000DBF80020BB1E9BB202EBC302938823449C
:1057C000043B9380D5E7CB680298C3F3C5435246A8
:1057D00031468BF82030FFF74DFA40F6A1700BB040
:1057E000BDE8F08F2DE9F04102EB420401EB8404A7
:1057F0001746A28C0D46E369618C92B2064682B0D0
:1058000003EB0113002A3DD13FE0DB68DB001CD530
:10581000628FA18F531C9BB2994298BF0023002036
:10582000616BD5F85C8002EB420201EBC20C63872E
:105830008CF80400B8F1000F07D0286E3B46CDE984
:1058400000C0012229463046C047B4F822C0E38C8C
:105850000CF1010C1FFA8CFC63459CBF00218C46A7
:10586000B4F824E0E3690EF1FF3E1FFA8EFEA4F8BF
:1058700024E0A28C88BF4FEA0C1192B2A4F822C097
:105880000B4412B1DA68002ABFDA02B0BDE8F08139
:105890002DE9F04100F58054A3680546DA070E466D
:1058A00082B014D5D4F860717B060ED548F240035F
:1058B000D1F85C80C4F86031B8F1000F05D0002346
:1058C0000A6ECDE900321A46C047F80728D4A3680B
:1058D000990716D5D4F8E0717A0610D548F240033E
:1058E000D6F85C80C4F8E031B8F1000F07D0002290
:1058F000336E31460193284601230092C047FB07CF
:1059000002D402B0BDE8F08148F201030122314621
:105910002846C4F8E03102B0BDE8F041FFF762BFAD
:1059200048F20103002231462846C4F86031FFF7EF
:1059300059FFCCE72DE9F04F91468BB00246D9E9EB
:1059400000681846B8F1000F00F0F68033464FF0BB
:10595000000E06EBC8059C8808339D42A644FAD188
:10596000BEF5804F80F0DE8001EB80035B6D13B1EC
:105970007345C0F0D78000EB400401EB8404A38C96
:10598000E48C9BB2E31AB8EB430F01944FEA400456
:1059900000F2CD80044401EB840BBBF83850BBF817
:1059A0003C30691C89B28B4298BF0021D9F80C7039
:1059B000DBF8343005EB450543F835704446ABF869
:1059C00038104FF0000A41460890CDF81CE00992CB
:1059D0003EE04FF00008C446C2F30D02012F01F172
:1059E000FF3142EA0C026DD9079F049C1D014EF85D
:1059F0000540039CC0F8048047EAC447059C013376
:105A00002743029C9BB242EAC4728260019A47F02B
:105A10000047934228BF0023C760ABF820304FF403
:105A200000634A4AC2F89030BFF34F8FBFF36F8FC5
:105A3000BBF8243001339BB2ABF824304FF4006341
:105A40001361002955D0BBF82630D9F804400193E2
:105A500099F8085099F8090005F00107BBF82030C3
:105A6000DBF81CE0069056F83A0006EBCA020297F3
:105A7000A142C5F38307049092880EEB03100397AD
:105A80004FEACA0829D002298CBF00240124A71E8E
:105A90002407FFB2059401299BD908F1080806EBF9
:105AA000080CBCF804C02A4CC2F30D0204EA0C4CEA
:105AB000012F56F808800AF1020AA1F1020142EA18
:105AC0000C0291D8069C2704079C07F44037274313
:105AD000AC078AD542F0804287E7022904D84FF00C
