:100000000000062081030000FD030000050400003D
:100010000D040000150400001D040000250400006C
:1000200000000000000000000000000081D102007C
:10003000350400000000000011D1020045CD02008F
:1000400099580000A5580000B1580000BD580000A4
:10005000C9580000D5580000E1580000ED580000D4
:10006000F958000005590000115900001D59000001
:100070002959000035590000415900004D59000030
:100080005959000065590000715900007D59000060
:100090008959000095590000A1590000AD59000090
:1000A000B9590000C5590000D1590000DD590000C0
:1000B000E9590000F5590000015A00000D5A0000EE
:1000C000195A0000255A0000315A00003D5A00001C
:1000D000495A0000555A0000615A00006D5A00004C
:1000E000795A0000855A0000915A00009D5A00007C
:1000F000A95A0000B55A0000C15A0000CD5A0000AC
:10010000D95A0000E55A0000F15A0000FD5A0000DB
:10011000095B0000155B0000215B00002D5B000007
:10012000395B0000455B0000515B00005D5B000037
:10013000695B0000755B0000815B00008D5B000067
:10014000995B0000A55B0000B15B0000993B0000DB
:10015000BD5B0000C95B0000D55B0000E15B0000F7
:10016000ED5B0000F95B0000055C0000115C000025
:100170001D5C0000295C0000355C0000415C000053
:100180004D5C0000595C0000655C0000715C000083
:100190007D5C0000895C0000955C0000A15C0000B3
:1001A000AD5C0000B95C0000C55C0000D15C0000E3
:1001B000DD5C0000E95C0000F55C0000015D000012
:1001C0000D5D0000195D0000255D0000315D00003F
:1001D0003D5D0000495D0000555D0000615D00006F
:1001E0006D5D0000795D0000855D0000915D00009F
:1001F0009D5D0000A95D0000B55D0000C15D0000CF
:10020000CD5D0000D95D0000E55D0000F15D0000FE
:10021000FD5D0000095E0000155E0000215E00002B
:100220002D5E0000395E0000455E0000515E00005A
:100230005D5E0000695E0000755E0000815E00008A
:100240008D5E0000995E0000A55E0000B15E0000BA
:10025000BD5E0000C95E0000D55E0000E15E0000EA
:10026000ED5E0000F95E0000055F0000115F000018
:100270001D5F0000295F0000355F0000415F000046
:100280004D5F0000595F0000655F0000715F000076
:100290007D5F0000895F0000955F0000A15F0000A6
:1002A000AD5F0000B95F0000C55F0000D15F0000D6
:1002B0007C5E030000000020900500007C5E0300CF
:1002C00000000004000000007C5E03000000062027
:1002D000000000007C5E030000A00B400000000056
:1002E0000008002054AF04000000000400000000DB
:1002F000000006200000000000A00B4000000000ED
:1003000080B489B000AFF860B9607A60BB68FB6107
:10031000FB68BB6100237B610AE0BA69131DBB6106
:10032000FB69191DF96112681A607B6904337B61EE
:100330007A697B689A42F0D300BF00BF2437BD467C
:100340005DF8047B704780B485B000AF7860396099
:100350007B68FB600023BB6007E0FB681A1DFA6046
:1003600000221A60BB680433BB60BA683B689A42DB
:10037000F3D300BF00BF1437BD465DF8047B704760
:1003800072B6184B184A1C480360196881F3088834
:1003900082F30A8805F022FE144C0CE023461C1D53
:1003A000186823461C1D1D6823461C1D1E68324606
:1003B0002946FFF7A5FF0E4B9C42EFD309E02346E9
:1003C0001C1D1D6823461C1D1E6831462846FFF76C
:1003D000BAFF084B9C42F2D362B600F087F800BF28
:1003E000FDE700BF0000000000F00520B0020000A3
:1003F000E00200000003000008ED00E080B400AF60
:1004000000BFFDE780B400AF00BFFDE780B400AFE0
:1004100000BFFDE780B400AF00BFFDE780B400AFD0
:1004200000BFFDE780B400AF00BFFDE780B400AFC0
:1004300000BFFDE780B400AF00BFFDE780B400AFB0
:1004400000BFFDE780B400AF00BFFDE780B400AFA0
:1004500000BFFDE780B483B000AF78607B68D3F85D
:10046000803018460C37BD465DF8047B704780B578
:1004700082B000AF7860786825F026F80346184609
:100480000837BD4680BD80B582B000AF7860396066
:10049000786825F027F900BF0837BD4680BD80B5D4
:1004A00084B000AF78600023BB8101233B73AA2393
:1004B0007B7307F10C031946012025F045FA26F05D
:1004C00001FCFA2023F032F926F008FC00214FF05D
:1004D000FF3026F059FD00BF00BFF7E780B400AF42
:1004E00000BFBD465DF8047B7047FFFF80B584B058
:1004F00002AF2DF0EFFD03F051F93F48FFF7AAFFDF
:10050000786079683D482DF0D9FC7B6803F00103E1
:10051000002B02D03A482DF0D1FC7B6803F0020397
:10052000002B02D037482DF0C9FC7B6803F0040390
:10053000002B02D034482DF0C1FC7B6803F480739B
:10054000002B02D031482DF0B9FC7B6803F4007316
:10055000002B02D02E482DF0B1FC7B6803F4006321
:10056000002B02D02B482DF0A9FC7B6803F48053AC
:10057000002B02D028482DF0A1FC7B6803F4005327
:10058000002B02D025482DF099FC7B6803F48043B2
:10059000002B02D022482DF091FC7B6803F400432D
:1005A000002B02D01F482DF089FC1F482DF0F6FCCF
:1005B00003F0F8F9002100200DF0A8F9002003F065
:1005C00031F9002301930923009300234FF40072B3
:1005D0001649174822F073FF00230193022300936A
:1005E00000234FF4C0621349134822F068FF23F040
:1005F0000FF900BFFDE700BF008004404006030084
:100600006C060300740603007C0603008C060300DE
:1006100094060300A0060300B8060300C406030006
:10062000D0060300DC060300E8060300EC06030026
:100630009F040000F4060300D520000080B483B0BE
:1006400000AF78607B689B88002B14BF01230023D8
:10065000DBB218460C37BD465DF8047B704780B5A9
:1006600082B000AF786039607B68612239681846D3
:100670002DF0E0FC00BF0837BD4680BD80B582B0DC
:1006800000AF786039607B68623329223968184688
:100690002DF0D0FC00BF0837BD4680BD80B483B0CC
:1006A00000AF78607B6803F580531B6F18460C37EA
:1006B000BD465DF8047B704780B483B000AF7860BE
:1006C00039603B6818460C37BD465DF8047B7047BF
:1006D00080B483B000AF78607B6818460C37BD46A5
:1006E0005DF8047B704780B483B000AF78607B68AE
:1006F00018460C37BD465DF8047B704780B582B064
:1007000000AF78607B689B68002B05D07B689B6896
:1007100078687968032298477B6818460837BD4691
:1007200080BD80B483B000AF78607B689B68002B8D
:100730000CBF01230023DBB218460C37BD465DF821
:10074000047B704780B582B000AF78607B68184644
:10075000FFF7D4FF7B6818460837BD4680BD80B5DB
:1007600082B000AF78607B681846FFF7C7FF7B68F0
:1007700018460837BD4680BD80B582B000AF7860AE
:100780007B681846FFF7BAFF7B6818460837BD46F6
:1007900080BD80B582B000AF78607B681846FFF7F7
:1007A000ADFF7B6818460837BD4680BD80B582B076
:1007B00000AF78607B681846FFF7A0FF7B6818469B
:1007C0000837BD4680BD80B582B000AF78607B68D9
:1007D0001846FFF793FF7B6818460837BD4680BD73
:1007E00080B582B000AF78607B681846FFF786FF5F
:1007F0007B6818460837BD4680BD80B582B000AF23
:1008000078607B681846FFF779FF7B6818460837E1
:10081000BD4680BD80B582B000AF78607B68184669
:10082000FFF76CFF7B6818460837BD4680BD80B572
:1008300082B000AF78607B681846FFF75FFF7B6887
:1008400018460837BD4680BD80B582B000AF7860DD
:100850007B681846FFF752FF7B6818460837BD468D
:1008600080BD80B582B000AF78607B681846FFF726
:1008700045FF7B6818460837BD4680BD80B582B00D
:1008800000AF78607B681846FFF738FF7B68184632
:100890000837BD4680BD80B582B000AF78607B6808
:1008A0001846FFF72BFF7B6818460837BD4680BD0A
:1008B00080B582B000AF78607B681846FFF71EFFF6
:1008C0007B6818460837BD4680BD80B582B000AF52
:1008D00078607B681846FFF711FF7B681846083779
:1008E000BD4680BD80B582B000AF78607B68184699
:1008F000FFF704FF7B6818460837BD4680BD80B50A
:1009000082B000AF78607B681846FFF7F7FE7B681F
:1009100018460837BD4680BD80B582B000AF78600C
:100920007B681846FFF7EAFE7B6818460837BD4625
:1009300080BD80B582B000AF78607B681846FFF755
:10094000DDFE7B6818460837BD4680BD80B582B0A5
:1009500000AF78607B681846FFF7D0FE7B681846CA
:100960000837BD4680BD80B582B000AF78607B6837
:100970001846FFF7C3FE7B6818460837BD4680BDA2
:1009800080B582B000AF786039607B68E433396845
:10099000184602F00AF800BF0837BD4680BD80B592
:1009A00082B000AF786039607B68F43339681846EC
:1009B00002F016F800BF0837BD4680BD80B483B092
:1009C00000AF786039603B689B007A681344184632
:1009D0000C37BD465DF8047B7047FFFF90B583B0D0
:1009E00000AF7860084611461A460346FB700B4676
:1009F000BB7013467B707B681A46002313605360FC
:100A00009360D36000217868FFF7D8FF03460D4A52
:100A10001A60FB781A06BB785B021A447B781B02CB
:100A20001A443B7E5B001A443B7F13441C46012161
:100A30007868FFF7C3FF03461C6000BF78680C3777
:100A4000BD4690BD010101F080B483B000AF786075
:100A500039607A683B68134418460C37BD465DF828
:100A6000047B704780B483B000AF786039607A68E7
:100A70003B68134418460C37BD465DF8047B70474D
:100A800080B483B000AF786039607A683B68134403
:100A900018460C37BD465DF8047B704790B585B0AD
:100AA00000AFF860B960BA803B80FB681A4600234B
:100AB000136053609360D3600021F868FFF77EFFF6
:100AC00003463E4A1A6007F1080300211846FFF763
:100AD000BBFF03461B781C0407F1080301211846DD
:100AE000FFF7B2FF03461B781B021C4407F1080303
:100AF00002211846FFF7A8FF03461B7823441C4633
:100B00000121F868FFF75AFF03461C603B1D0021D6
:100B10001846FFF7A7FF03461B781C063B1D012163
:100B20001846FFF79FFF03461B781B041C443B46F7
:100B300000211846FFF796FF03461B781B021C4452
:100B40003B4601211846FFF78DFF03461B782344DF
:100B50001C460221F868FFF731FF03461C600021A4
:100B600007F12000FFF78CFF03461B781C060121CC
:100B700007F12000FFF784FF03461B781B041C4489
:100B8000022107F12000FFF77BFF03461B781B02C1
:100B90001C44032107F12000FFF772FF03461B7876
:100BA00023441C460321F868FFF708FF03461C6036
:100BB00000BFF8681437BD4690BD00BF000002F0CA
:100BC00090B587B000AFF8607B600B467B81134621
:100BD0007B72FB681A460023136053609360D360F6
:100BE0000023FB757B7A002B06D197F828300E2B5B
:100BF0000ED90123FB750BE07B7A03F10D0297F808
:100C000028309A4202DA0223FB7501E00323FB75C8
:100C1000FB7D9B0603F170427B891B0413441C4639
:100C20000021F868FFF7CAFE03461C607A7A97F83D
:100C300028309A420FD27A687B7A591C7972134411
:100C40001B781C020021F868FFF7B8FE03461A68FB
:100C500021460A441A607A7A97F828309A420ED2CE
:100C60007A687B7A591C797213441C780021F868E1
:100C7000FFF7A4FE03461A6821460A441A600123BE
:100C8000BB7559E07A7A97F828309A4210D27A6880
:100C90007B7A591C797213441B781C06BB7D19465C
:100CA000F868FFF78BFE03461A6821460A441A606B
:100CB0007A7A97F828309A4210D27A687B7A591C4F
:100CC000797213441B781C04BB7D1946F868FFF742
:100CD00075FE03461A6821460A441A607A7A97F824
:100CE00028309A4210D27A687B7A591C7972134460
:100CF0001B781C02BB7D1946F868FFF75FFE0346B0
:100D00001A6821460A441A607A7A97F828309A427B
:100D10000FD27A687B7A591C797213441C78BB7D98
:100D20001946F868FFF74AFE03461A6821460A4446
:100D30001A60BB7D0133BB75BB7D032BA2D900BFFD
:100D4000F8681C37BD4690BD90B583B000AF7860A1
:100D5000084611461A460346FB700B46BB70134605
:100D60007B707B681A460023136053609360D360E6
:100D7000BB78002B01D0194A00E0194AFB781B020E
:100D80001A443B7F1B011A443B7E5B011A4497F8CF
:100D90002C309B001A447B7813441C460021786851
:100DA000FFF70CFE03461C6097F820301A0697F8F0
:100DB00024301B041A4497F828301B021A4497F871
:100DC000303013441C4601217868FFF7F7FD0346D5
:100DD0001C6000BF78680C37BD4690BD008011F0E4
:100DE000000011F090B587B000AFF8607B600B4653
:100DF000FB721346BB72FB681A46002313605360F4
:100E00009360D3600023FB75BB7A002B06D197F863
:100E100028300D2B0ED90123FB750BE0BB7A03F1B3
:100E20000C0297F828309A4202DA0223FB7501E09F
:100E30000323FB75FB7D9B0603F1704303F59013C1
:100E4000FA7A120213441C460021F868FFF7B6FD37
:100E500003461C60BA7A97F828309A420ED27A6814
:100E6000BB7A591CB97213441C780021F868FFF74B
:100E7000A5FD03461A6821460A441A600123BB7582
:100E800059E0BA7A97F828309A4210D27A68BB7A39
:100E9000591CB97213441B781C06BB7D1946F868AF
:100EA000FFF78CFD03461A6821460A441A60BA7A95
:100EB00097F828309A4210D27A68BB7A591CB972D6
:100EC00013441B781C04BB7D1946F868FFF776FDB8
:100ED00003461A6821460A441A60BA7A97F82830FD
:100EE0009A4210D27A68BB7A591CB97213441B78A3
:100EF0001C02BB7D1946F868FFF760FD03461A68BF
:100F000021460A441A60BA7A97F828309A420FD2DA
:100F10007A68BB7A591CB97213441C78BB7D194698
:100F2000F868FFF74BFD03461A6821460A441A6029
:100F3000BB7D0133BB75BB7D032BA2D900BFF86815
:100F40001C37BD4690BDFFFF80B483B000AF786012
:100F5000044A7B681A607B6818460C37BD465DF80A
:100F6000047B70472011030080B582B000AF786029
:100F70007868FFF7E9FF04217868FFF784FA7B6857
:100F800018460837BD4680BD80B582B000AF786096
:100F90007B681A460023136053609360D3607B68BC
:100FA00000221A747B6814330021184601F003FBF9
:100FB0007B6824330021184601F014FB7B6834332E
:100FC0000021184601F025FB7B68443300211846B8
:100FD00001F0F1FA7B6854330021184601F030FB30
:100FE0007B6864330021184601F041FB7B68743351
:100FF0000021184601F052FB7B688433002118461B
:1010000001F063FB7B6894330021184601F074FB08
:101010007B68A4330021184601F085FB7B68B4335C
:101020000021184601F096FB7B68C4330021184666
:1010300001F090FB7B68D4330021184601F0A1FB3E
:101040007B68E4330021184601F0B2FB7B68F4337F
:101050000021184601F0C3FB7B6803F58273002171
:10106000184601F0D3FB7B6803F58A73002118460C
:1010700001F0E3FB7B6803F592730021184601F051
:10108000DFFA7B6803F59A730021184601F0D8FA5D
:101090007B6803F5A2730021184601F0E5FB7B682D
:1010A00003F5AA730021184601F0DEFB7B6803F507
:1010B000B2730021184601F0EEFB7B6803F5BA73AA
:1010C0000021184601F0FEFB7B6803F5C273002186
:1010D000184601F00EFC7B6803F5CA730021184620
:1010E00001F007FC7B6803F5D2730021184601F07C
:1010F00017FC7B6803F5DA730021184601F027FC22
:101100007B6803F5E2730021184601F037FC7B6829
:1011100018460837BD4680BD80B584B002AF786000
:101120007B68190E7B681B0CDAB27B681B0AD8B28D
:101130007B68DBB20093034603482CF0BFFE00BF80
:101140000837BD4680BD00BF2007030080B400AF54
:10115000054B1B78002B01D0034B00E0034B1846D6
:10116000BD465DF8047B7047F01A00202C07030091
:1011700080B588B002AF786039603B68002B54D0EE
:101180007B681B681B0FFB74FB7C042B2DD13B6819
:10119000012B2AD97B681B681B0EDBB203F00F03FF
:1011A000BB747B681B681B0C7B747B681B681B0A09
:1011B0003B747B6804331B681B0CFB607B7C03F077
:1011C000F003902B01D11B4B00E01B4BBB60B97CA3
:1011D0007B7C03F00F003B7CFA680192009303468E
:1011E000BA6816482CF06AFE20E0FB7C3A68194683
:1011F00013482CF063FE00237B610BE07B699B00AE
:101200007A6813441B6819460E482CF057FE7B6918
:1012100001337B617A693B689A4202D27B69032B76
:10122000ECD909482CF0BAFE00E000BF1837BD46E3
:1012300080BD00BF34070300400703004C070300D4
:101240007C07030098070300A007030080B483B065
:1012500000AF0346FB71FB79052B1BD801A252F8A6
:1012600023F000BF7D1200008112000085120000F3
:10127000891200008D12000091120000094B0AE053
:10128000094B08E0094B06E0094B04E0094B02E07A
:10129000094B00E0094B18460C37BD465DF8047B4E
:1012A000704700BFA4070300AC070300C00703009A
:1012B000D0070300DC070300EC070300F807030076
:1012C00090B583B000AF78600B46FB700B4809F017
:1012D0002FFC0446FB781846FFF7B8FF03461A4672
:1012E000214607482CF0EAFDFB78032B02D1054B81
:1012F00001221A7000BF0C37BD4690BD04080020C3
:10130000FC070300591A002080B584B000AFF860D4
:10131000B9607A607968B868FFF72AFF7B689BB28A
:101320001A46B968002003F0D5FB00BF1037BD4650
:1013300080BD80B598B002AF0346FB710B46BB7110
:1013400013467B717B7903F00103002B11D007F169
:101350002C0000230193002300930123012201218B
:10136000FFF73CFB07F12C0304221946002003F091
:10137000B1FB7B7903F00203002B30D07D2387F88B
:101380003C30002387F83D30002387F83E300023AF
:1013900087F84030002387F84130002387F8443035
:1013A000002387F84530002387F84830012387F869
:1013B0004930002387F84A30002387F84B3007F183
:1013C0001C00BB6C00937B6C3A6CF96BFFF766FBFF
:1013D00007F11C0304221946002003F07BFB7B79F4
:1013E00003F00403002B27D0FFF7B0FE3865386DFB
:1013F0002CF0C6FE0346FB64002387F8573016E046
:10140000FB6CDBB207F10C0097F8572000933B6DA3
:101410000321FFF7D5FB07F10C0304221946002036
:1014200003F058FB97F857300E3387F8573097F88A
:101430005730FA6C9A42E3DC00BF5837BD4680BD96
:1014400080B594B008AF03460A46FB711346BB71E2
:10145000FB79002B02D0FB79FF2B3CD1BB7903F049
:101460000103002B1BD007F11C000023069300236F
:101470000593002304930123039300230293002385
:10148000019300230093032301220021FFF75CFC5A
:1014900007F11C0304221946002003F01BFBBB7953
:1014A00003F00203002B17D00D4BFB62F86A2CF0FF
:1014B00067FE0346DBB207F10C000093FB6A0022D3
:1014C0000021FFF78FFC07F10C03042219460020CE
:1014D00003F000FB00E000BF3037BD4680BD00BF19
:1014E0001C08030090B583B000AF294B1B68002B8C
:1014F0004AD0274B1B6818460BF0C8FC0346002B4C
:1015000014BF01230023DBB2002B22D0204B1B6829
:1015100018460BF055F900237B600AE01C4B1B6852
:1015200018460BF078F9012022F000F97B680133AE
:101530007B607B68C72B09DC154B1B6818460BF0DA
:10154000A5FC0346002B01D0012300E00023002B63
:10155000E4D10F4B1C68002C06D020460BF093F80A
:1015600004212046FEF78FFF094B00221A60094B29
:1015700000221A70084B00221A60084809F06CFC1F
:10158000074809F01FFA00E000BF0C37BD4690BDC8
:10159000501A0020591A00205C1A00200000002078
:1015A0000408002080B500AF02482CF0F7FC00BF13
:1015B00080BD00BF3008030090B5B9B000AFFFF7A1
:1015C00091FF334B01221A70FFF7C0FD034607F16C
:1015D000A000304A40212CF0F9FA2F4A07F11403F9
:1015E00011468C2218462CF0BEFD07F1A00207F12F
:1015F000140311461846FFF732F807F11403274980
:101600001846FFF73BF8264A07F1080307CA83E8A4
:1016100007000420FEF72BFF03461C4607F10803D2
:1016200007F114021F4920460BF013F81E4B1C60F3
:101630001D4B186800231D4A41F28C310BF035F820
:101640001EF07CF91A4B1B685B687B601EF092F9F8
:101650003B1D184615F0E6FD034641F28C32194653
:1016600014482CF02BFCFFF79DFF0E4809F060FAA0
:101670000346114A1360114B00221A60104B0022DE
:101680001A70104B0B221A6000BFE437BD4690BDA4
:10169000581A00206C080300900803000807030094
:1016A0001C09030004080020501A0020000000203C
:1016B000DCCB0020740803005C1A0020E41A002030
:1016C000641A0020541A002090B5B9B000AF7860B9
:1016D000FFF708FF294B00221A70294B7A6810681F
:1016E000186092889A80FFF731FD034607F1A00049
:1016F000244A40212CF06AFA234A07F114031146C8
:101700008C2218462CF02FFD07F1A00207F11403DC
:1017100011461846FEF7A3FF07F114031B491846AC
:10172000FEF7ACFF1A4A07F1080307CA83E807006F
:101730000420FEF79CFE03461C4607F1080307F150
:101740001402144920460AF084FF134B1C60124B0C
:101750001868002341F28D3279680AF0E5FFFFF73F
:1017600021FF0E4B00221A600D4B00221A700D4B08
:101770000B221A6000BFE437BD4690BD581A002006
:10178000141B002028090300900803000807030029
:101790001C09030004080020501A0020E41A00204D
:1017A000641A0020541A002080B582B002AF254888
:1017B0002CF0F4FB244B1B78002B01D0234B00E0D2
:1017C000234B194623482CF079FBFFF7BFFC034657
:1017D000194621482CF072FB204B1B78002B03D0BC
:1017E0001F482CF0DBFB07E01E4B00931E4B1F4AEB
:1017F0001F4920482CF062FB134B1B7883F0010338
:10180000DBB2002B07D01C48FEF718FF0346002B65
:1018100001D0012300E00023002B0DD017482CF04D
:101820004DFB154B1B681846FFF776FC124B9B8847
:10183000194613482CF042FB12482CF0AFFB00BFB6
:10184000BD4680BD34090300581A0020500903002A
:101850005809030060090300700903008004002098
:1018600080090300B4040020A40400209404002094
:1018700084040020A0090300141B0020CC090300ED
:10188000D8090300E009030080B500AF0F4B012227
:101890001A700F482CF082FB0E4B1B78002B01D0E6
:1018A0000D4B00E00D4B19460D482CF007FB0D4B7E
:1018B00001221A600C4809F03BF903460B4A1360F9
:1018C0000B4B01221A7000BF80BD00BF601A0020C0
:1018D000100A0300581A0020380A03003C0A0300CB
:1018E000400A0300541A002004080020E81A0020CF
:1018F000EC1A002080B586B000AFF860B9607A605D
:10190000FB681B78002B01D101231DE007F11403B4
:101910001946F86815F058FB0346002B0CBF01234D
:101920000023DBB2002B01D000230DE07B68013BDC
:101930001A46F968B8682CF07DFB7B68013BBA68F1
:10194000134400221A70012318461837BD4680BD83
:1019500080B500AF0B4B00221A6004210A482CF01E
:10196000ADFA0A482CF01AFB094809F0B3FA094805
:1019700009F0DEF80346084A1360084B09221A6092
:1019800000BF80BDBC1F0020640A0300AC0A030036
:101990000000002004080020C01F0020541A00206E
:1019A00080B582B000AF0346FB71184809F012FB06
:1019B000FB7983F00103DBB2002B08D0144B1B68CA
:1019C000002B04D113482CF0E9FA0123FB71FB79B9
:1019D000002B06D010482CF071FA104B0A221A6026
:1019E00011E00B4B1B6819460D482CF067FA0B4BA6
:1019F00009221A600B4809F09BF803460A4A136053
:101A00000A4B01221A700837BD4680BD0000002035
:101A1000BC1F0020200B0300480B0300541A0020B9
:101A2000540B030004080020E81A0020EC1A0020E0
:101A300080B582B000AF1DF081FF1B4B1B78002BDF
:101A400003D001F049FF01230BE0184B184A194954
:101A5000194801F04DFF0346002B14BF012300235A
:101A6000DBB2FB711DF086FFFB7983F00103DBB273
:101A7000002B0BD011482CF091FA0B4B01221A705D
:101A80001DF05CFF01F028FF1DF074FF0C4809F009
:101A90004FF803460B4A13600B4B08221A6000BF35
:101AA0000837BD4680BD00BF80040020B40400207C
:101AB000A404002094040020840400206C0B030084
:101AC00004080020C41F0020541A002080B500AF75
:101AD0000F4B1B78002B02D0FFF76EFD16E00D4B6D
:101AE0001B78002B02D0FFF733FF0FE00A48FEF708
:101AF000A5FD0346002B03D00748FFF7E5FD05E0F1
:101B000006482CF04BFA064B0B221A6000BF80BD32
:101B1000581A0020601A0020141B0020A80B030094
:101B2000541A002080B588B000AF78607B681B78BD
:101B3000002B0CBF01230023FB769D4B1B68013B50
:101B4000092B00F2D08101A252F823F0751B00008E
:101B5000E11B00004F1C0000C31C0000051D00001D
:101B6000471D0000891D0000E71E0000151E000033
:101B70008F1E00007B681B78482B03D07B681B7886
:101B8000682B03D18B4B01221A7015E07B681B7800
:101B9000432B03D07B681B78632B03D1854B00223A
:101BA0001A7009E0FB7E83F00103DBB2002B03D047
:101BB00081482CF083F997E1FFF7C8FA03461946EC
:101BC0007E482CF07BF97A4B02221A607C4808F0A0
:101BD000AFFF03467B4A13607B4B01221A7083E1FF
:101BE000FB7E83F00103DBB2002B18D01F22796843
:101BF00076482CF01FFA754B0022DA77734BFB61A5
:101C000009E0FB691B78202B02D1FB692D221A7099
:101C1000FB690133FB61FB691B78002BF1D16C4B35
:101C20001B78002B01D06B4B00E06B4B19466B48C7
:101C30002CF044F95E4B03221A60614808F078FFEB
:101C40000346604A1360604B01221A704CE17B68C6
:101C50001B78532B03D07B681B78732B03D15C4B11
:101C600000221A7015E07B681B78442B03D07B6838
:101C70001B78642B03D1564B01221A7009E0FB7EBE
:101C800083F00103DBB2002B03D055482CF016F98A
:101C90002AE14F4B1B78002B02D0FFF7C9FE23E14E
:101CA000504951482CF00AF9414B04221A6044482B
:101CB00008F03EFF0346434A1360434B01221A706B
:101CC00012E1102247497868FFF714FE034683F0BB
:101CD0000103DBB2002B04D0424944482CF0EEF85B
:101CE00002E1434943482CF0E9F8314B05221A60E0
:101CF000334808F01DFF0346324A1360324B01227D
:101D00001A70F1E010223A497868FFF7F3FD0346B4
:101D100083F00103DBB2002B04D0354936482CF0A8
:101D2000CDF8E1E0354936482CF0C8F8204B0622C2
:101D30001A60234808F0FCFE0346224A1360224B37
:101D400001221A70D0E010222C497868FFF7D2FDEA
:101D5000034683F00103DBB2002B04D02749294856
:101D60002CF0ACF8C0E0284928482CF0A7F8104B1C
:101D700007221A60124808F0DBFE0346114A13607E
:101D8000114B01221A70AFE010221F497868FFF74B
:101D9000B1FD034683F00103DBB2002B04D01A49E6
:101DA0001B482CF08BF89FE0FFF742FE9CE000BF41
:101DB000541A0020581A0020140C0300300C0300A1
:101DC00004080020E81A0020EC1A0020F01A002075
:101DD000800400204C0C0300500C0300540C030042
:101DE000880C030084040020A40C0300BC0C030036
:101DF00094040020FC0C0300140D0300A404002034
:101E0000540D03006C0D0300B4040020AC0D03005E
:101E1000C40D0300364B1B68002B24DD7B681B7848
:101E2000002B07D07B681B78302B1CD97B681B7874
:101E3000392B18D87B681B78302B14D92C4B1B6896
:101E400030337A68127893420DDB7B681B78313B24
:101E50007B617B69942202FB03F3264A13441846F4
:101E6000FFF732FC40E0FB7E83F00103DBB2002B86
:101E700006D01F4B1B6819461F482CF01FF833E093
:101E80001E482CF01BF81E4B0A221A602CE0FB7E29
:101E9000002B03D019482CF011F825E007F11003AE
:101EA0001946786815F090F80346002B0CBF012303
:101EB0000023DBB2002B03D012482BF0FFFF13E00E
:101EC0000023BB600023BB813B69184611F03CF93D
:101ED0000346BB6041F28C33BB8107F1080318460F
:101EE000FFF7F2FB00E000BF00BF2037BD4680BD1A
:101EF000BC1F00201C1B0020540B0300480B0300D8
:101F0000541A0020040E030080B582B000AF5E4B6F
:101F10001B78002B55D05D4808F00AFE78605C4BBA
:101F20001B687A68D31A4EF65F22934249D9564B02
:101F300000221A70574B1B68013B082B3FD801A2A7
:101F400052F823F0771F0000691F0000851F000072
:101F5000931F0000931F0000931F0000931F0000B9
:101F6000BF1F0000A11F00004B482CF017F84B4882
:101F7000FFF7D8FD24E04A482CF010F84948FFF755
:101F8000D1FD1DE048482CF009F84848FFF7CAFD8C
:101F900016E047482CF002F84048FFF7C3FD0FE079
:101FA000444B1B68002B06DD43482BF0F7FF4348EA
:101FB000FFF7B8FD04E03948FFF7B4FD00E000BFCB
:101FC0005FE001F0A9FD38603B68002B56DB314B28
:101FD0001B680B2B0AD13B681B2B51D138482BF0C7
:101FE000DDFFFFF77FFAFFF74FFC49E0264B0022A9
:101FF0001A70274B00221A603B680D2B02D03B68F9
:102000000A2B0ED12F4B1B682F4A0021D1542F4889
:102010002BF0C4FF2C48FFF785FD2A4B00221A60E5
:102020002FE03B68082B02D03B687F2B0CD1254B5F
:102030001B68002B08DD234B1B68013B214A136002
:1020400023482BF03BFF1CE03B681F2B19DD3B684E
:102050007E2B16DC1B4B1B687E2B12DC3B68D8B238
:10206000184B1B685A1C17490A60174A0146D1547D
:102070003B68DBB218462BF033FF02E000BF00E004
:1020800000BF0837BD4680BDEC1A002004080020C0
:10209000E81A0020541A0020200E0300340E03001A
:1020A000380E0300380A0300440E03004C0C0300F2
:1020B000500E0300BC1F0020680E0300740E0300C6
:1020C000780E0300E41A0020641A0020A007030021
:1020D000A00E030090B5BBB000AF786007F1B40369
:1020E000AC49184600F098FC07F1B4031946AA4819
:1020F000FEF746FC07F1B4031846FEF7B2FB07F102
:10210000C403A649184600F0B7FC07F1C4031946FA
:10211000A148FEF744FC07F1C4031846FEF7AEFBE6
:102120009F482BF03BFF9F499F482BF0C7FEFFF7CE
:102130003BFB03219D482BF0C1FE9D4808F0F8FCB5
:1021400003469C4A13609C4B00221A609A4B1B6802
:10215000002B23D101F0E0FCC7F8D400D7F8D4302D
:10216000002B02DBFFF790FB14E0914808F0E0FC45
:102170000246904B1B68D31A40F6B73293428CBF8D
:1021800001230023DBB2002B04D08C482BF006FF88
:10219000FFF74EFC012021F0C9FAE4E1864B1B68F1
:1021A000082B40F095801DF0C9FB854B1B78002B58
:1021B00013D0844B1B6893F8453003F00103002BC8
:1021C00009D0804B1B68184613F006FE0346002B0F
:1021D00001D0012307E0002305E07A4B1B6893F848
:1021E000453003F00103002B14BF0123002387F8BF
:1021F000DF30744B1B6893F845309B10DBB203F063
:102200000103002B14BF0123002387F8DE306D4B40
:102210001B685B68C7F8B0301DF0ACFB97F8DF3087
:10222000002B13D007F1B003184614F0FBFF014652
:10223000634B1B78002B01D0634B00E0634B1A46C5
:1022400063482BF03BFEFFF741FC3DE0584808F0A7
:102250006FFCC7F8D8005F4B1B68D7F8D820D31A9B
:1022600041F28732934215D997F8DE30002B01D026
:10227000594900E05949524B1B78002B01D0524B71
:1022800000E0574B1A4657482BF018FE514AD7F832
:10229000D83013604A4B1B78002B15D0524B1B686B
:1022A000D7F8D820D31A47F22F5293420CD94F486F
:1022B0002BF074FE4C4AD7F8D83013601DF03EFB6B
:1022C00001F00AFB1DF056FB012021F02FFA4AE134
:1022D000394B1B68092B4ED1454B1B68002B4AD14B
:1022E000444A07F108031146942218462BF03BFF9D
:1022F00007F108031946404808F08FFE0346002BFB
:1023000026D03B4B1B68072B22DC394B1B685A1C21
:1023100037490A60394A942101FB03F313441846F4
:1023200007F10803942219462BF01DFF304B196862
:1023300007F1080308331A4631482BF0BFFDBB688C
:102340001846FEF7E9FEBB8919462E482BF0B6FD6C
:10235000174808F0EDFB02462B4B1B68D31A40F6DA
:102360009F7293428CBF01230023DBB2002B02D06B
:102370000020FFF715FB002001F004FD0346002BB1
:1023800044D0002001F05CFD0346002B3ED0012329
:102390003DE000BF33130000781800204114000016
:1023A000A40E030008070300D40E0300E40E03008C
:1023B00004080020101B0020541A0020540F0300B2
:1023C00080040020DCCB0020800F0300880F030076
:1023D000900F0300C81F0020A00F0300A40F0300EC
:1023E000AC0F0300BC0F0300C41F0020E00F03006C
:1023F000BC1F002084100300000000201C1B0020D4
:1024000020100300D8090300C01F00200023002B68
:1024100056D007F1A00304221946002001F03CFE2B
:10242000034687F8E63097F8E630002B48D00023C3
:1024300087F8E7300FE097F8E7309B00E8333B443C
:1024400053F8483C1946484827F044F997F8E730D4
:10245000013387F8E73097F8E72097F8E6309A429B
:10246000E9D3D7F8A0301B0F87F8E53097F8E530AF
:102470000F2B0DD03D4B1B68002B09D03B4B1B682D
:1024800018460AF003FD0346032B01D1012300E0A7
:102490000023002B14D0354B1B6897F8E62007F17A
:1024A000A00118460AF0A9FC034683F00103DBB241
:1024B000002B05D097F8E63019462D482BF0FEFC8E
:1024C0002A4B1B68002B49D0284B1B6818460AF082
:1024D000A2F9264B1B6818460AF0D8FC034687F879
:1024E000E430244B1B78002B38D097F8E430002BD5
:1024F00034D1214B1B7883F00103DBB2002B2DD0AC
:102500001E4B1B680B2B29D11D4808F011FBC7F887
:10251000E0001C4B1B68D7F8E020D31AB3F57A6FA4
:102520001CD31DF00BFA184B1B685B68C7F89C3076
:102530001DF020FA07F19C03184614F073FE0446C0
:102540000F48FEF7ABF8034641F28C3221460F48A4
:102550002BF0B4FC0B4AD7F8E0301360FFF7D4FC43
:10256000012021F0E3F8F1E578180020501A00204E
:102570002C100300581A0020591A0020541A002069
:10258000040800205C1A0020DCCB00205C10030053
:1025900080B483B000AF78607B681A460023136074
:1025A00053607B6800229A607B6818460C37BD46F2
:1025B0005DF8047B704780B582B000AF7860396009
:1025C0007B681A4600231360536093607B6818464B
:1025D000FFF7DEFF7B680022DA607B681846083769
:1025E000BD4680BD80B582B000AF786039607B6841
:1025F0001A4600231360536093607B681846FFF708
:10260000C7FF7B680022DA607B6818460837BD4642
:1026100080BD80B582B000AF786039607B681A46B3
:1026200000231360536093607B681846FFF7B0FF88
:102630007B680022DA607B6818460837BD4680BD9B
:1026400080B582B000AF786039607B681A4600239D
:102650001360536093607B681846FFF799FF7B68AF
:102660000022DA607B6818460837BD4680BD80B519
:1026700082B000AF786039607B681A46002313602F
:10268000536093607B681846FFF782FF7B680022E7
:10269000DA607B6818460837BD4680BD80B582B0D9
:1026A00000AF786039607B681A460023136053607E
:1026B00093607B681846FFF76BFF7B680022DA6047
:1026C0007B6818460837BD4680BD80B582B000AF34
:1026D000786039607B681A4600231360536093600A
:1026E0007B681846FFF754FF7B680022DA607B683E
:1026F00018460837BD4680BD80B582B000AF78600F
:1027000039607B681A4600231360536093607B68CE
:102710001846FFF73DFF7B680022DA607B681846A9
:102720000837BD4680BD80B582B000AF78603960A3
:102730007B681A4600231360536093607B681846D9
:10274000FFF726FF7B680022DA607B6818460837AF
:10275000BD4680BD80B582B000AF786039607B68CF
:102760001A4600231360536093607B681846FFF796
:102770000FFF7B680022DA607B6818460837BD4689
:1027800080BD80B582B000AF786039607B681A4642
:1027900000231360536093607B681846FFF7F8FED0
:1027A0007B680022DA607B6818460837BD4680BD2A
:1027B00080B582B000AF786039607B681A4600232C
:1027C0001360536093607B681846FFF7E1FE7B68F7
:1027D0000022DA607B6818460837BD4680BD80B5A8
:1027E00082B000AF786039607B681A4600231360BE
:1027F000536093607B681846FFF7CAFE7B6800222F
:10280000DA607B6818460837BD4680BD80B582B067
:1028100000AF786039607B681A460023136053600C
:1028200093607B681846FFF7B3FE7B680022DA608E
:102830007B6818460837BD4680BD80B582B000AFC2
:10284000786039607B681A46002313605360936098
:102850007B681846FFF79CFE7B680022DA607B6885
:1028600018460837BD4680BD80B582B000AF78609D
:1028700039607B681A4600231360536093607B685D
:102880001846FFF785FE7B680022DA607B681846F1
:102890000837BD4680BD80B582B000AF7860396032
:1028A0007B681A4600231360536093607B68184668
:1028B000FFF76EFE7B680022DA607B6818460837F7
:1028C000BD4680BD80B582B000AF786039607B685E
:1028D0001A4600231360536093607B681846FFF725
:1028E00057FE7B680022DA607B6818460837BD46D1
:1028F00080BD80B582B000AF786039607B681A46D1
:1029000000231360536093607B681846FFF740FE16
:102910007B680022DA607B6818460837BD4680BDB8
:1029200080B582B000AF786039607B681A460023BA
:102930001360536093607B681846FFF729FE7B683D
:102940000022DA607B6818460837BD4680BD80B536
:1029500082B000AF786039607B681A46002313604C
:10296000536093607B681846FFF712FE7B68002275
:10297000DA607B6818460837BD4680BD80B582B0F6
:1029800000AF786039607B681A460023136053609B
:1029900093607B681846FFF7FBFD7B680022DA60D6
:1029A0007B6818460837BD4680BD80B586B000AF4D
:1029B0007860396007F108033968184600F08CF830
:1029C00007F108037968184600F0B1F807F1080329
:1029D0001846FDF746FF7B6818461837BD4680BD90
:1029E00080B586B000AF7860396007F108033968B8
:1029F000184600F0BDF807F108037968184600F0A2
:102A0000E2F807F108031846FDF738FF7B6818461F
:102A10001837BD4680BDFFFF90B583B000AF78602A
:102A200039607B681A4600231360536093607B68AB
:102A30001846FFF7ADFD7B680022DA60386800F0C9
:102A4000E3F80346002B0ED07C68386800F0ECF801
:102A500003461946204600F0F2F87B68044ADA6023
:102A60007B68044A9A607B6818460C37BD4690BD67
:102A7000632C0000A32C000090B583B000AF7860F9
:102A800039607B681A4600231360536093607B684B
:102A90001846FFF77DFD7B680022DA60386800F099
:102AA0001FF90346002B0ED07C68386800F028F927
:102AB00003461946204600F02EF97B68044ADA6086
:102AC0007B68044A9A607B6818460C37BD4690BD07
:102AD0003B2D0000712D000080B582B000AF786002
:102AE00039607B681A4600231360536093607B68EB
:102AF0001846FFF74DFD7B680022DA60386800F069
:102B00009CF90346002B0DD03B689B6878683968B8
:102B1000022298473B68DA687B68DA603B689A680B
:102B20007B689A607B6818460837BD4680BD80B5D3
:102B300082B000AF786039607B683A681146184609
:102B400000F035F97B6803F108023B680833194649
:102B5000104600F053F97B6803F10C023B680C331C
:102B60001946104600F079F900BF0837BD4680BD10
:102B700080B582B000AF786039607B681A46002368
:102B80001360536093607B681846FFF701FD7B6814
:102B90000022DA60386800F07FF90346002B0DD080
:102BA0003B689B6878683968022298473B68DA6816
:102BB0007B68DA603B689A687B689A607B68184635
:102BC0000837BD4680BD80B582B000AF78603960FF
:102BD0007B683A681146184600F0E9F87B6803F113
:102BE00008023B6808331946104600F007F97B6875
:102BF00003F10C023B680C331946104600F05CF9F7
:102C000000BF0837BD4680BD80B483B000AF786098
:102C10007B68002B14BF01230023DBB218460C375E
:102C2000BD465DF8047B704780B483B000AF786028
:102C30007B6818460C37BD465DF8047B704790B53D
:102C400083B000AF786039603868FFF7EDFF034666
:102C500022461946786800F04EF900BF0C37BD4691
:102C600090BDF0B585B000AFF860B9607A603B60A8
:102C7000F86800F058F90446B86800F064F90546B1
:102C8000786800F060F90646386800F05CF90346A1
:102C900032462946204600F061F900BF1437BD4690
:102CA000F0BD90B585B000AFF860B9601346FB7118
:102CB000FB79012B09D1B86800F035F90446F868B2
:102CC00000F070F903461C6005E0FB791A46B9680C
:102CD000F86800F073F9002318461437BD4690BD1C
:102CE00080B483B000AF78607B68002B14BF0123F1
:102CF0000023DBB218460C37BD465DF8047B7047F5
:102D000080B483B000AF78607B6818460C37BD464E
:102D10005DF8047B704790B583B000AF7860396090
:102D20003868FFF7EDFF034622461946786800F041
:102D30007FF900BF0C37BD4690BDB0B584B000AF81
:102D4000F860B9607A60F86800F08AF90446B868FB
:102D500000F0F9F80546786800F0F5F803461A46E1
:102D60002946204600F08CF900BF1037BD46B0BDA3
:102D700090B585B000AFF860B9601346FB71FB7980
:102D8000012B09D1B86800F06BF90446F86800F02F
:102D900092F903461C6005E0FB791A46B968F868A9
:102DA00000F096F9002318461437BD4690BD80B553
:102DB00084B000AF78603960786800F0C3F90246EB
:102DC00007F1080392E8030083E80300386800F085
:102DD000B9F902467B6892E8030083E8030007F133
:102DE0000803184600F0AEF902463B6892E803007B
:102DF00083E8030000BF1037BD4680BD80B584B0B6
:102E000000AF78603960786800F0A7F903461B6866
:102E1000FB60386800F0A1F903461A687B681A6005
:102E200007F10C03184600F098F903461A683B684E
:102E30001A6000BF1037BD4680BD80B582B000AFBC
:102E400078607B681846FDF76CFC034683F001034D
:102E5000DBB218460837BD4680BD80B584B000AFF0
:102E600078603960786800F083F903461B68FB607E
:102E7000386800F07DF903461A687B681A6007F12C
:102E80000C03184600F074F903461A683B681A6090
:102E900000BF1037BD4680BD80B582B000AF7860FE
:102EA0007B681846FDF73DFC034683F00103DBB267
:102EB00018460837BD4680BD80B584B000AF786045
:102EC0003960786800F05FF903461B68FB6038687A
:102ED00000F059F903461A687B681A6007F10C0381
:102EE000184600F050F903461A683B681A6000BFA4
:102EF0001037BD4680BD90B585B000AFF860B960B1
:102F00003A71F868FDF7E4FB034619460420FDF723
:102F1000D3FB0446B868FFF787FE0346236000BF73
:102F20001437BD4690BD80B584B000AF7860786836
:102F300000F034F9F860F86800F03CF903461846F0
:102F40001037BD4680BD80B483B000AF78607B6829
:102F500018460C37BD465DF8047B70472DE9F041FB
:102F600086B002AFF860B9607A603B60F86800F044
:102F70002CF90446B868FFF7E6FF05467868FFF7C6
:102F8000E2FF06463868FFF7DEFF0346009333464C
:102F90002A462146404600F023F900BF1037BD46BF
:102FA000BDE8F08180B582B000AF78607868FDF749
:102FB0008FFB034618460837BD4680BD90B585B0E7
:102FC00000AFF860B9601346FB71FB79032B2AD878
:102FD00001A252F823F000BFE92F0000F72F0000F4
:102FE0000B3000001D300000F86800F01CF90346AB
:102FF00000221A6017E0B868FFF795FF0446F868EA
:10300000FFF7D0FF03461C600DE0B868FFF78BFFA9
:1030100003461946F86800F012F904E02146F86802
:1030200000F01FF900BF002318461437BD4690BDBD
:1030300090B585B000AFF860B9603A71F868FDF7F7
:1030400047FB034619460420FDF736FB0446B868E3
:10305000FFF756FE0346236000BF1437BD4690BD00
:1030600080B584B000AF7860786800F006F9F86049
:10307000F86800F00EF9034618461037BD4680BDCB
:10308000F0B585B000AFF860B9607A60F86800F01C
:103090000BF90446B868FFF756FF05467868FFF756
:1030A00052FF03462A462146304600F008F900BF89
:1030B0001437BD46F0BD80B582B000AF7860786847
:1030C000FDF706FB034618460837BD4680BDFFFFE7
:1030D00090B585B000AFF860B9601346FB71FB791D
:1030E000032B2AD801A252F823F000BFFD300000C4
:1030F0000B3100001F31000031310000F86800F092
:1031000092F8034600221A6017E0B868FFF7A8FF9C
:103110000446F868FFF7CFFF03461C600DE0B8686F
:10312000FFF79EFF03461946F86800F0E5F804E053
:103130002146F86800F0F2F800BF00231846143763
:10314000BD4690BD80B483B000AF78607B68184600
:103150000C37BD465DF8047B704780B483B000AF88
:1031600078607B6818460C37BD465DF8047B704775
:1031700080B483B000AF78607B6818460C37BD46DA
:103180005DF8047B704780B483B000AF78607B68E3
:1031900018460C37BD465DF8047B704780B582B099
:1031A00000AF78607868FDF79EFA03461846083746
:1031B000BD4680BD80B483B000AF78607B681846A0
:1031C0000C37BD465DF8047B704780B483B000AF18
:1031D00078607B6818460C37BD465DF8047B704705
:1031E000F0B585B000AF3873B9607A603B60B868FD
:1031F000FFF7EBFF03461C687868FFF7A4FE034661
:103200001D783868FFF79FFE03461E78B86AFFF7FF
:103210009AFE03461B781A4631462846A04700BF4F
:103220001437BD46F0BD80B582B000AF78607868D5
:10323000FDF74EFA034618460837BD4680BD90B5E7
:1032400083B000AF78603960386800F073F80346E7
:1032500022461946786800F078F800BF0C37BD4662
:1032600090BD80B582B000AF78603970786800F0AA
:1032700085F800BF0837BD4680BD80B582B000AF7D
:1032800078607868FDF72FFA034618460837BD4680
:1032900080BD80B483B000AF78607B6818460C377F
:1032A000BD465DF8047B704780B483B000AF7860A2
:1032B0007B6818460C37BD465DF8047B7047B0B597
:1032C00084B000AF3873B9607A603B60B868FFF7CC
:1032D000EBFF03461C687868FFF735FE03461D7850
:1032E0003868FFF730FE03461B7819462846A0478A
:1032F00000BF1037BD46B0BD90B583B000AF786059
:103300003960386800F046F8034622461946786866
:1033100000F04BF800BF0C37BD4690BD80B582B0C1
:1033200000AF78603970786800F058F800BF08374F
:10333000BD4680BD80B483B000AF78607B6818461E
:103340000C37BD465DF8047B704790B585B000AF83
:10335000F860B9603A71F868FDF7BAF903461946A2
:103360000420FDF7A9F90446B868FFF7E3FF034618
:103370001B68236000BF1437BD4690BD80B582B086
:1033800000AF78607868FDF7A3F903461846083760
:10339000BD4680BD80B483B000AF78607B681846BE
:1033A0000C37BD465DF8047B704790B585B000AF23
:1033B000F860B9603A71F868FDF78AF90346194672
:1033C0000420FDF779F90446B868FFF7E3FF0346E8
:1033D0001B68236000BF1437BD4690BD80B582B026
:1033E00000AF78607868FDF773F903461846083730
:1033F000BD4680BD80B582B000AF7860054A7B686D
:103400001A607B681846FDF79FFD7B6818460837F1
:10341000BD4680BDEC1E030080B582B000AF786071
:103420007868FFF7E7FF4FF490617868FDF72BF8B5
:103430007B6818460837BD4680BD80B582B000AFB6
:1034400078607B6803F5E2731846FDF78CFA7B68B9
:1034500003F5DA731846FDF779FA7B6803F5D27342
:103460001846FDF766FA7B6803F5CA731846FDF740
:1034700053FA7B6803F5C2731846FDF74DFA7B6873
:1034800003F5BA731846FDF73AFA7B6803F5B27391
:103490001846FDF727FA7B6803F5AA731846FDF76F
:1034A00014FA7B6803F5A2731846FDF70EFA7B68E1
:1034B00003F59A731846FDF76CF97B6803F5927370
:1034C0001846FDF766F97B6803F58A731846FDF721
:1034D000EFF97B6803F582731846FDF7DCF97B682A
:1034E000F4331846FDF7CAF97B68E4331846FDF754
:1034F000B8F97B68D4331846FDF7A6F97B68C43366
:103500001846FDF794F97B68B4331846FDF78FF938
:103510007B68A4331846FDF77DF97B689433184621
:10352000FDF76BF97B6884331846FDF759F97B6822
:1035300074331846FDF747F97B6864331846FDF786
:1035400035F97B6854331846FDF723F97B6844331B
:103550001846FDF7F7F87B6834331846FDF70CF989
:103560007B6824331846FDF7FAF87B681433184655
:10357000FDF7E8F87B6818460837BD4680BDFFFFB9
:1035800080B500AF0B4807F06BF90B4A0B490948AF
:103590002AF0DAFD084A0A490A482AF0D5FD0A4805
:1035A000FDF7F2FC044A094907482AF0CDFD00BFA7
:1035B00080BD00BF0408002000080020C1A8000052
:1035C000F533000000000020781800203B34000094
:1035D00080B500AFFFF7D4FF80BDFFFF80B483B09C
:1035E00000AF03463960FB80B7F90630002B0ADBD9
:1035F0003B68DAB20C49B7F906305201D2B20B443B
:1036000083F800230AE03B68DAB20849FB8803F03C
:103610000F03043B5201D2B20B441A7600BF0C37A1
:10362000BD465DF8047B704700E100E000ED00E07E
:1036300080B485B000AF0346FB80FB881B0AFB60AB
:10364000FB88DBB2BB60FB68FA2B12D14FF08043E2
:10365000D3F8382E0121BB6801FA03F34FF0804103
:103660001343C1F8383E4FF080434022C3F82C2268
:103670001EE0FB68FB2B12D14FF08043D3F83C2EA9
:103680000121BB6801FA03F34FF080411343C1F8F5
:103690003C3E4FF080438022C3F82C2208E04FF0DC
:1036A00080410122BB689A40FB68883341F823209F
:1036B00000BF1437BD465DF8047B704780B487B007
:1036C00000AF78607B689B693B613B6903F40063F2
:1036D000002B0ED13B6903F40063002B0BD13B6937
:1036E00003F01003002B06D13B6903F00203002B0B
:1036F00001D0012300E00023FB73FB7B002B06D0ED
:103700007B68DB69DBB203F07F03FB7502E07B685B
:10371000DB69FB75FB7D18461C37BD465DF8047BF5
:10372000704780B483B000AF78607B68DB6A1B0EA3
:10373000DBB203F00F03DBB218460C37BD465DF871
:10374000047B704780B582B000AF0346FB710B4627
:10375000BB711346BB80BB88BA79F979034804F082
:10376000CEFC034618460837BD4680BD0000104019
:1037700080B582B000AF03463A60FB710B46BB7167
:10378000BA79F9793B68044804F0D4FC034618463A
:103790000837BD4680BD00BF0000104080B500AFB7
:1037A0000C20FFF745FF02F0FBFD02F00BFD02F0DD
:1037B000A7FC41F2D40002F073FF40F20220FFF7B1
:1037C00037FF4FF080430422C3F808214FF08043B5
:1037D000D3F808314FF0804223F00403C2F80831D7
:1037E00003F010FA034619460C4804F0CBFB0C4BCF
:1037F0001B6898680023022200212AF033F9022175
:103800008B20FFF7EBFE02218C20FFF7E7FE022161
:103810008D20FFF7E3FE00BF80BD00BF0000104019
:103820004005002080B588B004AF78607B68002B2D
:1038300001D07B6800E01D4BFB601D4B1D4A5A60A8
:103840001B4B1D4A1A60242200211C482AF0D8FB79
:103850001A4B1B4A1A60194B00221A71174B194A4E
:103860009A60164B124ADA60144B174A1A61134BCE
:10387000FA6814331068186092889A800023BB603D
:1038800007F1080307F1080207F108010F48029049
:103890000F480190094800900E4814F029FA0D488D
:1038A00014F03CFC00BF1037BD4680BD3C11030046
:1038B000282000207137000045370000302000200C
:1038C0001C200020E454030080F0FA025DD80000C0
:1038D00059040200CC1F002080B500AF034814F04B
:1038E0002DFC024811F060F800BF80BDCC1F002005
:1038F00080B58AB000AFF860B9607A603B6007F1CC
:1039000024031946F86813F05FFB0346002B11D01F
:1039100007F120031946B86813F056FB0346002B45
:1039200008D007F11C031946786813F04DFB0346D5
:10393000002B01D1012300E00023002B01D0002344
:1039400029E007F11C0307F1200207F124011448C4
:1039500014F056FB124814F0F1FB3B68002B19D011
:103960003B681B78002B15D007F1180319463868FF
:1039700013F02AFB0346002B14BF01230023DBB204
:10398000002B07D0BB697B6107F1140319460020A7
:103990000FF0AAFC012318462837BD4680BD00BFA2
:1039A000CC1F002080B582B000AF554B4FF4A06211
:1039B000C3F82421524BD3F80031514A23F00103BC
:1039C000C2F800314E4BD3F800314D4A43F46163E5
:1039D00043F00C03C2F8003100BF494B1B6903F0F0
:1039E0000103002B14BF01230023DBB2002BF4D111
:1039F000444BD3F8003803F00103002B0CBF012324
:103A00000023DBB2002B13D03E4B3F4A9A603D4B64
:103A1000D3F800383B4A43F00103C2F8003800BF36
:103A2000384BD3F80038DB43DB0FDBB2002BF7D188
:103A30004FF08043D3F828324FF0804243F44033B4
:103A4000C2F828322F4BD3F808312E4A23F0340322
:103A5000C2F808312B4B1422C3F80821294BD3F8A4
:103A60000031284A43F00103C2F8003100BF254B62
:103A7000D3F8003103F08073002B0CBF0123002327
:103A8000DBB2002BF3D14FF08043D3F8183A4FF05C
:103A9000804243F02203C2F8183A4FF40470FFF753
:103AA000C7FD40F21120FFF7C3FD1849002003F0C5
:103AB0000BFA03F0C1FA164B1F22C3F83021144B46
:103AC0001B6B134A43F440431363114B00221A60EB
:103AD0000F4B1B697B607B6823F00F1323F470632B
:103AE0007B607A680B4B13437B60094A7B681361E8
:103AF00002214320FFF772FD00BF0837BD4680BD9D
:103B0000005004400040044001005A5A00366E0143
:103B100000A010400407070080B582B000AF134B2F
:103B20007B60786805F012FD38603B6803F4602321
:103B3000002B04D04FF46021786805F037FD7868D9
:103B4000FFF7EFFD0346002B14BF01230023DBB278
:103B5000002B04D07868FFF7B1FD034601E04FF079
:103B6000FF3318460837BD4680BD00BF00400B40FC
:103B700080B584B000AFF860B9607A607B681A469F
:103B8000B968044805F05CFD7B6818461037BD46EF
:103B900080BD00BF00400B4080B500AF0121012077
:103BA00021F036FF00BF80BD80B582B000AF7860E5
:103BB000396029F091FA3A687968024806F068FBA2
:103BC00000BFFDE74411030080B582B000AF78600C
:103BD00039603968024806F05BFB00BFFDE700BFB3
:103BE0005C11030080B500AF024806F051FB00BF36
:103BF000FDE700BF7C11030080B400AF024B184604
:103C0000BD465DF8047B7047A011030080B483B00B
:103C100000AF0346FB71034B18460C37BD465DF8F9
:103C2000047B7047C011030080B400AF024B1846FC
:103C3000BD465DF8047B7047B411030080B586B0C3
:103C400000AF03460A46FB711346BB80FB79002B8D
:103C500009D1214BFB60FB681B889AB21F4B5A802D
:103C60000123FB7527E0FB79072B01D900232FE007
:103C7000FB791B4A52F823303B6138692AF080FAFD
:103C80000346FB75FB7D1F2B01D91F23FB7500230A
:103C9000BB750CE0BB7D3A6913441A78BB7D0133D8
:103CA00011460E4A22F81310BB7D0133BB75BA7D55
:103CB000FB7D9A42EED3FB7D01339BB25B009BB24E
:103CC0001BB243F440731BB29AB2044B1A80034BED
:103CD00018461837BD4680BDE81203005420002066
:103CE000C804002080B586B000AF03463960FB7180
:103CF0003B685B889BB242F2016293422BD13B68E6
:103D00009A79DB791B021343FB823B689B889BB249
:103D1000FB730123BB6000233B6116E00122FB7BA8
:103D200093420FD12C231A46FB8A934201D92C23AC
:103D3000FB820B4A3B6952F82320FB8AF8793968E9
:103D400024F016FC3B6901333B613A69BB689A4237
:103D5000E4DB012300E0002318461837BD4680BD90
:103D6000C404002080B483B000AF78607B68012277
:103D70001A70034B18460C37BD465DF8047B70473C
:103D8000F012030080B485B000AF0346FB71FB79ED
:103D900040F6741202FB03F3094A1344FB60FB680C
:103DA0005B78002B05D0FB689B78002B01D00123AA
:103DB00000E0002318461437BD465DF8047B7047C9
:103DC0009420002080B584B000AF78600123FB739D
:103DD0007B6803F5A273184622F0E5FC0346BB811D
:103DE000BB89B3F5007F28D37B689B7819460120F7
:103DF00024F0A8F9034683F00103DBB2002B1CD1A9
:103E00007B6803F5A273184622F0CDFC0346BB8104
:103E1000BB89B3F5007F0AD37B6899787B6803F58B
:103E2000AE624FF40073012024F0E8F905E07B68EE
:103E30009B781946012024F0B3F91037BD4680BDA8
:103E400080B584B000AF0346FB71FB7940F6741275
:103E500002FB03F3074A1344FB60FB6803F5A273FC
:103E6000184622F06EFC03469B089BB2184610379A
:103E7000BD4680BD9420002080B592B000AF39606F
:103E800011461A460346FB710B46BB801346BB71B5
:103E9000FB7940F6741202FB03F37E4A1344FB6382
:103EA0000023A7F84630FB6B9B78002B01D1002341
:103EB000ECE0FB6B93F87039002B40F0C680A0E07B
:103EC000FB6B03F5A27307F128010222184622F0CA
:103ED000B4FC0346022B14BF01230023DBB2002BEA
:103EE00040F0CA8097F8283003F00F0387F8453078
:103EF000002387F8443097F845300F2B0AD197F804
:103F000029305BB2002B05DA052387F84530012301
:103F100087F8443097F84530042B12D097F8453095
:103F2000052B06D197F8443083F00103DBB2002B58
:103F300007D197F84530062B03D097F84530072B6B
:103F400001D1012300E0002387F83B3097F83B3094
:103F5000002B06D0BA88B7F84630D31A012B40F3AD
:103F60008D80FB6B03F5A27307F124010422184630
:103F700022F051FC0346042B14BF01230023DBB2C3
:103F8000002B7DD17B6A002B3BD007F124037B63A0
:103F90007B6B1B781B0987F83330786A97F83330CE
:103FA000FA6B1344033307F11002194601F056FA75
:103FB0000346002B25D0002387F843301CE097F8F8
:103FC00043309B0048333B4453F8343CFB62BB799D
:103FD000002B02D0FB6A1BBA00E0FB6A3968B7F815
:103FE0004620501CA7F8460092000A44136097F838
:103FF0004330013387F843303B7C97F843209A42A3
:10400000DDD3BA88B7F84630D31A002B3FF758AF44
:1040100037E0BB79002B0CD007F10C031A68396824
:10402000B7F84630581CA7F846009B000B441A60AE
:104030000BE007F10C031A683968B7F84630581CD2
:10404000A7F846009B000B441A60B7F84620BB88CF
:104050009A420DD2FB6B03F5A27307F10C01042207
:10406000184622F0D8FB0346042B01D1012300E0BF
:104070000023002BCDD104E000BF02E000BF00E030
:1040800000BFF86BFFF79EFEB7F84630184648377A
:10409000BD4680BD9420002080B582B000AF0346AD
:1040A0003960FB711346BB80BA88F87901233968FF
:1040B000FFF7E2FE034618460837BD4680BDFFFF06
:1040C00080B584B000AF78607B6803F5AC731846A8
:1040D00022F037FB0346002B0CBF01230023DBB289
:1040E000002B01D0002347E00123FB737B685B7842
:1040F0001946012024F026F8034683F00103DBB2C1
:10410000002B01D0002337E07B6803F5AC707B689F
:1041100003F5EE634FF40072194622F07CFB034670
:10412000BB81BB89002B20D07B6859787B6803F565
:10413000EE62BB89012024F061F8034683F001039D
:10414000DBB2002B0FD00E4BBB60BB681B6803F0CB
:104150000103002B14BF01230023DBB2002B00D08E
:1041600000BE002308E0BB8906E07B685B78194647
:10417000012024F015F8002318461037BD4680BDF5
:10418000F0ED00E0F0B5A5B000AF396011461A4679
:104190000346FB710B46BB801346BB71FB7940F6AF
:1041A000741202FB03F3A74A1344FB66FB6E9B7871
:1041B000002B02D1002300F089BC0023A7F88E3029
:1041C00000F077BCFB6E93F87039012B00F0FA8396
:1041D0009D4B00221A70BB79002B07D0B7F88E30A8
:1041E0009B003A6813441B681BBA05E0B7F88E3091
:1041F0009B003A6813441B68934A5360924B1B79A7
:1042000003F0F003F02B45D0F02B47DCE02B41D03E
:10421000E02B43DCD02B3DD0D02B3FDCC02B35D066
:10422000C02B3BDCB02B31D0B02B37DCA02B29D0FE
:10423000A02B33DC902B25D0902B2FDC802B21D092
:10424000802B2BDC702B19D0702B27DC602B15D02A
:10425000602B23DC502B1DD0502B1FDC402B11D0AA
:10426000402B1BDC302B0DD0302B17DC202B05D046
:10427000202B13DC002B01D0102B0FD1724B01220D
:104280001A7012E0704B02221A700EE06E4B03227D
:104290001A700AE06C4B04221A7006E0B7F88E30F0
:1042A0000133A7F88E3000F004BCBA88B7F88E301E
:1042B000D31A654A12789342C0F202840123C7F8E8
:1042C000843021E0BB79002B0AD0B7F88E20D7F8D4
:1042D000843013449B003A6813441B681ABA08E000
:1042E000B7F88E20D7F8843013449B003A68134403
:1042F0001A685549D7F884309B000B445A60D7F8A8
:1043000084300133C7F884304F4B1B781A46D7F8F6
:1043100084309342D6DB4C4B1B7903F00F0387F8B4
:104320006730494B1B7923F00F0387F8663097F805
:104330006630302B00F09E80302B00F31D83102B55
:1043400002D0202B6AD017E3404B01221A703E4B5B
:104350005B79F13B0E2B42D801A252F823F000BF4B
:10436000B3430000C9430000B34300009D43000075
:104370009D4300009D430000DF4300009D4300007B
:104380009D4300009D4300009D4300009D430000AD
:104390009D4300009D4300009D43000097F9673056
:1043A0001B015BB243F005035BB2DAB2274B1A7113
:1043B00019E097F967301B015BB243F002035BB26F
:1043C000DAB2224B1A710EE097F967301B015BB22B
:1043D00043F003035BB2DAB21C4B1A7103E01B4BD0
:1043E00000221A7000BF0123C7F8803011E0164A7E
:1043F000D7F88030134404331978144AD7F8803042
:10440000134404330A461A70D7F880300133C7F8D2
:104410008030D7F88030032BE9DDBAE20B4B012264
:104420001A7097F967301B015AB2074B5B791B0969
:10443000DBB25BB213435BB2DAB2044B1A710123F5
:10444000FB6713E094200020082A00201C2A00208B
:10445000BF4AFB6F134404331978BE4AFB6F134401
:1044600004330A461A70FB6F0133FB67FB6F032BA3
:10447000EEDD8EE2002387F88D30002387F88C3044
:10448000B44B00221A70B24B5B7903F0F003302B6F
:1044900009D0302B0EDC002B02D0102B07D009E006
:1044A000012387F88D30012387F88C3006E0012343
:1044B00087F88D30002387F88C3000BF97F88D3057
:1044C000002B18D097F86720F96E1346DB001344D1
:1044D0005B0013440B4413331B78002B0BD097F86D
:1044E0006720F96E1346DB0013445B0013440B4452
:1044F000133300221A7097F88D30002B33D097F8C1
:104500006720F96E1346DB0013445B0013440B4431
:1045100013331B7883F00103DBB2002B23D097F811
:104520006720F96E1346DB0013445B0013440B4411
:10453000253300221A7097F86720F96E1346DB00C6
:1045400013445B0013440B44243300221A7097F881
:104550006720F96E1346DB0013445B0013440B44E1
:10456000133301221A707A4B5B791B0987F8653087
:10457000002387F88B3097F86530012B0DD897F81A
:104580008B300F2B09D897F88B305A1C87F88B206B
:1045900090333B44F02203F8442C002387F87B300F
:1045A00017E097F88B300F2B0ED897F87B3002333B
:1045B000674A13441A7997F88B30591C87F88B1087
:1045C00090333B4403F8442C97F87B30013387F851
:1045D0007B3097F87B205E4B5B7903F00F039A42A8
:1045E000DFDB97F86530002B03D097F86530032B9D
:1045F0000DD197F88B300F2B09D897F88B305A1CB8
:1046000087F88B2090333B44F72203F8442C002397
:1046100087F87A3048E097F87A3090333B4413F8C3
:10462000445C97F8671097F86720F86E1346DB0034
:1046300013445B001344034425331878431CDEB253
:10464000FC6E1346DB0013445B0013442344253304
:1046500032461A70FA6E0B46DB000B445B000B44CB
:104660001344034414332A461A7097F86720F96EEE
:104670001346DB0013445B0013440B4425331B78C3
:1046800097F8672003F00F03D8B2F96E1346DB00EA
:1046900013445B0013440B44253302461A7097F809
:1046A0007A30013387F87A3097F87A2097F88B3090
:1046B0009A42B0D397F86720F96E1346DB00134493
:1046C0005B0013440B442533197897F86720F86E84
:1046D0001346DB0013445B001344034424331B786C
:1046E000994218D997F86720F96E1346DB001344F6
:1046F0005B0013440B442533197897F86720F86E54
:104700001346DB0013445B001344034424331B783B
:10471000CB1ADBB219E097F86720F96E1346DB007D
:1047200013445B0013440B442533197897F8672032
:10473000F86E1346DB0013445B0013440344243338
:104740001B78CB1ADBB21033DBB287F88B3007E172
:10475000082A00201C2A0020B04B1B78AF4A9B007F
:10476000134400225A6097F88B30022B78D9AB4B58
:104770001B789B00A94A13440433FB65002387F888
:1047800079304DE097F8671097F86720F86E134678
:10479000DB0013445B001344034424331878431CA8
:1047A000DDB2FC6E1346DB0013445B00134423446C
:1047B00024332A461A70044697F879300133FA6D8B
:1047C0001A44F86E0B46DB000B445B000B440344B9
:1047D000234414331B78137097F86720F96E13463F
:1047E000DB0013445B0013440B4424331B7897F81D
:1047F000672003F00F03D8B2F96E1346DB001344B1
:104800005B0013440B44243302461A7097F88B3034
:10481000013B87F88B3097F87930013387F879308E
:1048200097F87930022BADD997F88C30002B0DD04A
:1048300097F88B30002B09D197F867301B01DBB25A
:1048400043F00703DAB2FB6D1A7083E097F8673024
:104850001B01DBB243F00403DAB2FB6D1A7079E09E
:1048600097F88C30002B00F085806C4B1B789B00F8
:104870006A4A134404333B66002387F878304DE0DE
:1048800097F8671097F86720F86E1346DB0013441B
:104890005B001344034424331878431CDDB2FC6EE0
:1048A0001346DB0013445B001344234424332A469D
:1048B0001A70044697F8783001333A6E1A44F86E4D
:1048C0000B46DB000B445B000B44034423441433CE
:1048D0001B78137097F86720F96E1346DB001344BA
:1048E0005B0013440B4424331B7897F8672003F0D4
:1048F0000F03D8B2F96E1346DB0013445B00134478
:104900000B44243302461A7097F88B30013B87F82A
:104910008B3097F87830013387F8783097F88B3000
:10492000002BADD197F87830012B09D197F867307B
:104930001B01DBB243F00503DAB23B6E1A7009E0EB
:1049400097F867301B01DBB243F00603DAB23B6E27
:104950001A7000BF314B1B780133DAB22F4B1A703B
:1049600097F88B30002B13D02C4B1B78032B7FF642
:10497000F3AE0DE000BF0BE0294B1B781A46B7F8E9
:104980008E301344A7F88E30244B00221A7000E0BA
:1049900000BF224B1B78002B00F08B80204B1B7834
:1049A0001A46B7F88E301344A7F88E30FB6E03F525
:1049B000AC731A4A1278920092B21A49184621F042
:1049C000D0FF76E0FB6E03F5AC73184621F0EBFEEA
:1049D00003469B08A7F86A30B7F86A20BB889A425A
:1049E00002D2B7F86A3000E0BB88A7F88E30BB79F6
:1049F000002B53D00023A7F87630B7F88E30A7F8F5
:104A0000743046E0B7F87430102B28BF1023A7F895
:104A100068300023A7F872301BE000BF1C2A00207A
:104A2000082A0020202A0020B7F87620B7F8723034
:104A300013449B003A681A44B7F8723012689B001E
:104A400090333B4443F8842CB7F872300133A7F815
:104A50007230B7F87220B7F868309A42E4D3FB6E30
:104A600003F5AC70B7F868309B009AB207F10C03FD
:104A7000194621F076FFB7F87620B7F8683013446E
:104A8000A7F87630B7F87420B7F86830D31AA7F8CB
:104A90007430B7F87430002BB4D10AE0FB6E03F524
:104AA000AC70B7F88E309B009BB21A46396821F083
:104AB00058FFB7F88E20BB889A42FFF483AB00E022
:104AC00000BFF86EFFF7FCFAB7F88E30184694373F
:104AD000BD46F0BD80B582B000AF03463960FB71C2
:104AE0001346BB80BA88F87901233968FFF74AFB7F
:104AF000034618460837BD4680BDFFFF90B58DB010
:104B000002AF40F674120021334829F079FA0023ED
:104B100087F8273057E097F8273040F6741202FBE9
:104B200003F32D4A13443B623B6A03F5A2703B6AD0
:104B300003F5B6710023009301234FF4007221F0B6
:104B400080F93B6A03F5AC703B6A03F55B710023A7
:104B5000009301234FF4007221F073F93B6A0022A5
:104B600083F870293B6A03F5A2743B6A03F26C5325
:104B70003B6001201DF08DFF0346FC600022BA60FF
:104B80007B60FB68BA68DA60FB687A681A6100BF0C
:104B90003B6A03F5AC743B6A03F26D533B61012041
:104BA0001DF077FF0346FC61BB6100237B61FB695D
:104BB000BA69DA60FB697A691A6100BF97F8273031
:104BC000013387F8273097F82730002BA3D000BF98
:104BD00000BF2C37BD4690BD9420002080B400AFAC
:104BE00001231846BD465DF8047B704780B584B04C
:104BF00000AF0346FB710023FB734FE0FB7B40F6E5
:104C0000741202FB03F3294A1344BB604FF4A272EF
:104C10000021B86829F0F4F9BB6803F5A2731846BF
:104C200021F0B1FEBB6803F5AC73184621F0ABFE72
:104C30000023BB7328E0BB7BBA6813440022DA7000
:104C4000BA7BB9681346DB0013445B0013440B4482
:104C5000133300221A70BA7BB9681346DB00134481
:104C60005B0013440B44253300221A70BA7BB968E9
:104C70001346DB0013445B0013440B44243300222F
:104C80001A70BB7B0133BB73BB7B0F2BD3D9BB68C3
:104C9000002283F87029FB7B0133FB73FB7B002B25
:104CA000ACD000BF00BF1037BD4680BD94200020AF
:104CB00080B5B6B000AF03463960FB711346BB80C8
:104CC0003B685B79012B07D13B689B79012B03D1B2
:104CD0003B68DB79002B01D000237FE23B68C7F8FB
:104CE000A830D7F8A8301B78A7F8D6303B68C7F8AB
:104CF000B030D7F8B030C7F8AC30D7F8AC301B784C
:104D00001A46D7F8AC301344C7F8D0301DE0D7F8B6
:104D1000D030C7F89C30D7F89C301B781A46B7F8CB
:104D2000D6301344A7F8D630D7F8D030C7F8A4301F
:104D3000D7F8A430C7F8A030D7F8A0301B781A46AF
:104D4000D7F8A0301344C7F8D030D7F8D030C7F820
:104D50009830D7F8983001331B78242B06D1B7F858
:104D6000D620BB889A4201D8012300E00023002B03
:104D7000CDD1D7F8D030C7F89430D7F8943001337C
:104D80001B78042B14BF01230023DBB2002B01D0BE
:104D9000002323E2D7F8D030C7F8C430D7F8C430A6
:104DA0005B79012B09D1D7F8C4309B79032B04D14F
:104DB000D7F8C430DB79002B01D000230EE20023AA
:104DC000C7F8CC30002387F8CB3027E097F8CB30FA
:104DD000B44A40F6741101FB03F3134401331B780A
:104DE000002B16D197F8CB30AE4A40F6741101FB78
:104DF00003F3134402331B78002B0AD197F8CB300E
:104E000040F6741202FB03F3A64A1344C7F8CC30F1
:104E100008E097F8CB30013387F8CB3097F8CB30E8
:104E2000002BD3D0D7F8CC30002B11D19E4BC7F834
:104E3000B430D7F8B4301B6803F00103002B14BF63
:104E400001230023DBB2002B00D000BE0023C5E10C
:104E5000D7F8C4309A78D7F8CC301A70D7F8D03059
:104E6000C7F88830D7F888301B781A46B7F8D6309C
:104E70001344A7F8D630D7F8D030C7F89030D7F819
:104E80009030C7F88C30D7F88C301B781A46D7F89A
:104E90008C301344C7F8D030002387F8CA307EE046
:104EA000D7F8D030C7F88430D7F8843001331B7876
:104EB000052B0CBF01230023DBB2002B58D0FB795C
:104EC000D7F8D010184623F0F9F8034683F0010311
:104ED000DBB2002B11D0744BC7F8BC30D7F8BC3014
:104EE0001B6803F00103002B14BF01230023DBB276
:104EF000002B00D000BE002370E1D7F8D0309B78A3
:104F000087F8C33097F8C33087F8833097F8833039
:104F1000DB09DBB2012B0CBF01230023DBB2002B2A
:104F200005D0D7F8CC3097F8C3205A7004E0D7F8F2
:104F3000CC3097F8C3209A70D7F8D0307B677B6F5E
:104F40001B781A46B7F8D6301344A7F8D630D7F8EE
:104F5000D030FB67FB6FBB67BB6F1B781A46BB6F1C
:104F60001344C7F8D03097F8CA30013387F8CA30F5
:104F7000D7F8D030BB66BB6E1B781A46B7F8D63070
:104F80001344A7F8D630D7F8D0303B673B6FFB66A9
:104F9000FB6E1B781A46FB6E1344C7F8D030D7F867
:104FA000C4301B7997F8CA209A421DD2B7F8D62090
:104FB000BB889A427FF674AF16E0D7F8D030FB6515
:104FC000FB6D1B781A46B7F8D6301344A7F8D630D5
:104FD000D7F8D0307B667B6E3B663B6E1B781A46FB
:104FE0003B6E1344C7F8D030D7F8D030BB65BB6DEB
:104FF00001331B78242B06D1B7F8D620BB889A4200
:1050000001D8012300E00023002BD6D1CBE0D7F854
:10501000D030C7F8B830D7F8B8309A78D7F8C4305D
:105020009B789A4240F0D380D7F8D030FB64FB6C79
:105030001B781A46B7F8D6301344A7F8D630D7F8FD
:10504000D0307B657B6D3B653B6D1B781A463B6DB5
:105050001344C7F8D03016E0D7F8D0303B643B6C2F
:105060001B781A46B7F8D6301344A7F8D630D7F8CD
:10507000D030BB64BB6C7B647B6C1B781A467B6C4A
:105080001344C7F8D030D7F8D030FB63FB6B013343
:105090001B78242B0AD1B7F8D620BB889A4205D8B2
:1050A000012304E094200020F0ED00E00023002B19
:1050B000D2D1002387F8C9303FE0D7F8D030BB63A6
:1050C000BB6B01331B78052B0CBF01230023DBB224
:1050D000002B1BD0D7F8D030FB62FB6A1B781A4636
:1050E000B7F8D6301344A7F8D630D7F8D0307B6362
:1050F0007B6B3B633B6B1B781A463B6B1344C7F8D7
:10510000D03097F8C930013387F8C930D7F8D0309C
:105110003B623B6A1B781A46B7F8D6301344A7F8AF
:10512000D630D7F8D030BB62BB6A7B627B6A1B7813
:105130001A467B6A1344C7F8D030D7F8B8301B79C9
:1051400097F8C9209A421CD2B7F8D620BB889A4259
:10515000B3D916E0D7F8D0307B617B691B781A464B
:10516000B7F8D6301344A7F8D630D7F8D030FB6163
:10517000FB69BB61BB691B781A46BB691344C7F85E
:10518000D030D7F8D0303B613B6901331B78242BFA
:1051900006D1B7F8D620BB889A4201D8012300E097
:1051A0000023002BD6D1D7F8D030FB60FB68013349
:1051B0001B78042B06D1B7F8D620BB889A4201D8B9
:1051C000012300E00023002B7FF421AF00E000BFAB
:1051D000D7F8CC00FEF7F6FDB7F8D6301846D8372A
:1051E000BD4680BD80B586B000AF03463A60FB7116
:1051F0000B46BB71BB79012B01D001238BE03B68CF
:105200009B889BB2BB81BB89DBB2FB7300237B61B4
:105210000023FB7416E0FB7C414A40F6741101FB4D
:1052200003F313441B78FA7B9A4208D1FB7C40F6C7
:10523000741202FB03F33A4A13447B6105E0FB7CE2
:105240000133FB74FB7C002BE5D07B69002B01D183
:10525000002360E03B685B78062B2DD00B2B59D1E7
:105260003B685B889BB27B817B89DAB27B6983F880
:1052700070297B6903F5A273184621F084FB7B69D2
:1052800003F5AC73184621F07EFB264B002B0CD0A7
:105290003B689B889BB23B813B89DAB27B6993F880
:1052A000703919461046AFF30080FB79396818460B
:1052B00023F0ECF801232EE03B685B889BB242F2BE
:1052C0000162934224D1184B002B09D0FB79396835
:1052D0001846FEF707FD0346002B01D0012300E02E
:1052E0000023002B01D0012315E03B689A79DB797C
:1052F0001B0213433B823B8A122B01D912233B82B0
:105300003B8AF879094A396823F032F9012302E02F
:10531000002300E0002318461837BD4680BD00BFBB
:105320009420002000000000E53C0000E80400207C
:1053300080B586B000AF3B600346FB710B46BB7186
:1053400013467B710023FB7514E0FB7D40F674125D
:1053500002FB03F33E4A13443B613B699B78BA79F5
:105360009A420AD03B695B78BA799A4205D0FB7DB4
:105370000133FB75FB7D002BE7D0FB7D002B0FD0AD
:10538000344BFB60FB681B6803F00103002B14BF68
:1053900001230023DBB2002B00D000BE002352E02B
:1053A0003B699B78BA799A4215D13B6903F5A270A3
:1053B0003B6903F5AE633A6892B2194621F0D1FA1F
:1053C000254B002B03D0FB7D1846AFF300803869D6
:1053D000FEF7F8FC36E03B695B78BA799A4231D146
:1053E0003869FEF76DFE0346002B0CBF0123002336
:1053F000DBB2002B26D03B6903F5AC73184621F0D5
:10540000A0F90346002B09D13B68002B06D03B686E
:10541000C3F30803002B01D1012300E00023002B7C
:1054200010D03B695A78FB791146184622F08AFE63
:105430000346002B06D03B695978F87900230022F7
:1054400022F0DCFE012318461837BD4680BD00BFA0
:1054500094200020F0ED00E00000000080B48BB04C
:1054600000AFF860B9607A60FB68002B05D0BB68BC
:10547000002B02D07B68002B01D1002306E207F14C
:105480000C037B617B6800221A707B691B781B0907
:10549000FB747B691B7803F00F0387F8273097F8BC
:1054A00027300F2B15D17B6901331B785BB2002BA2
:1054B0000FDA7B6901331B78F62B02DCF42B03DA5D
:1054C00006E0F83B072B03D8052387F8273000E0D8
:1054D00000BF012387F82630042387F8253097F88A
:1054E0002730023B0C2B00F2CE8101A252F823F0B0
:1054F0004D5800004D58000025550000CF550000C4
:10550000A15600004B5700000D5800000D58000038
:105510000D5800000D5800000D5800000D580000F7
:105520000D580000BB681B7883F00103DBB2002B31
:1055300013D07B6901331B78F02B01D00023A5E148
:10554000022387F82630042387F825307B6812224F
:105550005A71BB6801221A7008E0012387F82630CF
:10556000042387F825307B6823225A71FB7C43F0A3
:105570003003DAB27B681A717B6802221A7097F8DE
:10558000263087F82430022387F823301AE097F872
:10559000242097F825309A4208D27A6997F8243067
:1055A000591C87F824101344197800E0002197F85B
:1055B00023307A6813440A461A7197F8233001336E
:1055C00087F8233097F82330072BE0D95DE17B691A
:1055D00001331B785BB2002B18DA7B6901331B782F
:1055E000F72B13D0FB7C43F01003DAB27B681A71FF
:1055F0007B695A787B685A717B6800229A717B6854
:105600000022DA717B6801221A703EE1FB7C43F0D4
:105610003003DAB27B681A71BB681B78002B1DD08F
:105620007B6901331B78F72B01D000232EE17B68C7
:1056300030225A71BB6800221A70012387F8263085
:10564000012387F825307B6802221A7097F82630EC
:1056500087F82430022387F822301CE0002315E16C
:1056600097F8242097F825309A4208D27A6997F85B
:105670002430591C87F824101344197800E00021C5
:1056800097F822307A6813440A461A7197F8223044
:10569000013387F8223097F82230072BE0D9F4E065
:1056A000FB7C43F03003DAB27B681A71BB681B786D
:1056B000002B13D07B6902331B78F72B01D000231A
:1056C000E4E07B6831225A71BB6800221A70012322
:1056D00087F82630022387F825300BE07B6800220C
:1056E0005A71BB6800221A70012387F82630012303
:1056F00087F825307B6802221A7097F8263087F8E1
:105700002430022387F821301AE097F8242097F8F4
:1057100025309A4208D27A6997F82430591C87F8C4
:1057200024101344197800E0002197F821307A689A
:1057300013440A461A7197F82130013387F8213053
:1057400097F82130072BE0D99FE0FB7C43F0300332
:10575000DAB27B681A71BB681B78002B13D07B69A7
:1057600003331B78F72B01D000238FE07B683222B4
:105770005A71BB6800221A70012387F82630032370
:1057800087F8253017E07B6901331B78F02B04D1B3
:105790007B6903331B78F72B01D0002376E07B680D
:1057A00001225A71BB6800221A70022387F8263042
:1057B000032387F825307B6802221A7097F8263079
:1057C00087F82430022387F820301AE097F8242045
:1057D00097F825309A4208D27A6997F82430591CF4
:1057E00087F824101344197800E0002197F820303E
:1057F0007A6813440A461A7197F82030013387F803
:10580000203097F82030072BE0D93EE0FB7C43F0B6
:105810002003DAB27B681A71BB6800221A70012378
:10582000FB610CE0FB697A69134419787A68FB69BB
:10583000134404330A461A70FB690133FB61FB69A8
:10584000032BEFDD7B6801221A701EE0FB7C43F026
:105850001003DAB27B681A710123BB610CE0BB69EB
:105860007A69134419787A68BB69134404330A4689
:105870001A70BB690133BB61BB69032BEFDD7B6829
:1058800001221A7001E0002300E0012318462C37A2
:10589000BD465DF8047B704780B500AFFAF7D6FDD2
:1058A00000BF80BD80B500AFFAF7D0FD00BF80BD5E
:1058B00080B500AFFAF7CAFD00BF80BD80B500AF6C
:1058C000FAF7C4FD00BF80BD80B500AFFAF7BEFD9A
:1058D00000BF80BD80B500AFFAF7B8FD00BF80BD46
:1058E00080B500AFFAF7B2FD00BF80BD80B500AF54
:1058F000FAF7ACFD00BF80BD80B500AFFAF7A6FD9A
:1059000000BF80BD80B500AFFAF7A0FD00BF80BD2D
:1059100080B500AFFAF79AFD00BF80BD80B500AF3B
:10592000FAF794FD00BF80BD80B500AFFAF78EFD99
:1059300000BF80BD80B500AFFAF788FD00BF80BD15
:1059400080B500AFFAF782FD00BF80BD80B500AF23
:10595000FAF77CFD00BF80BD80B500AFFAF776FD99
:1059600000BF80BD80B500AFFAF770FD00BF80BDFD
:1059700080B500AFFAF76AFD00BF80BD80B500AF0B
:10598000FAF764FD00BF80BD80B500AFFAF75EFD99
:1059900000BF80BD80B500AFFAF758FD00BF80BDE5
:1059A00080B500AFFAF752FD00BF80BD80B500AFF3
:1059B000FAF74CFD00BF80BD80B500AFFAF746FD99
:1059C00000BF80BD80B500AFFAF740FD00BF80BDCD
:1059D00080B500AFFAF73AFD00BF80BD80B500AFDB
:1059E000FAF734FD00BF80BD80B500AFFAF72EFD99
:1059F00000BF80BD80B500AFFAF728FD00BF80BDB5
:105A000080B500AFFAF722FD00BF80BD80B500AFC2
:105A1000FAF71CFD00BF80BD80B500AFFAF716FD98
:105A200000BF80BD80B500AFFAF710FD00BF80BD9C
:105A300080B500AFFAF70AFD00BF80BD80B500AFAA
:105A400004F054F800BF80BD80B500AF04F055F8F5
:105A500000BF80BD80B500AF04F056F800BF80BD28
:105A600080B500AF04F057F800BF80BD80B500AF2F
:105A700004F058F800BF80BD80B500AF04F059F8BD
:105A800000BF80BD80B500AF04F05AF800BF80BDF4
:105A900080B500AF04F05BF800BF80BD80B500AFFB
:105AA00004F05CF800BF80BD80B500AF04F05DF885
:105AB00000BF80BD80B500AFFAF7C8FC00BF80BD55
:105AC00080B500AFFAF7C2FC00BF80BD80B500AF63
:105AD000FAF7BCFC00BF80BD80B500AFFAF7B6FC9A
